{
	"contracts/FishToken.sol": {
		"FishERC20": {
			"abi": [
				{
					"anonymous": false,
					"inputs": [
						{
							"indexed": true,
							"internalType": "address",
							"name": "owner",
							"type": "address"
						},
						{
							"indexed": true,
							"internalType": "address",
							"name": "spender",
							"type": "address"
						},
						{
							"indexed": false,
							"internalType": "uint256",
							"name": "value",
							"type": "uint256"
						}
					],
					"name": "Approval",
					"type": "event"
				},
				{
					"anonymous": false,
					"inputs": [
						{
							"indexed": true,
							"internalType": "address",
							"name": "previousOwner",
							"type": "address"
						},
						{
							"indexed": true,
							"internalType": "address",
							"name": "newOwner",
							"type": "address"
						}
					],
					"name": "OwnershipTransferred",
					"type": "event"
				},
				{
					"anonymous": false,
					"inputs": [
						{
							"indexed": true,
							"internalType": "address",
							"name": "from",
							"type": "address"
						},
						{
							"indexed": true,
							"internalType": "address",
							"name": "to",
							"type": "address"
						},
						{
							"indexed": false,
							"internalType": "uint256",
							"name": "value",
							"type": "uint256"
						}
					],
					"name": "Transfer",
					"type": "event"
				},
				{
					"inputs": [
						{
							"internalType": "address",
							"name": "account_",
							"type": "address"
						},
						{
							"internalType": "uint256",
							"name": "amount_",
							"type": "uint256"
						}
					],
					"name": "_burnFrom",
					"outputs": [],
					"stateMutability": "nonpayable",
					"type": "function"
				},
				{
					"inputs": [
						{
							"internalType": "address",
							"name": "owner",
							"type": "address"
						},
						{
							"internalType": "address",
							"name": "spender",
							"type": "address"
						}
					],
					"name": "allowance",
					"outputs": [
						{
							"internalType": "uint256",
							"name": "",
							"type": "uint256"
						}
					],
					"stateMutability": "view",
					"type": "function"
				},
				{
					"inputs": [
						{
							"internalType": "address",
							"name": "spender",
							"type": "address"
						},
						{
							"internalType": "uint256",
							"name": "amount",
							"type": "uint256"
						}
					],
					"name": "approve",
					"outputs": [
						{
							"internalType": "bool",
							"name": "",
							"type": "bool"
						}
					],
					"stateMutability": "nonpayable",
					"type": "function"
				},
				{
					"inputs": [
						{
							"internalType": "address",
							"name": "account",
							"type": "address"
						}
					],
					"name": "balanceOf",
					"outputs": [
						{
							"internalType": "uint256",
							"name": "",
							"type": "uint256"
						}
					],
					"stateMutability": "view",
					"type": "function"
				},
				{
					"inputs": [
						{
							"internalType": "uint256",
							"name": "amount",
							"type": "uint256"
						}
					],
					"name": "burn",
					"outputs": [],
					"stateMutability": "nonpayable",
					"type": "function"
				},
				{
					"inputs": [
						{
							"internalType": "address",
							"name": "account_",
							"type": "address"
						},
						{
							"internalType": "uint256",
							"name": "amount_",
							"type": "uint256"
						}
					],
					"name": "burnFrom",
					"outputs": [],
					"stateMutability": "nonpayable",
					"type": "function"
				},
				{
					"inputs": [],
					"name": "decimals",
					"outputs": [
						{
							"internalType": "uint8",
							"name": "",
							"type": "uint8"
						}
					],
					"stateMutability": "view",
					"type": "function"
				},
				{
					"inputs": [
						{
							"internalType": "address",
							"name": "spender",
							"type": "address"
						},
						{
							"internalType": "uint256",
							"name": "subtractedValue",
							"type": "uint256"
						}
					],
					"name": "decreaseAllowance",
					"outputs": [
						{
							"internalType": "bool",
							"name": "",
							"type": "bool"
						}
					],
					"stateMutability": "nonpayable",
					"type": "function"
				},
				{
					"inputs": [
						{
							"internalType": "address",
							"name": "",
							"type": "address"
						}
					],
					"name": "executor",
					"outputs": [
						{
							"internalType": "bool",
							"name": "",
							"type": "bool"
						}
					],
					"stateMutability": "view",
					"type": "function"
				},
				{
					"inputs": [
						{
							"internalType": "address",
							"name": "spender",
							"type": "address"
						},
						{
							"internalType": "uint256",
							"name": "addedValue",
							"type": "uint256"
						}
					],
					"name": "increaseAllowance",
					"outputs": [
						{
							"internalType": "bool",
							"name": "",
							"type": "bool"
						}
					],
					"stateMutability": "nonpayable",
					"type": "function"
				},
				{
					"inputs": [
						{
							"internalType": "string",
							"name": "_name",
							"type": "string"
						},
						{
							"internalType": "string",
							"name": "_symbol",
							"type": "string"
						},
						{
							"internalType": "address",
							"name": "_to",
							"type": "address"
						},
						{
							"internalType": "uint256",
							"name": "_totalSupply",
							"type": "uint256"
						}
					],
					"name": "initialize",
					"outputs": [],
					"stateMutability": "nonpayable",
					"type": "function"
				},
				{
					"inputs": [
						{
							"internalType": "address",
							"name": "account_",
							"type": "address"
						},
						{
							"internalType": "uint256",
							"name": "amount_",
							"type": "uint256"
						}
					],
					"name": "mint",
					"outputs": [
						{
							"internalType": "bool",
							"name": "",
							"type": "bool"
						}
					],
					"stateMutability": "nonpayable",
					"type": "function"
				},
				{
					"inputs": [],
					"name": "name",
					"outputs": [
						{
							"internalType": "string",
							"name": "",
							"type": "string"
						}
					],
					"stateMutability": "view",
					"type": "function"
				},
				{
					"inputs": [],
					"name": "owner",
					"outputs": [
						{
							"internalType": "address",
							"name": "",
							"type": "address"
						}
					],
					"stateMutability": "view",
					"type": "function"
				},
				{
					"inputs": [],
					"name": "renounceOwnership",
					"outputs": [],
					"stateMutability": "nonpayable",
					"type": "function"
				},
				{
					"inputs": [
						{
							"internalType": "address",
							"name": "_address",
							"type": "address"
						},
						{
							"internalType": "bool",
							"name": "_type",
							"type": "bool"
						}
					],
					"name": "setExecutor",
					"outputs": [
						{
							"internalType": "bool",
							"name": "",
							"type": "bool"
						}
					],
					"stateMutability": "nonpayable",
					"type": "function"
				},
				{
					"inputs": [],
					"name": "symbol",
					"outputs": [
						{
							"internalType": "string",
							"name": "",
							"type": "string"
						}
					],
					"stateMutability": "view",
					"type": "function"
				},
				{
					"inputs": [],
					"name": "totalSupply",
					"outputs": [
						{
							"internalType": "uint256",
							"name": "",
							"type": "uint256"
						}
					],
					"stateMutability": "view",
					"type": "function"
				},
				{
					"inputs": [
						{
							"internalType": "address",
							"name": "recipient",
							"type": "address"
						},
						{
							"internalType": "uint256",
							"name": "amount",
							"type": "uint256"
						}
					],
					"name": "transfer",
					"outputs": [
						{
							"internalType": "bool",
							"name": "",
							"type": "bool"
						}
					],
					"stateMutability": "nonpayable",
					"type": "function"
				},
				{
					"inputs": [
						{
							"internalType": "address",
							"name": "sender",
							"type": "address"
						},
						{
							"internalType": "address",
							"name": "recipient",
							"type": "address"
						},
						{
							"internalType": "uint256",
							"name": "amount",
							"type": "uint256"
						}
					],
					"name": "transferFrom",
					"outputs": [
						{
							"internalType": "bool",
							"name": "",
							"type": "bool"
						}
					],
					"stateMutability": "nonpayable",
					"type": "function"
				},
				{
					"inputs": [
						{
							"internalType": "address",
							"name": "newOwner",
							"type": "address"
						}
					],
					"name": "transferOwnership",
					"outputs": [],
					"stateMutability": "nonpayable",
					"type": "function"
				}
			],
			"devdoc": {
				"kind": "dev",
				"methods": {
					"allowance(address,address)": {
						"details": "See {IERC20-allowance}."
					},
					"approve(address,uint256)": {
						"details": "See {IERC20-approve}. Requirements: - `spender` cannot be the zero address."
					},
					"balanceOf(address)": {
						"details": "See {IERC20-balanceOf}."
					},
					"decimals()": {
						"details": "Returns the number of decimals used to get its user representation. For example, if `decimals` equals `2`, a balance of `505` tokens should be displayed to a user as `5.05` (`505 / 10 ** 2`). Tokens usually opt for a value of 18, imitating the relationship between Ether and Wei. This is the value {ERC20} uses, unless this function is overridden; NOTE: This information is only used for _display_ purposes: it in no way affects any of the arithmetic of the contract, including {IERC20-balanceOf} and {IERC20-transfer}."
					},
					"decreaseAllowance(address,uint256)": {
						"details": "Atomically decreases the allowance granted to `spender` by the caller. This is an alternative to {approve} that can be used as a mitigation for problems described in {IERC20-approve}. Emits an {Approval} event indicating the updated allowance. Requirements: - `spender` cannot be the zero address. - `spender` must have allowance for the caller of at least `subtractedValue`."
					},
					"increaseAllowance(address,uint256)": {
						"details": "Atomically increases the allowance granted to `spender` by the caller. This is an alternative to {approve} that can be used as a mitigation for problems described in {IERC20-approve}. Emits an {Approval} event indicating the updated allowance. Requirements: - `spender` cannot be the zero address."
					},
					"name()": {
						"details": "Returns the name of the token."
					},
					"owner()": {
						"details": "Returns the address of the current owner."
					},
					"renounceOwnership()": {
						"details": "Leaves the contract without owner. It will not be possible to call `onlyOwner` functions anymore. Can only be called by the current owner. NOTE: Renouncing ownership will leave the contract without an owner, thereby removing any functionality that is only available to the owner."
					},
					"symbol()": {
						"details": "Returns the symbol of the token, usually a shorter version of the name."
					},
					"totalSupply()": {
						"details": "See {IERC20-totalSupply}."
					},
					"transfer(address,uint256)": {
						"details": "See {IERC20-transfer}. Requirements: - `recipient` cannot be the zero address. - the caller must have a balance of at least `amount`."
					},
					"transferFrom(address,address,uint256)": {
						"details": "See {IERC20-transferFrom}. Emits an {Approval} event indicating the updated allowance. This is not required by the EIP. See the note at the beginning of {ERC20}. Requirements: - `sender` and `recipient` cannot be the zero address. - `sender` must have a balance of at least `amount`. - the caller must have allowance for ``sender``'s tokens of at least `amount`."
					},
					"transferOwnership(address)": {
						"details": "Transfers ownership of the contract to a new account (`newOwner`). Can only be called by the current owner."
					}
				},
				"version": 1
			},
			"evm": {
				"assembly": "    /* \"contracts/FishToken.sol\":515:2049  contract FishERC20 is Initializable, OwnableUpgradeable, ERC20Upgradeable {... */\n  mstore(0x40, 0x80)\n  callvalue\n  dup1\n  iszero\n  tag_1\n  jumpi\n  0x00\n  dup1\n  revert\ntag_1:\n  pop\n  dataSize(sub_0)\n  dup1\n  dataOffset(sub_0)\n  0x00\n  codecopy\n  0x00\n  return\nstop\n\nsub_0: assembly {\n        /* \"contracts/FishToken.sol\":515:2049  contract FishERC20 is Initializable, OwnableUpgradeable, ERC20Upgradeable {... */\n      mstore(0x40, 0x80)\n      callvalue\n      dup1\n      iszero\n      tag_1\n      jumpi\n      0x00\n      dup1\n      revert\n    tag_1:\n      pop\n      jumpi(tag_2, lt(calldatasize, 0x04))\n      shr(0xe0, calldataload(0x00))\n      dup1\n      0x70a08231\n      gt\n      tag_24\n      jumpi\n      dup1\n      0xa22b35ce\n      gt\n      tag_25\n      jumpi\n      dup1\n      0xa22b35ce\n      eq\n      tag_18\n      jumpi\n      dup1\n      0xa457c2d7\n      eq\n      tag_19\n      jumpi\n      dup1\n      0xa9059cbb\n      eq\n      tag_20\n      jumpi\n      dup1\n      0xdd62ed3e\n      eq\n      tag_21\n      jumpi\n      dup1\n      0xf2fde38b\n      eq\n      tag_22\n      jumpi\n      dup1\n      0xf542033f\n      eq\n      tag_23\n      jumpi\n      jump(tag_2)\n    tag_25:\n      dup1\n      0x70a08231\n      eq\n      tag_13\n      jumpi\n      dup1\n      0x715018a6\n      eq\n      tag_14\n      jumpi\n      dup1\n      0x79cc6790\n      eq\n      tag_15\n      jumpi\n      dup1\n      0x8da5cb5b\n      eq\n      tag_16\n      jumpi\n      dup1\n      0x95d89b41\n      eq\n      tag_17\n      jumpi\n      jump(tag_2)\n    tag_24:\n      dup1\n      0x313ce567\n      gt\n      tag_26\n      jumpi\n      dup1\n      0x313ce567\n      eq\n      tag_8\n      jumpi\n      dup1\n      0x39509351\n      eq\n      tag_9\n      jumpi\n      dup1\n      0x40c10f19\n      eq\n      tag_10\n      jumpi\n      dup1\n      0x42966c68\n      eq\n      tag_11\n      jumpi\n      dup1\n      0x48c7e528\n      eq\n      tag_12\n      jumpi\n      jump(tag_2)\n    tag_26:\n      dup1\n      0x06fdde03\n      eq\n      tag_3\n      jumpi\n      dup1\n      0x095ea7b3\n      eq\n      tag_4\n      jumpi\n      dup1\n      0x18160ddd\n      eq\n      tag_5\n      jumpi\n      dup1\n      0x1e1bff3f\n      eq\n      tag_6\n      jumpi\n      dup1\n      0x23b872dd\n      eq\n      tag_7\n      jumpi\n    tag_2:\n      0x00\n      dup1\n      revert\n        /* \"@openzeppelin/contracts-upgradeable/token/ERC20/ERC20Upgradeable.sol\":2504:2602  function name() public view virtual override returns (string memory) {... */\n    tag_3:\n      tag_27\n      tag_28\n      jump\t// in\n    tag_27:\n      mload(0x40)\n      tag_29\n      swap2\n      swap1\n      tag_30\n      jump\t// in\n    tag_29:\n      mload(0x40)\n      dup1\n      swap2\n      sub\n      swap1\n      return\n        /* \"@openzeppelin/contracts-upgradeable/token/ERC20/ERC20Upgradeable.sol\":4601:4767  function approve(address spender, uint256 amount) public virtual override returns (bool) {... */\n    tag_4:\n      tag_31\n      0x04\n      dup1\n      calldatasize\n      sub\n      dup2\n      add\n      swap1\n      tag_32\n      swap2\n      swap1\n      tag_33\n      jump\t// in\n    tag_32:\n      tag_34\n      jump\t// in\n    tag_31:\n      mload(0x40)\n      tag_35\n      swap2\n      swap1\n      tag_36\n      jump\t// in\n    tag_35:\n      mload(0x40)\n      dup1\n      swap2\n      sub\n      swap1\n      return\n        /* \"@openzeppelin/contracts-upgradeable/token/ERC20/ERC20Upgradeable.sol\":3592:3698  function totalSupply() public view virtual override returns (uint256) {... */\n    tag_5:\n      tag_37\n      tag_38\n      jump\t// in\n    tag_37:\n      mload(0x40)\n      tag_39\n      swap2\n      swap1\n      tag_40\n      jump\t// in\n    tag_39:\n      mload(0x40)\n      dup1\n      swap2\n      sub\n      swap1\n      return\n        /* \"contracts/FishToken.sol\":1013:1190  function setExecutor(address _address, bool _type)... */\n    tag_6:\n      tag_41\n      0x04\n      dup1\n      calldatasize\n      sub\n      dup2\n      add\n      swap1\n      tag_42\n      swap2\n      swap1\n      tag_43\n      jump\t// in\n    tag_42:\n      tag_44\n      jump\t// in\n    tag_41:\n      mload(0x40)\n      tag_45\n      swap2\n      swap1\n      tag_36\n      jump\t// in\n    tag_45:\n      mload(0x40)\n      dup1\n      swap2\n      sub\n      swap1\n      return\n        /* \"@openzeppelin/contracts-upgradeable/token/ERC20/ERC20Upgradeable.sol\":5234:5712  function transferFrom(... */\n    tag_7:\n      tag_46\n      0x04\n      dup1\n      calldatasize\n      sub\n      dup2\n      add\n      swap1\n      tag_47\n      swap2\n      swap1\n      tag_48\n      jump\t// in\n    tag_47:\n      tag_49\n      jump\t// in\n    tag_46:\n      mload(0x40)\n      tag_50\n      swap2\n      swap1\n      tag_36\n      jump\t// in\n    tag_50:\n      mload(0x40)\n      dup1\n      swap2\n      sub\n      swap1\n      return\n        /* \"@openzeppelin/contracts-upgradeable/token/ERC20/ERC20Upgradeable.sol\":3441:3532  function decimals() public view virtual override returns (uint8) {... */\n    tag_8:\n      tag_51\n      tag_52\n      jump\t// in\n    tag_51:\n      mload(0x40)\n      tag_53\n      swap2\n      swap1\n      tag_54\n      jump\t// in\n    tag_53:\n      mload(0x40)\n      dup1\n      swap2\n      sub\n      swap1\n      return\n        /* \"@openzeppelin/contracts-upgradeable/token/ERC20/ERC20Upgradeable.sol\":6107:6319  function increaseAllowance(address spender, uint256 addedValue) public virtual returns (bool) {... */\n    tag_9:\n      tag_55\n      0x04\n      dup1\n      calldatasize\n      sub\n      dup2\n      add\n      swap1\n      tag_56\n      swap2\n      swap1\n      tag_33\n      jump\t// in\n    tag_56:\n      tag_57\n      jump\t// in\n    tag_55:\n      mload(0x40)\n      tag_58\n      swap2\n      swap1\n      tag_36\n      jump\t// in\n    tag_58:\n      mload(0x40)\n      dup1\n      swap2\n      sub\n      swap1\n      return\n        /* \"contracts/FishToken.sol\":1323:1499  function mint(address account_, uint256 amount_)... */\n    tag_10:\n      tag_59\n      0x04\n      dup1\n      calldatasize\n      sub\n      dup2\n      add\n      swap1\n      tag_60\n      swap2\n      swap1\n      tag_33\n      jump\t// in\n    tag_60:\n      tag_61\n      jump\t// in\n    tag_59:\n      mload(0x40)\n      tag_62\n      swap2\n      swap1\n      tag_36\n      jump\t// in\n    tag_62:\n      mload(0x40)\n      dup1\n      swap2\n      sub\n      swap1\n      return\n        /* \"contracts/FishToken.sol\":1505:1592  function burn(uint256 amount) public virtual {... */\n    tag_11:\n      tag_63\n      0x04\n      dup1\n      calldatasize\n      sub\n      dup2\n      add\n      swap1\n      tag_64\n      swap2\n      swap1\n      tag_65\n      jump\t// in\n    tag_64:\n      tag_66\n      jump\t// in\n    tag_63:\n      stop\n        /* \"contracts/FishToken.sol\":697:737  mapping(address => bool) public executor */\n    tag_12:\n      tag_67\n      0x04\n      dup1\n      calldatasize\n      sub\n      dup2\n      add\n      swap1\n      tag_68\n      swap2\n      swap1\n      tag_69\n      jump\t// in\n    tag_68:\n      tag_70\n      jump\t// in\n    tag_67:\n      mload(0x40)\n      tag_71\n      swap2\n      swap1\n      tag_36\n      jump\t// in\n    tag_71:\n      mload(0x40)\n      dup1\n      swap2\n      sub\n      swap1\n      return\n        /* \"@openzeppelin/contracts-upgradeable/token/ERC20/ERC20Upgradeable.sol\":3756:3881  function balanceOf(address account) public view virtual override returns (uint256) {... */\n    tag_13:\n      tag_72\n      0x04\n      dup1\n      calldatasize\n      sub\n      dup2\n      add\n      swap1\n      tag_73\n      swap2\n      swap1\n      tag_69\n      jump\t// in\n    tag_73:\n      tag_74\n      jump\t// in\n    tag_72:\n      mload(0x40)\n      tag_75\n      swap2\n      swap1\n      tag_40\n      jump\t// in\n    tag_75:\n      mload(0x40)\n      dup1\n      swap2\n      sub\n      swap1\n      return\n        /* \"@openzeppelin/contracts-upgradeable/access/OwnableUpgradeable.sol\":1934:2035  function renounceOwnership() public virtual onlyOwner {... */\n    tag_14:\n      tag_76\n      tag_77\n      jump\t// in\n    tag_76:\n      stop\n        /* \"contracts/FishToken.sol\":1598:1711  function burnFrom(address account_, uint256 amount_) public virtual {... */\n    tag_15:\n      tag_78\n      0x04\n      dup1\n      calldatasize\n      sub\n      dup2\n      add\n      swap1\n      tag_79\n      swap2\n      swap1\n      tag_33\n      jump\t// in\n    tag_79:\n      tag_80\n      jump\t// in\n    tag_78:\n      stop\n        /* \"@openzeppelin/contracts-upgradeable/access/OwnableUpgradeable.sol\":1302:1387  function owner() public view virtual returns (address) {... */\n    tag_16:\n      tag_81\n      tag_82\n      jump\t// in\n    tag_81:\n      mload(0x40)\n      tag_83\n      swap2\n      swap1\n      tag_84\n      jump\t// in\n    tag_83:\n      mload(0x40)\n      dup1\n      swap2\n      sub\n      swap1\n      return\n        /* \"@openzeppelin/contracts-upgradeable/token/ERC20/ERC20Upgradeable.sol\":2715:2817  function symbol() public view virtual override returns (string memory) {... */\n    tag_17:\n      tag_85\n      tag_86\n      jump\t// in\n    tag_85:\n      mload(0x40)\n      tag_87\n      swap2\n      swap1\n      tag_30\n      jump\t// in\n    tag_87:\n      mload(0x40)\n      dup1\n      swap2\n      sub\n      swap1\n      return\n        /* \"contracts/FishToken.sol\":1717:2047  function _burnFrom(address account_, uint256 amount_) public virtual {... */\n    tag_18:\n      tag_88\n      0x04\n      dup1\n      calldatasize\n      sub\n      dup2\n      add\n      swap1\n      tag_89\n      swap2\n      swap1\n      tag_33\n      jump\t// in\n    tag_89:\n      tag_90\n      jump\t// in\n    tag_88:\n      stop\n        /* \"@openzeppelin/contracts-upgradeable/token/ERC20/ERC20Upgradeable.sol\":6806:7211  function decreaseAllowance(address spender, uint256 subtractedValue) public virtual returns (bool) {... */\n    tag_19:\n      tag_91\n      0x04\n      dup1\n      calldatasize\n      sub\n      dup2\n      add\n      swap1\n      tag_92\n      swap2\n      swap1\n      tag_33\n      jump\t// in\n    tag_92:\n      tag_93\n      jump\t// in\n    tag_91:\n      mload(0x40)\n      tag_94\n      swap2\n      swap1\n      tag_36\n      jump\t// in\n    tag_94:\n      mload(0x40)\n      dup1\n      swap2\n      sub\n      swap1\n      return\n        /* \"@openzeppelin/contracts-upgradeable/token/ERC20/ERC20Upgradeable.sol\":4084:4256  function transfer(address recipient, uint256 amount) public virtual override returns (bool) {... */\n    tag_20:\n      tag_95\n      0x04\n      dup1\n      calldatasize\n      sub\n      dup2\n      add\n      swap1\n      tag_96\n      swap2\n      swap1\n      tag_33\n      jump\t// in\n    tag_96:\n      tag_97\n      jump\t// in\n    tag_95:\n      mload(0x40)\n      tag_98\n      swap2\n      swap1\n      tag_36\n      jump\t// in\n    tag_98:\n      mload(0x40)\n      dup1\n      swap2\n      sub\n      swap1\n      return\n        /* \"@openzeppelin/contracts-upgradeable/token/ERC20/ERC20Upgradeable.sol\":4314:4463  function allowance(address owner, address spender) public view virtual override returns (uint256) {... */\n    tag_21:\n      tag_99\n      0x04\n      dup1\n      calldatasize\n      sub\n      dup2\n      add\n      swap1\n      tag_100\n      swap2\n      swap1\n      tag_101\n      jump\t// in\n    tag_100:\n      tag_102\n      jump\t// in\n    tag_99:\n      mload(0x40)\n      tag_103\n      swap2\n      swap1\n      tag_40\n      jump\t// in\n    tag_103:\n      mload(0x40)\n      dup1\n      swap2\n      sub\n      swap1\n      return\n        /* \"@openzeppelin/contracts-upgradeable/access/OwnableUpgradeable.sol\":2184:2382  function transferOwnership(address newOwner) public virtual onlyOwner {... */\n    tag_22:\n      tag_104\n      0x04\n      dup1\n      calldatasize\n      sub\n      dup2\n      add\n      swap1\n      tag_105\n      swap2\n      swap1\n      tag_69\n      jump\t// in\n    tag_105:\n      tag_106\n      jump\t// in\n    tag_104:\n      stop\n        /* \"contracts/FishToken.sol\":744:1007  function initialize(... */\n    tag_23:\n      tag_107\n      0x04\n      dup1\n      calldatasize\n      sub\n      dup2\n      add\n      swap1\n      tag_108\n      swap2\n      swap1\n      tag_109\n      jump\t// in\n    tag_108:\n      tag_110\n      jump\t// in\n    tag_107:\n      stop\n        /* \"@openzeppelin/contracts-upgradeable/token/ERC20/ERC20Upgradeable.sol\":2504:2602  function name() public view virtual override returns (string memory) {... */\n    tag_28:\n        /* \"@openzeppelin/contracts-upgradeable/token/ERC20/ERC20Upgradeable.sol\":2558:2571  string memory */\n      0x60\n        /* \"@openzeppelin/contracts-upgradeable/token/ERC20/ERC20Upgradeable.sol\":2590:2595  _name */\n      0x68\n        /* \"@openzeppelin/contracts-upgradeable/token/ERC20/ERC20Upgradeable.sol\":2583:2595  return _name */\n      dup1\n      sload\n      tag_112\n      swap1\n      tag_113\n      jump\t// in\n    tag_112:\n      dup1\n      0x1f\n      add\n      0x20\n      dup1\n      swap2\n      div\n      mul\n      0x20\n      add\n      mload(0x40)\n      swap1\n      dup2\n      add\n      0x40\n      mstore\n      dup1\n      swap3\n      swap2\n      swap1\n      dup2\n      dup2\n      mstore\n      0x20\n      add\n      dup3\n      dup1\n      sload\n      tag_114\n      swap1\n      tag_113\n      jump\t// in\n    tag_114:\n      dup1\n      iszero\n      tag_115\n      jumpi\n      dup1\n      0x1f\n      lt\n      tag_116\n      jumpi\n      0x0100\n      dup1\n      dup4\n      sload\n      div\n      mul\n      dup4\n      mstore\n      swap2\n      0x20\n      add\n      swap2\n      jump(tag_115)\n    tag_116:\n      dup3\n      add\n      swap2\n      swap1\n      0x00\n      mstore\n      keccak256(0x00, 0x20)\n      swap1\n    tag_117:\n      dup2\n      sload\n      dup2\n      mstore\n      swap1\n      0x01\n      add\n      swap1\n      0x20\n      add\n      dup1\n      dup4\n      gt\n      tag_117\n      jumpi\n      dup3\n      swap1\n      sub\n      0x1f\n      and\n      dup3\n      add\n      swap2\n    tag_115:\n      pop\n      pop\n      pop\n      pop\n      pop\n      swap1\n      pop\n        /* \"@openzeppelin/contracts-upgradeable/token/ERC20/ERC20Upgradeable.sol\":2504:2602  function name() public view virtual override returns (string memory) {... */\n      swap1\n      jump\t// out\n        /* \"@openzeppelin/contracts-upgradeable/token/ERC20/ERC20Upgradeable.sol\":4601:4767  function approve(address spender, uint256 amount) public virtual override returns (bool) {... */\n    tag_34:\n        /* \"@openzeppelin/contracts-upgradeable/token/ERC20/ERC20Upgradeable.sol\":4684:4688  bool */\n      0x00\n        /* \"@openzeppelin/contracts-upgradeable/token/ERC20/ERC20Upgradeable.sol\":4700:4739  _approve(_msgSender(), spender, amount) */\n      tag_119\n        /* \"@openzeppelin/contracts-upgradeable/token/ERC20/ERC20Upgradeable.sol\":4709:4721  _msgSender() */\n      tag_120\n        /* \"@openzeppelin/contracts-upgradeable/token/ERC20/ERC20Upgradeable.sol\":4709:4719  _msgSender */\n      tag_121\n        /* \"@openzeppelin/contracts-upgradeable/token/ERC20/ERC20Upgradeable.sol\":4709:4721  _msgSender() */\n      jump\t// in\n    tag_120:\n        /* \"@openzeppelin/contracts-upgradeable/token/ERC20/ERC20Upgradeable.sol\":4723:4730  spender */\n      dup5\n        /* \"@openzeppelin/contracts-upgradeable/token/ERC20/ERC20Upgradeable.sol\":4732:4738  amount */\n      dup5\n        /* \"@openzeppelin/contracts-upgradeable/token/ERC20/ERC20Upgradeable.sol\":4700:4708  _approve */\n      tag_122\n        /* \"@openzeppelin/contracts-upgradeable/token/ERC20/ERC20Upgradeable.sol\":4700:4739  _approve(_msgSender(), spender, amount) */\n      jump\t// in\n    tag_119:\n        /* \"@openzeppelin/contracts-upgradeable/token/ERC20/ERC20Upgradeable.sol\":4756:4760  true */\n      0x01\n        /* \"@openzeppelin/contracts-upgradeable/token/ERC20/ERC20Upgradeable.sol\":4749:4760  return true */\n      swap1\n      pop\n        /* \"@openzeppelin/contracts-upgradeable/token/ERC20/ERC20Upgradeable.sol\":4601:4767  function approve(address spender, uint256 amount) public virtual override returns (bool) {... */\n      swap3\n      swap2\n      pop\n      pop\n      jump\t// out\n        /* \"@openzeppelin/contracts-upgradeable/token/ERC20/ERC20Upgradeable.sol\":3592:3698  function totalSupply() public view virtual override returns (uint256) {... */\n    tag_38:\n        /* \"@openzeppelin/contracts-upgradeable/token/ERC20/ERC20Upgradeable.sol\":3653:3660  uint256 */\n      0x00\n        /* \"@openzeppelin/contracts-upgradeable/token/ERC20/ERC20Upgradeable.sol\":3679:3691  _totalSupply */\n      sload(0x67)\n        /* \"@openzeppelin/contracts-upgradeable/token/ERC20/ERC20Upgradeable.sol\":3672:3691  return _totalSupply */\n      swap1\n      pop\n        /* \"@openzeppelin/contracts-upgradeable/token/ERC20/ERC20Upgradeable.sol\":3592:3698  function totalSupply() public view virtual override returns (uint256) {... */\n      swap1\n      jump\t// out\n        /* \"contracts/FishToken.sol\":1013:1190  function setExecutor(address _address, bool _type)... */\n    tag_44:\n        /* \"contracts/FishToken.sol\":1116:1120  bool */\n      0x00\n        /* \"@openzeppelin/contracts-upgradeable/access/OwnableUpgradeable.sol\":1525:1537  _msgSender() */\n      tag_125\n        /* \"@openzeppelin/contracts-upgradeable/access/OwnableUpgradeable.sol\":1525:1535  _msgSender */\n      tag_121\n        /* \"@openzeppelin/contracts-upgradeable/access/OwnableUpgradeable.sol\":1525:1537  _msgSender() */\n      jump\t// in\n    tag_125:\n        /* \"@openzeppelin/contracts-upgradeable/access/OwnableUpgradeable.sol\":1514:1537  owner() == _msgSender() */\n      0xffffffffffffffffffffffffffffffffffffffff\n      and\n        /* \"@openzeppelin/contracts-upgradeable/access/OwnableUpgradeable.sol\":1514:1521  owner() */\n      tag_126\n        /* \"@openzeppelin/contracts-upgradeable/access/OwnableUpgradeable.sol\":1514:1519  owner */\n      tag_82\n        /* \"@openzeppelin/contracts-upgradeable/access/OwnableUpgradeable.sol\":1514:1521  owner() */\n      jump\t// in\n    tag_126:\n        /* \"@openzeppelin/contracts-upgradeable/access/OwnableUpgradeable.sol\":1514:1537  owner() == _msgSender() */\n      0xffffffffffffffffffffffffffffffffffffffff\n      and\n      eq\n        /* \"@openzeppelin/contracts-upgradeable/access/OwnableUpgradeable.sol\":1506:1574  require(owner() == _msgSender(), \"Ownable: caller is not the owner\") */\n      tag_127\n      jumpi\n      mload(0x40)\n      0x08c379a000000000000000000000000000000000000000000000000000000000\n      dup2\n      mstore\n      0x04\n      add\n      tag_128\n      swap1\n      tag_129\n      jump\t// in\n    tag_128:\n      mload(0x40)\n      dup1\n      swap2\n      sub\n      swap1\n      revert\n    tag_127:\n        /* \"contracts/FishToken.sol\":1157:1162  _type */\n      dup2\n        /* \"contracts/FishToken.sol\":1136:1144  executor */\n      0x97\n        /* \"contracts/FishToken.sol\":1136:1154  executor[_address] */\n      0x00\n        /* \"contracts/FishToken.sol\":1145:1153  _address */\n      dup6\n        /* \"contracts/FishToken.sol\":1136:1154  executor[_address] */\n      0xffffffffffffffffffffffffffffffffffffffff\n      and\n      0xffffffffffffffffffffffffffffffffffffffff\n      and\n      dup2\n      mstore\n      0x20\n      add\n      swap1\n      dup2\n      mstore\n      0x20\n      add\n      0x00\n      keccak256\n      0x00\n        /* \"contracts/FishToken.sol\":1136:1162  executor[_address] = _type */\n      0x0100\n      exp\n      dup2\n      sload\n      dup2\n      0xff\n      mul\n      not\n      and\n      swap1\n      dup4\n      iszero\n      iszero\n      mul\n      or\n      swap1\n      sstore\n      pop\n        /* \"contracts/FishToken.sol\":1179:1183  true */\n      0x01\n        /* \"contracts/FishToken.sol\":1172:1183  return true */\n      swap1\n      pop\n        /* \"contracts/FishToken.sol\":1013:1190  function setExecutor(address _address, bool _type)... */\n      swap3\n      swap2\n      pop\n      pop\n      jump\t// out\n        /* \"@openzeppelin/contracts-upgradeable/token/ERC20/ERC20Upgradeable.sol\":5234:5712  function transferFrom(... */\n    tag_49:\n        /* \"@openzeppelin/contracts-upgradeable/token/ERC20/ERC20Upgradeable.sol\":5370:5374  bool */\n      0x00\n        /* \"@openzeppelin/contracts-upgradeable/token/ERC20/ERC20Upgradeable.sol\":5386:5422  _transfer(sender, recipient, amount) */\n      tag_132\n        /* \"@openzeppelin/contracts-upgradeable/token/ERC20/ERC20Upgradeable.sol\":5396:5402  sender */\n      dup5\n        /* \"@openzeppelin/contracts-upgradeable/token/ERC20/ERC20Upgradeable.sol\":5404:5413  recipient */\n      dup5\n        /* \"@openzeppelin/contracts-upgradeable/token/ERC20/ERC20Upgradeable.sol\":5415:5421  amount */\n      dup5\n        /* \"@openzeppelin/contracts-upgradeable/token/ERC20/ERC20Upgradeable.sol\":5386:5395  _transfer */\n      tag_133\n        /* \"@openzeppelin/contracts-upgradeable/token/ERC20/ERC20Upgradeable.sol\":5386:5422  _transfer(sender, recipient, amount) */\n      jump\t// in\n    tag_132:\n        /* \"@openzeppelin/contracts-upgradeable/token/ERC20/ERC20Upgradeable.sol\":5433:5457  uint256 currentAllowance */\n      0x00\n        /* \"@openzeppelin/contracts-upgradeable/token/ERC20/ERC20Upgradeable.sol\":5460:5471  _allowances */\n      0x66\n        /* \"@openzeppelin/contracts-upgradeable/token/ERC20/ERC20Upgradeable.sol\":5460:5479  _allowances[sender] */\n      0x00\n        /* \"@openzeppelin/contracts-upgradeable/token/ERC20/ERC20Upgradeable.sol\":5472:5478  sender */\n      dup7\n        /* \"@openzeppelin/contracts-upgradeable/token/ERC20/ERC20Upgradeable.sol\":5460:5479  _allowances[sender] */\n      0xffffffffffffffffffffffffffffffffffffffff\n      and\n      0xffffffffffffffffffffffffffffffffffffffff\n      and\n      dup2\n      mstore\n      0x20\n      add\n      swap1\n      dup2\n      mstore\n      0x20\n      add\n      0x00\n      keccak256\n        /* \"@openzeppelin/contracts-upgradeable/token/ERC20/ERC20Upgradeable.sol\":5460:5493  _allowances[sender][_msgSender()] */\n      0x00\n        /* \"@openzeppelin/contracts-upgradeable/token/ERC20/ERC20Upgradeable.sol\":5480:5492  _msgSender() */\n      tag_134\n        /* \"@openzeppelin/contracts-upgradeable/token/ERC20/ERC20Upgradeable.sol\":5480:5490  _msgSender */\n      tag_121\n        /* \"@openzeppelin/contracts-upgradeable/token/ERC20/ERC20Upgradeable.sol\":5480:5492  _msgSender() */\n      jump\t// in\n    tag_134:\n        /* \"@openzeppelin/contracts-upgradeable/token/ERC20/ERC20Upgradeable.sol\":5460:5493  _allowances[sender][_msgSender()] */\n      0xffffffffffffffffffffffffffffffffffffffff\n      and\n      0xffffffffffffffffffffffffffffffffffffffff\n      and\n      dup2\n      mstore\n      0x20\n      add\n      swap1\n      dup2\n      mstore\n      0x20\n      add\n      0x00\n      keccak256\n      sload\n        /* \"@openzeppelin/contracts-upgradeable/token/ERC20/ERC20Upgradeable.sol\":5433:5493  uint256 currentAllowance = _allowances[sender][_msgSender()] */\n      swap1\n      pop\n        /* \"@openzeppelin/contracts-upgradeable/token/ERC20/ERC20Upgradeable.sol\":5531:5537  amount */\n      dup3\n        /* \"@openzeppelin/contracts-upgradeable/token/ERC20/ERC20Upgradeable.sol\":5511:5527  currentAllowance */\n      dup2\n        /* \"@openzeppelin/contracts-upgradeable/token/ERC20/ERC20Upgradeable.sol\":5511:5537  currentAllowance >= amount */\n      lt\n      iszero\n        /* \"@openzeppelin/contracts-upgradeable/token/ERC20/ERC20Upgradeable.sol\":5503:5582  require(currentAllowance >= amount, \"ERC20: transfer amount exceeds allowance\") */\n      tag_135\n      jumpi\n      mload(0x40)\n      0x08c379a000000000000000000000000000000000000000000000000000000000\n      dup2\n      mstore\n      0x04\n      add\n      tag_136\n      swap1\n      tag_137\n      jump\t// in\n    tag_136:\n      mload(0x40)\n      dup1\n      swap2\n      sub\n      swap1\n      revert\n    tag_135:\n        /* \"@openzeppelin/contracts-upgradeable/token/ERC20/ERC20Upgradeable.sol\":5616:5673  _approve(sender, _msgSender(), currentAllowance - amount) */\n      tag_138\n        /* \"@openzeppelin/contracts-upgradeable/token/ERC20/ERC20Upgradeable.sol\":5625:5631  sender */\n      dup6\n        /* \"@openzeppelin/contracts-upgradeable/token/ERC20/ERC20Upgradeable.sol\":5633:5645  _msgSender() */\n      tag_139\n        /* \"@openzeppelin/contracts-upgradeable/token/ERC20/ERC20Upgradeable.sol\":5633:5643  _msgSender */\n      tag_121\n        /* \"@openzeppelin/contracts-upgradeable/token/ERC20/ERC20Upgradeable.sol\":5633:5645  _msgSender() */\n      jump\t// in\n    tag_139:\n        /* \"@openzeppelin/contracts-upgradeable/token/ERC20/ERC20Upgradeable.sol\":5666:5672  amount */\n      dup6\n        /* \"@openzeppelin/contracts-upgradeable/token/ERC20/ERC20Upgradeable.sol\":5647:5663  currentAllowance */\n      dup5\n        /* \"@openzeppelin/contracts-upgradeable/token/ERC20/ERC20Upgradeable.sol\":5647:5672  currentAllowance - amount */\n      sub\n        /* \"@openzeppelin/contracts-upgradeable/token/ERC20/ERC20Upgradeable.sol\":5616:5624  _approve */\n      tag_122\n        /* \"@openzeppelin/contracts-upgradeable/token/ERC20/ERC20Upgradeable.sol\":5616:5673  _approve(sender, _msgSender(), currentAllowance - amount) */\n      jump\t// in\n    tag_138:\n        /* \"@openzeppelin/contracts-upgradeable/token/ERC20/ERC20Upgradeable.sol\":5701:5705  true */\n      0x01\n        /* \"@openzeppelin/contracts-upgradeable/token/ERC20/ERC20Upgradeable.sol\":5694:5705  return true */\n      swap2\n      pop\n      pop\n        /* \"@openzeppelin/contracts-upgradeable/token/ERC20/ERC20Upgradeable.sol\":5234:5712  function transferFrom(... */\n      swap4\n      swap3\n      pop\n      pop\n      pop\n      jump\t// out\n        /* \"@openzeppelin/contracts-upgradeable/token/ERC20/ERC20Upgradeable.sol\":3441:3532  function decimals() public view virtual override returns (uint8) {... */\n    tag_52:\n        /* \"@openzeppelin/contracts-upgradeable/token/ERC20/ERC20Upgradeable.sol\":3499:3504  uint8 */\n      0x00\n        /* \"@openzeppelin/contracts-upgradeable/token/ERC20/ERC20Upgradeable.sol\":3523:3525  18 */\n      0x12\n        /* \"@openzeppelin/contracts-upgradeable/token/ERC20/ERC20Upgradeable.sol\":3516:3525  return 18 */\n      swap1\n      pop\n        /* \"@openzeppelin/contracts-upgradeable/token/ERC20/ERC20Upgradeable.sol\":3441:3532  function decimals() public view virtual override returns (uint8) {... */\n      swap1\n      jump\t// out\n        /* \"@openzeppelin/contracts-upgradeable/token/ERC20/ERC20Upgradeable.sol\":6107:6319  function increaseAllowance(address spender, uint256 addedValue) public virtual returns (bool) {... */\n    tag_57:\n        /* \"@openzeppelin/contracts-upgradeable/token/ERC20/ERC20Upgradeable.sol\":6195:6199  bool */\n      0x00\n        /* \"@openzeppelin/contracts-upgradeable/token/ERC20/ERC20Upgradeable.sol\":6211:6291  _approve(_msgSender(), spender, _allowances[_msgSender()][spender] + addedValue) */\n      tag_142\n        /* \"@openzeppelin/contracts-upgradeable/token/ERC20/ERC20Upgradeable.sol\":6220:6232  _msgSender() */\n      tag_143\n        /* \"@openzeppelin/contracts-upgradeable/token/ERC20/ERC20Upgradeable.sol\":6220:6230  _msgSender */\n      tag_121\n        /* \"@openzeppelin/contracts-upgradeable/token/ERC20/ERC20Upgradeable.sol\":6220:6232  _msgSender() */\n      jump\t// in\n    tag_143:\n        /* \"@openzeppelin/contracts-upgradeable/token/ERC20/ERC20Upgradeable.sol\":6234:6241  spender */\n      dup5\n        /* \"@openzeppelin/contracts-upgradeable/token/ERC20/ERC20Upgradeable.sol\":6280:6290  addedValue */\n      dup5\n        /* \"@openzeppelin/contracts-upgradeable/token/ERC20/ERC20Upgradeable.sol\":6243:6254  _allowances */\n      0x66\n        /* \"@openzeppelin/contracts-upgradeable/token/ERC20/ERC20Upgradeable.sol\":6243:6268  _allowances[_msgSender()] */\n      0x00\n        /* \"@openzeppelin/contracts-upgradeable/token/ERC20/ERC20Upgradeable.sol\":6255:6267  _msgSender() */\n      tag_144\n        /* \"@openzeppelin/contracts-upgradeable/token/ERC20/ERC20Upgradeable.sol\":6255:6265  _msgSender */\n      tag_121\n        /* \"@openzeppelin/contracts-upgradeable/token/ERC20/ERC20Upgradeable.sol\":6255:6267  _msgSender() */\n      jump\t// in\n    tag_144:\n        /* \"@openzeppelin/contracts-upgradeable/token/ERC20/ERC20Upgradeable.sol\":6243:6268  _allowances[_msgSender()] */\n      0xffffffffffffffffffffffffffffffffffffffff\n      and\n      0xffffffffffffffffffffffffffffffffffffffff\n      and\n      dup2\n      mstore\n      0x20\n      add\n      swap1\n      dup2\n      mstore\n      0x20\n      add\n      0x00\n      keccak256\n        /* \"@openzeppelin/contracts-upgradeable/token/ERC20/ERC20Upgradeable.sol\":6243:6277  _allowances[_msgSender()][spender] */\n      0x00\n        /* \"@openzeppelin/contracts-upgradeable/token/ERC20/ERC20Upgradeable.sol\":6269:6276  spender */\n      dup9\n        /* \"@openzeppelin/contracts-upgradeable/token/ERC20/ERC20Upgradeable.sol\":6243:6277  _allowances[_msgSender()][spender] */\n      0xffffffffffffffffffffffffffffffffffffffff\n      and\n      0xffffffffffffffffffffffffffffffffffffffff\n      and\n      dup2\n      mstore\n      0x20\n      add\n      swap1\n      dup2\n      mstore\n      0x20\n      add\n      0x00\n      keccak256\n      sload\n        /* \"@openzeppelin/contracts-upgradeable/token/ERC20/ERC20Upgradeable.sol\":6243:6290  _allowances[_msgSender()][spender] + addedValue */\n      tag_145\n      swap2\n      swap1\n      tag_146\n      jump\t// in\n    tag_145:\n        /* \"@openzeppelin/contracts-upgradeable/token/ERC20/ERC20Upgradeable.sol\":6211:6219  _approve */\n      tag_122\n        /* \"@openzeppelin/contracts-upgradeable/token/ERC20/ERC20Upgradeable.sol\":6211:6291  _approve(_msgSender(), spender, _allowances[_msgSender()][spender] + addedValue) */\n      jump\t// in\n    tag_142:\n        /* \"@openzeppelin/contracts-upgradeable/token/ERC20/ERC20Upgradeable.sol\":6308:6312  true */\n      0x01\n        /* \"@openzeppelin/contracts-upgradeable/token/ERC20/ERC20Upgradeable.sol\":6301:6312  return true */\n      swap1\n      pop\n        /* \"@openzeppelin/contracts-upgradeable/token/ERC20/ERC20Upgradeable.sol\":6107:6319  function increaseAllowance(address spender, uint256 addedValue) public virtual returns (bool) {... */\n      swap3\n      swap2\n      pop\n      pop\n      jump\t// out\n        /* \"contracts/FishToken.sol\":1323:1499  function mint(address account_, uint256 amount_)... */\n    tag_61:\n        /* \"contracts/FishToken.sol\":1427:1431  bool */\n      0x00\n        /* \"contracts/FishToken.sol\":1238:1246  executor */\n      0x97\n        /* \"contracts/FishToken.sol\":1238:1258  executor[msg.sender] */\n      0x00\n        /* \"contracts/FishToken.sol\":1247:1257  msg.sender */\n      caller\n        /* \"contracts/FishToken.sol\":1238:1258  executor[msg.sender] */\n      0xffffffffffffffffffffffffffffffffffffffff\n      and\n      0xffffffffffffffffffffffffffffffffffffffff\n      and\n      dup2\n      mstore\n      0x20\n      add\n      swap1\n      dup2\n      mstore\n      0x20\n      add\n      0x00\n      keccak256\n      0x00\n      swap1\n      sload\n      swap1\n      0x0100\n      exp\n      swap1\n      div\n      0xff\n      and\n        /* \"contracts/FishToken.sol\":1230:1299  require(executor[msg.sender], \"executor: caller is not the executor\") */\n      tag_148\n      jumpi\n      mload(0x40)\n      0x08c379a000000000000000000000000000000000000000000000000000000000\n      dup2\n      mstore\n      0x04\n      add\n      tag_149\n      swap1\n      tag_150\n      jump\t// in\n    tag_149:\n      mload(0x40)\n      dup1\n      swap2\n      sub\n      swap1\n      revert\n    tag_148:\n        /* \"contracts/FishToken.sol\":1447:1471  _mint(account_, amount_) */\n      tag_152\n        /* \"contracts/FishToken.sol\":1453:1461  account_ */\n      dup4\n        /* \"contracts/FishToken.sol\":1463:1470  amount_ */\n      dup4\n        /* \"contracts/FishToken.sol\":1447:1452  _mint */\n      tag_153\n        /* \"contracts/FishToken.sol\":1447:1471  _mint(account_, amount_) */\n      jump\t// in\n    tag_152:\n        /* \"contracts/FishToken.sol\":1488:1492  true */\n      0x01\n        /* \"contracts/FishToken.sol\":1481:1492  return true */\n      swap1\n      pop\n        /* \"contracts/FishToken.sol\":1323:1499  function mint(address account_, uint256 amount_)... */\n      swap3\n      swap2\n      pop\n      pop\n      jump\t// out\n        /* \"contracts/FishToken.sol\":1505:1592  function burn(uint256 amount) public virtual {... */\n    tag_66:\n        /* \"contracts/FishToken.sol\":1560:1585  _burn(msg.sender, amount) */\n      tag_155\n        /* \"contracts/FishToken.sol\":1566:1576  msg.sender */\n      caller\n        /* \"contracts/FishToken.sol\":1578:1584  amount */\n      dup3\n        /* \"contracts/FishToken.sol\":1560:1565  _burn */\n      tag_156\n        /* \"contracts/FishToken.sol\":1560:1585  _burn(msg.sender, amount) */\n      jump\t// in\n    tag_155:\n        /* \"contracts/FishToken.sol\":1505:1592  function burn(uint256 amount) public virtual {... */\n      pop\n      jump\t// out\n        /* \"contracts/FishToken.sol\":697:737  mapping(address => bool) public executor */\n    tag_70:\n      mstore(0x20, 0x97)\n      dup1\n      0x00\n      mstore\n      keccak256(0x00, 0x40)\n      0x00\n      swap2\n      pop\n      sload\n      swap1\n      0x0100\n      exp\n      swap1\n      div\n      0xff\n      and\n      dup2\n      jump\t// out\n        /* \"@openzeppelin/contracts-upgradeable/token/ERC20/ERC20Upgradeable.sol\":3756:3881  function balanceOf(address account) public view virtual override returns (uint256) {... */\n    tag_74:\n        /* \"@openzeppelin/contracts-upgradeable/token/ERC20/ERC20Upgradeable.sol\":3830:3837  uint256 */\n      0x00\n        /* \"@openzeppelin/contracts-upgradeable/token/ERC20/ERC20Upgradeable.sol\":3856:3865  _balances */\n      0x65\n        /* \"@openzeppelin/contracts-upgradeable/token/ERC20/ERC20Upgradeable.sol\":3856:3874  _balances[account] */\n      0x00\n        /* \"@openzeppelin/contracts-upgradeable/token/ERC20/ERC20Upgradeable.sol\":3866:3873  account */\n      dup4\n        /* \"@openzeppelin/contracts-upgradeable/token/ERC20/ERC20Upgradeable.sol\":3856:3874  _balances[account] */\n      0xffffffffffffffffffffffffffffffffffffffff\n      and\n      0xffffffffffffffffffffffffffffffffffffffff\n      and\n      dup2\n      mstore\n      0x20\n      add\n      swap1\n      dup2\n      mstore\n      0x20\n      add\n      0x00\n      keccak256\n      sload\n        /* \"@openzeppelin/contracts-upgradeable/token/ERC20/ERC20Upgradeable.sol\":3849:3874  return _balances[account] */\n      swap1\n      pop\n        /* \"@openzeppelin/contracts-upgradeable/token/ERC20/ERC20Upgradeable.sol\":3756:3881  function balanceOf(address account) public view virtual override returns (uint256) {... */\n      swap2\n      swap1\n      pop\n      jump\t// out\n        /* \"@openzeppelin/contracts-upgradeable/access/OwnableUpgradeable.sol\":1934:2035  function renounceOwnership() public virtual onlyOwner {... */\n    tag_77:\n        /* \"@openzeppelin/contracts-upgradeable/access/OwnableUpgradeable.sol\":1525:1537  _msgSender() */\n      tag_159\n        /* \"@openzeppelin/contracts-upgradeable/access/OwnableUpgradeable.sol\":1525:1535  _msgSender */\n      tag_121\n        /* \"@openzeppelin/contracts-upgradeable/access/OwnableUpgradeable.sol\":1525:1537  _msgSender() */\n      jump\t// in\n    tag_159:\n        /* \"@openzeppelin/contracts-upgradeable/access/OwnableUpgradeable.sol\":1514:1537  owner() == _msgSender() */\n      0xffffffffffffffffffffffffffffffffffffffff\n      and\n        /* \"@openzeppelin/contracts-upgradeable/access/OwnableUpgradeable.sol\":1514:1521  owner() */\n      tag_160\n        /* \"@openzeppelin/contracts-upgradeable/access/OwnableUpgradeable.sol\":1514:1519  owner */\n      tag_82\n        /* \"@openzeppelin/contracts-upgradeable/access/OwnableUpgradeable.sol\":1514:1521  owner() */\n      jump\t// in\n    tag_160:\n        /* \"@openzeppelin/contracts-upgradeable/access/OwnableUpgradeable.sol\":1514:1537  owner() == _msgSender() */\n      0xffffffffffffffffffffffffffffffffffffffff\n      and\n      eq\n        /* \"@openzeppelin/contracts-upgradeable/access/OwnableUpgradeable.sol\":1506:1574  require(owner() == _msgSender(), \"Ownable: caller is not the owner\") */\n      tag_161\n      jumpi\n      mload(0x40)\n      0x08c379a000000000000000000000000000000000000000000000000000000000\n      dup2\n      mstore\n      0x04\n      add\n      tag_162\n      swap1\n      tag_129\n      jump\t// in\n    tag_162:\n      mload(0x40)\n      dup1\n      swap2\n      sub\n      swap1\n      revert\n    tag_161:\n        /* \"@openzeppelin/contracts-upgradeable/access/OwnableUpgradeable.sol\":1998:2028  _transferOwnership(address(0)) */\n      tag_164\n        /* \"@openzeppelin/contracts-upgradeable/access/OwnableUpgradeable.sol\":2025:2026  0 */\n      0x00\n        /* \"@openzeppelin/contracts-upgradeable/access/OwnableUpgradeable.sol\":1998:2016  _transferOwnership */\n      tag_165\n        /* \"@openzeppelin/contracts-upgradeable/access/OwnableUpgradeable.sol\":1998:2028  _transferOwnership(address(0)) */\n      jump\t// in\n    tag_164:\n        /* \"@openzeppelin/contracts-upgradeable/access/OwnableUpgradeable.sol\":1934:2035  function renounceOwnership() public virtual onlyOwner {... */\n      jump\t// out\n        /* \"contracts/FishToken.sol\":1598:1711  function burnFrom(address account_, uint256 amount_) public virtual {... */\n    tag_80:\n        /* \"contracts/FishToken.sol\":1676:1704  _burnFrom(account_, amount_) */\n      tag_167\n        /* \"contracts/FishToken.sol\":1686:1694  account_ */\n      dup3\n        /* \"contracts/FishToken.sol\":1696:1703  amount_ */\n      dup3\n        /* \"contracts/FishToken.sol\":1676:1685  _burnFrom */\n      tag_90\n        /* \"contracts/FishToken.sol\":1676:1704  _burnFrom(account_, amount_) */\n      jump\t// in\n    tag_167:\n        /* \"contracts/FishToken.sol\":1598:1711  function burnFrom(address account_, uint256 amount_) public virtual {... */\n      pop\n      pop\n      jump\t// out\n        /* \"@openzeppelin/contracts-upgradeable/access/OwnableUpgradeable.sol\":1302:1387  function owner() public view virtual returns (address) {... */\n    tag_82:\n        /* \"@openzeppelin/contracts-upgradeable/access/OwnableUpgradeable.sol\":1348:1355  address */\n      0x00\n        /* \"@openzeppelin/contracts-upgradeable/access/OwnableUpgradeable.sol\":1374:1380  _owner */\n      0x33\n      0x00\n      swap1\n      sload\n      swap1\n      0x0100\n      exp\n      swap1\n      div\n      0xffffffffffffffffffffffffffffffffffffffff\n      and\n        /* \"@openzeppelin/contracts-upgradeable/access/OwnableUpgradeable.sol\":1367:1380  return _owner */\n      swap1\n      pop\n        /* \"@openzeppelin/contracts-upgradeable/access/OwnableUpgradeable.sol\":1302:1387  function owner() public view virtual returns (address) {... */\n      swap1\n      jump\t// out\n        /* \"@openzeppelin/contracts-upgradeable/token/ERC20/ERC20Upgradeable.sol\":2715:2817  function symbol() public view virtual override returns (string memory) {... */\n    tag_86:\n        /* \"@openzeppelin/contracts-upgradeable/token/ERC20/ERC20Upgradeable.sol\":2771:2784  string memory */\n      0x60\n        /* \"@openzeppelin/contracts-upgradeable/token/ERC20/ERC20Upgradeable.sol\":2803:2810  _symbol */\n      0x69\n        /* \"@openzeppelin/contracts-upgradeable/token/ERC20/ERC20Upgradeable.sol\":2796:2810  return _symbol */\n      dup1\n      sload\n      tag_170\n      swap1\n      tag_113\n      jump\t// in\n    tag_170:\n      dup1\n      0x1f\n      add\n      0x20\n      dup1\n      swap2\n      div\n      mul\n      0x20\n      add\n      mload(0x40)\n      swap1\n      dup2\n      add\n      0x40\n      mstore\n      dup1\n      swap3\n      swap2\n      swap1\n      dup2\n      dup2\n      mstore\n      0x20\n      add\n      dup3\n      dup1\n      sload\n      tag_171\n      swap1\n      tag_113\n      jump\t// in\n    tag_171:\n      dup1\n      iszero\n      tag_172\n      jumpi\n      dup1\n      0x1f\n      lt\n      tag_173\n      jumpi\n      0x0100\n      dup1\n      dup4\n      sload\n      div\n      mul\n      dup4\n      mstore\n      swap2\n      0x20\n      add\n      swap2\n      jump(tag_172)\n    tag_173:\n      dup3\n      add\n      swap2\n      swap1\n      0x00\n      mstore\n      keccak256(0x00, 0x20)\n      swap1\n    tag_174:\n      dup2\n      sload\n      dup2\n      mstore\n      swap1\n      0x01\n      add\n      swap1\n      0x20\n      add\n      dup1\n      dup4\n      gt\n      tag_174\n      jumpi\n      dup3\n      swap1\n      sub\n      0x1f\n      and\n      dup3\n      add\n      swap2\n    tag_172:\n      pop\n      pop\n      pop\n      pop\n      pop\n      swap1\n      pop\n        /* \"@openzeppelin/contracts-upgradeable/token/ERC20/ERC20Upgradeable.sol\":2715:2817  function symbol() public view virtual override returns (string memory) {... */\n      swap1\n      jump\t// out\n        /* \"contracts/FishToken.sol\":1717:2047  function _burnFrom(address account_, uint256 amount_) public virtual {... */\n    tag_90:\n        /* \"contracts/FishToken.sol\":1796:1823  uint256 decreasedAllowance_ */\n      0x00\n        /* \"contracts/FishToken.sol\":1826:1944  allowance(account_, msg.sender).sub(... */\n      tag_176\n        /* \"contracts/FishToken.sol\":1875:1882  amount_ */\n      dup3\n        /* \"contracts/FishToken.sol\":1826:1944  allowance(account_, msg.sender).sub(... */\n      mload(0x40)\n      dup1\n      0x60\n      add\n      0x40\n      mstore\n      dup1\n      0x24\n      dup2\n      mstore\n      0x20\n      add\n      data_a287c363786607a1457a2d9d12fa61c0073358e02d76b4035fc2c2d86a19c0db\n      0x24\n      swap2\n      codecopy\n        /* \"contracts/FishToken.sol\":1826:1857  allowance(account_, msg.sender) */\n      tag_177\n        /* \"contracts/FishToken.sol\":1836:1844  account_ */\n      dup7\n        /* \"contracts/FishToken.sol\":1846:1856  msg.sender */\n      caller\n        /* \"contracts/FishToken.sol\":1826:1835  allowance */\n      tag_102\n        /* \"contracts/FishToken.sol\":1826:1857  allowance(account_, msg.sender) */\n      jump\t// in\n    tag_177:\n        /* \"contracts/FishToken.sol\":1826:1861  allowance(account_, msg.sender).sub */\n      tag_178\n      swap1\n        /* \"contracts/FishToken.sol\":1826:1944  allowance(account_, msg.sender).sub(... */\n      swap3\n      swap2\n      swap1\n      0xffffffff\n      and\n      jump\t// in\n    tag_176:\n        /* \"contracts/FishToken.sol\":1796:1944  uint256 decreasedAllowance_ = allowance(account_, msg.sender).sub(... */\n      swap1\n      pop\n        /* \"contracts/FishToken.sol\":1955:2006  _approve(account_, msg.sender, decreasedAllowance_) */\n      tag_179\n        /* \"contracts/FishToken.sol\":1964:1972  account_ */\n      dup4\n        /* \"contracts/FishToken.sol\":1974:1984  msg.sender */\n      caller\n        /* \"contracts/FishToken.sol\":1986:2005  decreasedAllowance_ */\n      dup4\n        /* \"contracts/FishToken.sol\":1955:1963  _approve */\n      tag_122\n        /* \"contracts/FishToken.sol\":1955:2006  _approve(account_, msg.sender, decreasedAllowance_) */\n      jump\t// in\n    tag_179:\n        /* \"contracts/FishToken.sol\":2016:2040  _burn(account_, amount_) */\n      tag_180\n        /* \"contracts/FishToken.sol\":2022:2030  account_ */\n      dup4\n        /* \"contracts/FishToken.sol\":2032:2039  amount_ */\n      dup4\n        /* \"contracts/FishToken.sol\":2016:2021  _burn */\n      tag_156\n        /* \"contracts/FishToken.sol\":2016:2040  _burn(account_, amount_) */\n      jump\t// in\n    tag_180:\n        /* \"contracts/FishToken.sol\":1717:2047  function _burnFrom(address account_, uint256 amount_) public virtual {... */\n      pop\n      pop\n      pop\n      jump\t// out\n        /* \"@openzeppelin/contracts-upgradeable/token/ERC20/ERC20Upgradeable.sol\":6806:7211  function decreaseAllowance(address spender, uint256 subtractedValue) public virtual returns (bool) {... */\n    tag_93:\n        /* \"@openzeppelin/contracts-upgradeable/token/ERC20/ERC20Upgradeable.sol\":6899:6903  bool */\n      0x00\n        /* \"@openzeppelin/contracts-upgradeable/token/ERC20/ERC20Upgradeable.sol\":6915:6939  uint256 currentAllowance */\n      dup1\n        /* \"@openzeppelin/contracts-upgradeable/token/ERC20/ERC20Upgradeable.sol\":6942:6953  _allowances */\n      0x66\n        /* \"@openzeppelin/contracts-upgradeable/token/ERC20/ERC20Upgradeable.sol\":6942:6967  _allowances[_msgSender()] */\n      0x00\n        /* \"@openzeppelin/contracts-upgradeable/token/ERC20/ERC20Upgradeable.sol\":6954:6966  _msgSender() */\n      tag_182\n        /* \"@openzeppelin/contracts-upgradeable/token/ERC20/ERC20Upgradeable.sol\":6954:6964  _msgSender */\n      tag_121\n        /* \"@openzeppelin/contracts-upgradeable/token/ERC20/ERC20Upgradeable.sol\":6954:6966  _msgSender() */\n      jump\t// in\n    tag_182:\n        /* \"@openzeppelin/contracts-upgradeable/token/ERC20/ERC20Upgradeable.sol\":6942:6967  _allowances[_msgSender()] */\n      0xffffffffffffffffffffffffffffffffffffffff\n      and\n      0xffffffffffffffffffffffffffffffffffffffff\n      and\n      dup2\n      mstore\n      0x20\n      add\n      swap1\n      dup2\n      mstore\n      0x20\n      add\n      0x00\n      keccak256\n        /* \"@openzeppelin/contracts-upgradeable/token/ERC20/ERC20Upgradeable.sol\":6942:6976  _allowances[_msgSender()][spender] */\n      0x00\n        /* \"@openzeppelin/contracts-upgradeable/token/ERC20/ERC20Upgradeable.sol\":6968:6975  spender */\n      dup6\n        /* \"@openzeppelin/contracts-upgradeable/token/ERC20/ERC20Upgradeable.sol\":6942:6976  _allowances[_msgSender()][spender] */\n      0xffffffffffffffffffffffffffffffffffffffff\n      and\n      0xffffffffffffffffffffffffffffffffffffffff\n      and\n      dup2\n      mstore\n      0x20\n      add\n      swap1\n      dup2\n      mstore\n      0x20\n      add\n      0x00\n      keccak256\n      sload\n        /* \"@openzeppelin/contracts-upgradeable/token/ERC20/ERC20Upgradeable.sol\":6915:6976  uint256 currentAllowance = _allowances[_msgSender()][spender] */\n      swap1\n      pop\n        /* \"@openzeppelin/contracts-upgradeable/token/ERC20/ERC20Upgradeable.sol\":7014:7029  subtractedValue */\n      dup3\n        /* \"@openzeppelin/contracts-upgradeable/token/ERC20/ERC20Upgradeable.sol\":6994:7010  currentAllowance */\n      dup2\n        /* \"@openzeppelin/contracts-upgradeable/token/ERC20/ERC20Upgradeable.sol\":6994:7029  currentAllowance >= subtractedValue */\n      lt\n      iszero\n        /* \"@openzeppelin/contracts-upgradeable/token/ERC20/ERC20Upgradeable.sol\":6986:7071  require(currentAllowance >= subtractedValue, \"ERC20: decreased allowance below zero\") */\n      tag_183\n      jumpi\n      mload(0x40)\n      0x08c379a000000000000000000000000000000000000000000000000000000000\n      dup2\n      mstore\n      0x04\n      add\n      tag_184\n      swap1\n      tag_185\n      jump\t// in\n    tag_184:\n      mload(0x40)\n      dup1\n      swap2\n      sub\n      swap1\n      revert\n    tag_183:\n        /* \"@openzeppelin/contracts-upgradeable/token/ERC20/ERC20Upgradeable.sol\":7105:7172  _approve(_msgSender(), spender, currentAllowance - subtractedValue) */\n      tag_186\n        /* \"@openzeppelin/contracts-upgradeable/token/ERC20/ERC20Upgradeable.sol\":7114:7126  _msgSender() */\n      tag_187\n        /* \"@openzeppelin/contracts-upgradeable/token/ERC20/ERC20Upgradeable.sol\":7114:7124  _msgSender */\n      tag_121\n        /* \"@openzeppelin/contracts-upgradeable/token/ERC20/ERC20Upgradeable.sol\":7114:7126  _msgSender() */\n      jump\t// in\n    tag_187:\n        /* \"@openzeppelin/contracts-upgradeable/token/ERC20/ERC20Upgradeable.sol\":7128:7135  spender */\n      dup6\n        /* \"@openzeppelin/contracts-upgradeable/token/ERC20/ERC20Upgradeable.sol\":7156:7171  subtractedValue */\n      dup6\n        /* \"@openzeppelin/contracts-upgradeable/token/ERC20/ERC20Upgradeable.sol\":7137:7153  currentAllowance */\n      dup5\n        /* \"@openzeppelin/contracts-upgradeable/token/ERC20/ERC20Upgradeable.sol\":7137:7171  currentAllowance - subtractedValue */\n      sub\n        /* \"@openzeppelin/contracts-upgradeable/token/ERC20/ERC20Upgradeable.sol\":7105:7113  _approve */\n      tag_122\n        /* \"@openzeppelin/contracts-upgradeable/token/ERC20/ERC20Upgradeable.sol\":7105:7172  _approve(_msgSender(), spender, currentAllowance - subtractedValue) */\n      jump\t// in\n    tag_186:\n        /* \"@openzeppelin/contracts-upgradeable/token/ERC20/ERC20Upgradeable.sol\":7200:7204  true */\n      0x01\n        /* \"@openzeppelin/contracts-upgradeable/token/ERC20/ERC20Upgradeable.sol\":7193:7204  return true */\n      swap2\n      pop\n      pop\n        /* \"@openzeppelin/contracts-upgradeable/token/ERC20/ERC20Upgradeable.sol\":6806:7211  function decreaseAllowance(address spender, uint256 subtractedValue) public virtual returns (bool) {... */\n      swap3\n      swap2\n      pop\n      pop\n      jump\t// out\n        /* \"@openzeppelin/contracts-upgradeable/token/ERC20/ERC20Upgradeable.sol\":4084:4256  function transfer(address recipient, uint256 amount) public virtual override returns (bool) {... */\n    tag_97:\n        /* \"@openzeppelin/contracts-upgradeable/token/ERC20/ERC20Upgradeable.sol\":4170:4174  bool */\n      0x00\n        /* \"@openzeppelin/contracts-upgradeable/token/ERC20/ERC20Upgradeable.sol\":4186:4228  _transfer(_msgSender(), recipient, amount) */\n      tag_189\n        /* \"@openzeppelin/contracts-upgradeable/token/ERC20/ERC20Upgradeable.sol\":4196:4208  _msgSender() */\n      tag_190\n        /* \"@openzeppelin/contracts-upgradeable/token/ERC20/ERC20Upgradeable.sol\":4196:4206  _msgSender */\n      tag_121\n        /* \"@openzeppelin/contracts-upgradeable/token/ERC20/ERC20Upgradeable.sol\":4196:4208  _msgSender() */\n      jump\t// in\n    tag_190:\n        /* \"@openzeppelin/contracts-upgradeable/token/ERC20/ERC20Upgradeable.sol\":4210:4219  recipient */\n      dup5\n        /* \"@openzeppelin/contracts-upgradeable/token/ERC20/ERC20Upgradeable.sol\":4221:4227  amount */\n      dup5\n        /* \"@openzeppelin/contracts-upgradeable/token/ERC20/ERC20Upgradeable.sol\":4186:4195  _transfer */\n      tag_133\n        /* \"@openzeppelin/contracts-upgradeable/token/ERC20/ERC20Upgradeable.sol\":4186:4228  _transfer(_msgSender(), recipient, amount) */\n      jump\t// in\n    tag_189:\n        /* \"@openzeppelin/contracts-upgradeable/token/ERC20/ERC20Upgradeable.sol\":4245:4249  true */\n      0x01\n        /* \"@openzeppelin/contracts-upgradeable/token/ERC20/ERC20Upgradeable.sol\":4238:4249  return true */\n      swap1\n      pop\n        /* \"@openzeppelin/contracts-upgradeable/token/ERC20/ERC20Upgradeable.sol\":4084:4256  function transfer(address recipient, uint256 amount) public virtual override returns (bool) {... */\n      swap3\n      swap2\n      pop\n      pop\n      jump\t// out\n        /* \"@openzeppelin/contracts-upgradeable/token/ERC20/ERC20Upgradeable.sol\":4314:4463  function allowance(address owner, address spender) public view virtual override returns (uint256) {... */\n    tag_102:\n        /* \"@openzeppelin/contracts-upgradeable/token/ERC20/ERC20Upgradeable.sol\":4403:4410  uint256 */\n      0x00\n        /* \"@openzeppelin/contracts-upgradeable/token/ERC20/ERC20Upgradeable.sol\":4429:4440  _allowances */\n      0x66\n        /* \"@openzeppelin/contracts-upgradeable/token/ERC20/ERC20Upgradeable.sol\":4429:4447  _allowances[owner] */\n      0x00\n        /* \"@openzeppelin/contracts-upgradeable/token/ERC20/ERC20Upgradeable.sol\":4441:4446  owner */\n      dup5\n        /* \"@openzeppelin/contracts-upgradeable/token/ERC20/ERC20Upgradeable.sol\":4429:4447  _allowances[owner] */\n      0xffffffffffffffffffffffffffffffffffffffff\n      and\n      0xffffffffffffffffffffffffffffffffffffffff\n      and\n      dup2\n      mstore\n      0x20\n      add\n      swap1\n      dup2\n      mstore\n      0x20\n      add\n      0x00\n      keccak256\n        /* \"@openzeppelin/contracts-upgradeable/token/ERC20/ERC20Upgradeable.sol\":4429:4456  _allowances[owner][spender] */\n      0x00\n        /* \"@openzeppelin/contracts-upgradeable/token/ERC20/ERC20Upgradeable.sol\":4448:4455  spender */\n      dup4\n        /* \"@openzeppelin/contracts-upgradeable/token/ERC20/ERC20Upgradeable.sol\":4429:4456  _allowances[owner][spender] */\n      0xffffffffffffffffffffffffffffffffffffffff\n      and\n      0xffffffffffffffffffffffffffffffffffffffff\n      and\n      dup2\n      mstore\n      0x20\n      add\n      swap1\n      dup2\n      mstore\n      0x20\n      add\n      0x00\n      keccak256\n      sload\n        /* \"@openzeppelin/contracts-upgradeable/token/ERC20/ERC20Upgradeable.sol\":4422:4456  return _allowances[owner][spender] */\n      swap1\n      pop\n        /* \"@openzeppelin/contracts-upgradeable/token/ERC20/ERC20Upgradeable.sol\":4314:4463  function allowance(address owner, address spender) public view virtual override returns (uint256) {... */\n      swap3\n      swap2\n      pop\n      pop\n      jump\t// out\n        /* \"@openzeppelin/contracts-upgradeable/access/OwnableUpgradeable.sol\":2184:2382  function transferOwnership(address newOwner) public virtual onlyOwner {... */\n    tag_106:\n        /* \"@openzeppelin/contracts-upgradeable/access/OwnableUpgradeable.sol\":1525:1537  _msgSender() */\n      tag_193\n        /* \"@openzeppelin/contracts-upgradeable/access/OwnableUpgradeable.sol\":1525:1535  _msgSender */\n      tag_121\n        /* \"@openzeppelin/contracts-upgradeable/access/OwnableUpgradeable.sol\":1525:1537  _msgSender() */\n      jump\t// in\n    tag_193:\n        /* \"@openzeppelin/contracts-upgradeable/access/OwnableUpgradeable.sol\":1514:1537  owner() == _msgSender() */\n      0xffffffffffffffffffffffffffffffffffffffff\n      and\n        /* \"@openzeppelin/contracts-upgradeable/access/OwnableUpgradeable.sol\":1514:1521  owner() */\n      tag_194\n        /* \"@openzeppelin/contracts-upgradeable/access/OwnableUpgradeable.sol\":1514:1519  owner */\n      tag_82\n        /* \"@openzeppelin/contracts-upgradeable/access/OwnableUpgradeable.sol\":1514:1521  owner() */\n      jump\t// in\n    tag_194:\n        /* \"@openzeppelin/contracts-upgradeable/access/OwnableUpgradeable.sol\":1514:1537  owner() == _msgSender() */\n      0xffffffffffffffffffffffffffffffffffffffff\n      and\n      eq\n        /* \"@openzeppelin/contracts-upgradeable/access/OwnableUpgradeable.sol\":1506:1574  require(owner() == _msgSender(), \"Ownable: caller is not the owner\") */\n      tag_195\n      jumpi\n      mload(0x40)\n      0x08c379a000000000000000000000000000000000000000000000000000000000\n      dup2\n      mstore\n      0x04\n      add\n      tag_196\n      swap1\n      tag_129\n      jump\t// in\n    tag_196:\n      mload(0x40)\n      dup1\n      swap2\n      sub\n      swap1\n      revert\n    tag_195:\n        /* \"@openzeppelin/contracts-upgradeable/access/OwnableUpgradeable.sol\":2292:2293  0 */\n      0x00\n        /* \"@openzeppelin/contracts-upgradeable/access/OwnableUpgradeable.sol\":2272:2294  newOwner != address(0) */\n      0xffffffffffffffffffffffffffffffffffffffff\n      and\n        /* \"@openzeppelin/contracts-upgradeable/access/OwnableUpgradeable.sol\":2272:2280  newOwner */\n      dup2\n        /* \"@openzeppelin/contracts-upgradeable/access/OwnableUpgradeable.sol\":2272:2294  newOwner != address(0) */\n      0xffffffffffffffffffffffffffffffffffffffff\n      and\n      eq\n      iszero\n        /* \"@openzeppelin/contracts-upgradeable/access/OwnableUpgradeable.sol\":2264:2337  require(newOwner != address(0), \"Ownable: new owner is the zero address\") */\n      tag_198\n      jumpi\n      mload(0x40)\n      0x08c379a000000000000000000000000000000000000000000000000000000000\n      dup2\n      mstore\n      0x04\n      add\n      tag_199\n      swap1\n      tag_200\n      jump\t// in\n    tag_199:\n      mload(0x40)\n      dup1\n      swap2\n      sub\n      swap1\n      revert\n    tag_198:\n        /* \"@openzeppelin/contracts-upgradeable/access/OwnableUpgradeable.sol\":2347:2375  _transferOwnership(newOwner) */\n      tag_201\n        /* \"@openzeppelin/contracts-upgradeable/access/OwnableUpgradeable.sol\":2366:2374  newOwner */\n      dup2\n        /* \"@openzeppelin/contracts-upgradeable/access/OwnableUpgradeable.sol\":2347:2365  _transferOwnership */\n      tag_165\n        /* \"@openzeppelin/contracts-upgradeable/access/OwnableUpgradeable.sol\":2347:2375  _transferOwnership(newOwner) */\n      jump\t// in\n    tag_201:\n        /* \"@openzeppelin/contracts-upgradeable/access/OwnableUpgradeable.sol\":2184:2382  function transferOwnership(address newOwner) public virtual onlyOwner {... */\n      pop\n      jump\t// out\n        /* \"contracts/FishToken.sol\":744:1007  function initialize(... */\n    tag_110:\n        /* \"@openzeppelin/contracts-upgradeable/proxy/utils/Initializable.sol\":539:552  _initializing */\n      0x00\n      0x01\n      swap1\n      sload\n      swap1\n      0x0100\n      exp\n      swap1\n      div\n      0xff\n      and\n        /* \"@openzeppelin/contracts-upgradeable/proxy/utils/Initializable.sol\":539:569  _initializing || !_initialized */\n      dup1\n      tag_203\n      jumpi\n      pop\n        /* \"@openzeppelin/contracts-upgradeable/proxy/utils/Initializable.sol\":557:569  _initialized */\n      0x00\n      dup1\n      sload\n      swap1\n      0x0100\n      exp\n      swap1\n      div\n      0xff\n      and\n        /* \"@openzeppelin/contracts-upgradeable/proxy/utils/Initializable.sol\":556:569  !_initialized */\n      iszero\n        /* \"@openzeppelin/contracts-upgradeable/proxy/utils/Initializable.sol\":539:569  _initializing || !_initialized */\n    tag_203:\n        /* \"@openzeppelin/contracts-upgradeable/proxy/utils/Initializable.sol\":531:620  require(_initializing || !_initialized, \"Initializable: contract is already initialized\") */\n      tag_204\n      jumpi\n      mload(0x40)\n      0x08c379a000000000000000000000000000000000000000000000000000000000\n      dup2\n      mstore\n      0x04\n      add\n      tag_205\n      swap1\n      tag_206\n      jump\t// in\n    tag_205:\n      mload(0x40)\n      dup1\n      swap2\n      sub\n      swap1\n      revert\n    tag_204:\n        /* \"@openzeppelin/contracts-upgradeable/proxy/utils/Initializable.sol\":631:650  bool isTopLevelCall */\n      0x00\n        /* \"@openzeppelin/contracts-upgradeable/proxy/utils/Initializable.sol\":654:667  _initializing */\n      dup1\n      0x01\n      swap1\n      sload\n      swap1\n      0x0100\n      exp\n      swap1\n      div\n      0xff\n      and\n        /* \"@openzeppelin/contracts-upgradeable/proxy/utils/Initializable.sol\":653:667  !_initializing */\n      iszero\n        /* \"@openzeppelin/contracts-upgradeable/proxy/utils/Initializable.sol\":631:667  bool isTopLevelCall = !_initializing */\n      swap1\n      pop\n        /* \"@openzeppelin/contracts-upgradeable/proxy/utils/Initializable.sol\":681:695  isTopLevelCall */\n      dup1\n        /* \"@openzeppelin/contracts-upgradeable/proxy/utils/Initializable.sol\":677:775  if (isTopLevelCall) {... */\n      iszero\n      tag_207\n      jumpi\n        /* \"@openzeppelin/contracts-upgradeable/proxy/utils/Initializable.sol\":727:731  true */\n      0x01\n        /* \"@openzeppelin/contracts-upgradeable/proxy/utils/Initializable.sol\":711:724  _initializing */\n      0x00\n      0x01\n        /* \"@openzeppelin/contracts-upgradeable/proxy/utils/Initializable.sol\":711:731  _initializing = true */\n      0x0100\n      exp\n      dup2\n      sload\n      dup2\n      0xff\n      mul\n      not\n      and\n      swap1\n      dup4\n      iszero\n      iszero\n      mul\n      or\n      swap1\n      sstore\n      pop\n        /* \"@openzeppelin/contracts-upgradeable/proxy/utils/Initializable.sol\":760:764  true */\n      0x01\n        /* \"@openzeppelin/contracts-upgradeable/proxy/utils/Initializable.sol\":745:757  _initialized */\n      0x00\n      dup1\n        /* \"@openzeppelin/contracts-upgradeable/proxy/utils/Initializable.sol\":745:764  _initialized = true */\n      0x0100\n      exp\n      dup2\n      sload\n      dup2\n      0xff\n      mul\n      not\n      and\n      swap1\n      dup4\n      iszero\n      iszero\n      mul\n      or\n      swap1\n      sstore\n      pop\n        /* \"@openzeppelin/contracts-upgradeable/proxy/utils/Initializable.sol\":677:775  if (isTopLevelCall) {... */\n    tag_207:\n        /* \"contracts/FishToken.sol\":912:928  __Ownable_init() */\n      tag_209\n        /* \"contracts/FishToken.sol\":912:926  __Ownable_init */\n      tag_210\n        /* \"contracts/FishToken.sol\":912:928  __Ownable_init() */\n      jump\t// in\n    tag_209:\n        /* \"contracts/FishToken.sol\":938:966  __ERC20_init(_name, _symbol) */\n      tag_211\n        /* \"contracts/FishToken.sol\":951:956  _name */\n      dup6\n        /* \"contracts/FishToken.sol\":958:965  _symbol */\n      dup6\n        /* \"contracts/FishToken.sol\":938:950  __ERC20_init */\n      tag_212\n        /* \"contracts/FishToken.sol\":938:966  __ERC20_init(_name, _symbol) */\n      jump\t// in\n    tag_211:\n        /* \"contracts/FishToken.sol\":976:1000  _mint(_to, _totalSupply) */\n      tag_213\n        /* \"contracts/FishToken.sol\":982:985  _to */\n      dup4\n        /* \"contracts/FishToken.sol\":987:999  _totalSupply */\n      dup4\n        /* \"contracts/FishToken.sol\":976:981  _mint */\n      tag_153\n        /* \"contracts/FishToken.sol\":976:1000  _mint(_to, _totalSupply) */\n      jump\t// in\n    tag_213:\n        /* \"@openzeppelin/contracts-upgradeable/proxy/utils/Initializable.sol\":801:815  isTopLevelCall */\n      dup1\n        /* \"@openzeppelin/contracts-upgradeable/proxy/utils/Initializable.sol\":797:863  if (isTopLevelCall) {... */\n      iszero\n      tag_214\n      jumpi\n        /* \"@openzeppelin/contracts-upgradeable/proxy/utils/Initializable.sol\":847:852  false */\n      0x00\n        /* \"@openzeppelin/contracts-upgradeable/proxy/utils/Initializable.sol\":831:844  _initializing */\n      dup1\n      0x01\n        /* \"@openzeppelin/contracts-upgradeable/proxy/utils/Initializable.sol\":831:852  _initializing = false */\n      0x0100\n      exp\n      dup2\n      sload\n      dup2\n      0xff\n      mul\n      not\n      and\n      swap1\n      dup4\n      iszero\n      iszero\n      mul\n      or\n      swap1\n      sstore\n      pop\n        /* \"@openzeppelin/contracts-upgradeable/proxy/utils/Initializable.sol\":797:863  if (isTopLevelCall) {... */\n    tag_214:\n        /* \"contracts/FishToken.sol\":744:1007  function initialize(... */\n      pop\n      pop\n      pop\n      pop\n      pop\n      jump\t// out\n        /* \"@openzeppelin/contracts-upgradeable/utils/ContextUpgradeable.sol\":876:972  function _msgSender() internal view virtual returns (address) {... */\n    tag_121:\n        /* \"@openzeppelin/contracts-upgradeable/utils/ContextUpgradeable.sol\":929:936  address */\n      0x00\n        /* \"@openzeppelin/contracts-upgradeable/utils/ContextUpgradeable.sol\":955:965  msg.sender */\n      caller\n        /* \"@openzeppelin/contracts-upgradeable/utils/ContextUpgradeable.sol\":948:965  return msg.sender */\n      swap1\n      pop\n        /* \"@openzeppelin/contracts-upgradeable/utils/ContextUpgradeable.sol\":876:972  function _msgSender() internal view virtual returns (address) {... */\n      swap1\n      jump\t// out\n        /* \"@openzeppelin/contracts-upgradeable/token/ERC20/ERC20Upgradeable.sol\":10382:10752  function _approve(... */\n    tag_122:\n        /* \"@openzeppelin/contracts-upgradeable/token/ERC20/ERC20Upgradeable.sol\":10530:10531  0 */\n      0x00\n        /* \"@openzeppelin/contracts-upgradeable/token/ERC20/ERC20Upgradeable.sol\":10513:10532  owner != address(0) */\n      0xffffffffffffffffffffffffffffffffffffffff\n      and\n        /* \"@openzeppelin/contracts-upgradeable/token/ERC20/ERC20Upgradeable.sol\":10513:10518  owner */\n      dup4\n        /* \"@openzeppelin/contracts-upgradeable/token/ERC20/ERC20Upgradeable.sol\":10513:10532  owner != address(0) */\n      0xffffffffffffffffffffffffffffffffffffffff\n      and\n      eq\n      iszero\n        /* \"@openzeppelin/contracts-upgradeable/token/ERC20/ERC20Upgradeable.sol\":10505:10573  require(owner != address(0), \"ERC20: approve from the zero address\") */\n      tag_217\n      jumpi\n      mload(0x40)\n      0x08c379a000000000000000000000000000000000000000000000000000000000\n      dup2\n      mstore\n      0x04\n      add\n      tag_218\n      swap1\n      tag_219\n      jump\t// in\n    tag_218:\n      mload(0x40)\n      dup1\n      swap2\n      sub\n      swap1\n      revert\n    tag_217:\n        /* \"@openzeppelin/contracts-upgradeable/token/ERC20/ERC20Upgradeable.sol\":10610:10611  0 */\n      0x00\n        /* \"@openzeppelin/contracts-upgradeable/token/ERC20/ERC20Upgradeable.sol\":10591:10612  spender != address(0) */\n      0xffffffffffffffffffffffffffffffffffffffff\n      and\n        /* \"@openzeppelin/contracts-upgradeable/token/ERC20/ERC20Upgradeable.sol\":10591:10598  spender */\n      dup3\n        /* \"@openzeppelin/contracts-upgradeable/token/ERC20/ERC20Upgradeable.sol\":10591:10612  spender != address(0) */\n      0xffffffffffffffffffffffffffffffffffffffff\n      and\n      eq\n      iszero\n        /* \"@openzeppelin/contracts-upgradeable/token/ERC20/ERC20Upgradeable.sol\":10583:10651  require(spender != address(0), \"ERC20: approve to the zero address\") */\n      tag_220\n      jumpi\n      mload(0x40)\n      0x08c379a000000000000000000000000000000000000000000000000000000000\n      dup2\n      mstore\n      0x04\n      add\n      tag_221\n      swap1\n      tag_222\n      jump\t// in\n    tag_221:\n      mload(0x40)\n      dup1\n      swap2\n      sub\n      swap1\n      revert\n    tag_220:\n        /* \"@openzeppelin/contracts-upgradeable/token/ERC20/ERC20Upgradeable.sol\":10692:10698  amount */\n      dup1\n        /* \"@openzeppelin/contracts-upgradeable/token/ERC20/ERC20Upgradeable.sol\":10662:10673  _allowances */\n      0x66\n        /* \"@openzeppelin/contracts-upgradeable/token/ERC20/ERC20Upgradeable.sol\":10662:10680  _allowances[owner] */\n      0x00\n        /* \"@openzeppelin/contracts-upgradeable/token/ERC20/ERC20Upgradeable.sol\":10674:10679  owner */\n      dup6\n        /* \"@openzeppelin/contracts-upgradeable/token/ERC20/ERC20Upgradeable.sol\":10662:10680  _allowances[owner] */\n      0xffffffffffffffffffffffffffffffffffffffff\n      and\n      0xffffffffffffffffffffffffffffffffffffffff\n      and\n      dup2\n      mstore\n      0x20\n      add\n      swap1\n      dup2\n      mstore\n      0x20\n      add\n      0x00\n      keccak256\n        /* \"@openzeppelin/contracts-upgradeable/token/ERC20/ERC20Upgradeable.sol\":10662:10689  _allowances[owner][spender] */\n      0x00\n        /* \"@openzeppelin/contracts-upgradeable/token/ERC20/ERC20Upgradeable.sol\":10681:10688  spender */\n      dup5\n        /* \"@openzeppelin/contracts-upgradeable/token/ERC20/ERC20Upgradeable.sol\":10662:10689  _allowances[owner][spender] */\n      0xffffffffffffffffffffffffffffffffffffffff\n      and\n      0xffffffffffffffffffffffffffffffffffffffff\n      and\n      dup2\n      mstore\n      0x20\n      add\n      swap1\n      dup2\n      mstore\n      0x20\n      add\n      0x00\n      keccak256\n        /* \"@openzeppelin/contracts-upgradeable/token/ERC20/ERC20Upgradeable.sol\":10662:10698  _allowances[owner][spender] = amount */\n      dup2\n      swap1\n      sstore\n      pop\n        /* \"@openzeppelin/contracts-upgradeable/token/ERC20/ERC20Upgradeable.sol\":10729:10736  spender */\n      dup2\n        /* \"@openzeppelin/contracts-upgradeable/token/ERC20/ERC20Upgradeable.sol\":10713:10745  Approval(owner, spender, amount) */\n      0xffffffffffffffffffffffffffffffffffffffff\n      and\n        /* \"@openzeppelin/contracts-upgradeable/token/ERC20/ERC20Upgradeable.sol\":10722:10727  owner */\n      dup4\n        /* \"@openzeppelin/contracts-upgradeable/token/ERC20/ERC20Upgradeable.sol\":10713:10745  Approval(owner, spender, amount) */\n      0xffffffffffffffffffffffffffffffffffffffff\n      and\n      0x8c5be1e5ebec7d5bd14f71427d1e84f3dd0314c0f7b2291e5b200ac8c7c3b925\n        /* \"@openzeppelin/contracts-upgradeable/token/ERC20/ERC20Upgradeable.sol\":10738:10744  amount */\n      dup4\n        /* \"@openzeppelin/contracts-upgradeable/token/ERC20/ERC20Upgradeable.sol\":10713:10745  Approval(owner, spender, amount) */\n      mload(0x40)\n      tag_223\n      swap2\n      swap1\n      tag_40\n      jump\t// in\n    tag_223:\n      mload(0x40)\n      dup1\n      swap2\n      sub\n      swap1\n      log3\n        /* \"@openzeppelin/contracts-upgradeable/token/ERC20/ERC20Upgradeable.sol\":10382:10752  function _approve(... */\n      pop\n      pop\n      pop\n      jump\t// out\n        /* \"@openzeppelin/contracts-upgradeable/token/ERC20/ERC20Upgradeable.sol\":7685:8398  function _transfer(... */\n    tag_133:\n        /* \"@openzeppelin/contracts-upgradeable/token/ERC20/ERC20Upgradeable.sol\":7838:7839  0 */\n      0x00\n        /* \"@openzeppelin/contracts-upgradeable/token/ERC20/ERC20Upgradeable.sol\":7820:7840  sender != address(0) */\n      0xffffffffffffffffffffffffffffffffffffffff\n      and\n        /* \"@openzeppelin/contracts-upgradeable/token/ERC20/ERC20Upgradeable.sol\":7820:7826  sender */\n      dup4\n        /* \"@openzeppelin/contracts-upgradeable/token/ERC20/ERC20Upgradeable.sol\":7820:7840  sender != address(0) */\n      0xffffffffffffffffffffffffffffffffffffffff\n      and\n      eq\n      iszero\n        /* \"@openzeppelin/contracts-upgradeable/token/ERC20/ERC20Upgradeable.sol\":7812:7882  require(sender != address(0), \"ERC20: transfer from the zero address\") */\n      tag_225\n      jumpi\n      mload(0x40)\n      0x08c379a000000000000000000000000000000000000000000000000000000000\n      dup2\n      mstore\n      0x04\n      add\n      tag_226\n      swap1\n      tag_227\n      jump\t// in\n    tag_226:\n      mload(0x40)\n      dup1\n      swap2\n      sub\n      swap1\n      revert\n    tag_225:\n        /* \"@openzeppelin/contracts-upgradeable/token/ERC20/ERC20Upgradeable.sol\":7921:7922  0 */\n      0x00\n        /* \"@openzeppelin/contracts-upgradeable/token/ERC20/ERC20Upgradeable.sol\":7900:7923  recipient != address(0) */\n      0xffffffffffffffffffffffffffffffffffffffff\n      and\n        /* \"@openzeppelin/contracts-upgradeable/token/ERC20/ERC20Upgradeable.sol\":7900:7909  recipient */\n      dup3\n        /* \"@openzeppelin/contracts-upgradeable/token/ERC20/ERC20Upgradeable.sol\":7900:7923  recipient != address(0) */\n      0xffffffffffffffffffffffffffffffffffffffff\n      and\n      eq\n      iszero\n        /* \"@openzeppelin/contracts-upgradeable/token/ERC20/ERC20Upgradeable.sol\":7892:7963  require(recipient != address(0), \"ERC20: transfer to the zero address\") */\n      tag_228\n      jumpi\n      mload(0x40)\n      0x08c379a000000000000000000000000000000000000000000000000000000000\n      dup2\n      mstore\n      0x04\n      add\n      tag_229\n      swap1\n      tag_230\n      jump\t// in\n    tag_229:\n      mload(0x40)\n      dup1\n      swap2\n      sub\n      swap1\n      revert\n    tag_228:\n        /* \"@openzeppelin/contracts-upgradeable/token/ERC20/ERC20Upgradeable.sol\":7974:8021  _beforeTokenTransfer(sender, recipient, amount) */\n      tag_231\n        /* \"@openzeppelin/contracts-upgradeable/token/ERC20/ERC20Upgradeable.sol\":7995:8001  sender */\n      dup4\n        /* \"@openzeppelin/contracts-upgradeable/token/ERC20/ERC20Upgradeable.sol\":8003:8012  recipient */\n      dup4\n        /* \"@openzeppelin/contracts-upgradeable/token/ERC20/ERC20Upgradeable.sol\":8014:8020  amount */\n      dup4\n        /* \"@openzeppelin/contracts-upgradeable/token/ERC20/ERC20Upgradeable.sol\":7974:7994  _beforeTokenTransfer */\n      tag_232\n        /* \"@openzeppelin/contracts-upgradeable/token/ERC20/ERC20Upgradeable.sol\":7974:8021  _beforeTokenTransfer(sender, recipient, amount) */\n      jump\t// in\n    tag_231:\n        /* \"@openzeppelin/contracts-upgradeable/token/ERC20/ERC20Upgradeable.sol\":8032:8053  uint256 senderBalance */\n      0x00\n        /* \"@openzeppelin/contracts-upgradeable/token/ERC20/ERC20Upgradeable.sol\":8056:8065  _balances */\n      0x65\n        /* \"@openzeppelin/contracts-upgradeable/token/ERC20/ERC20Upgradeable.sol\":8056:8073  _balances[sender] */\n      0x00\n        /* \"@openzeppelin/contracts-upgradeable/token/ERC20/ERC20Upgradeable.sol\":8066:8072  sender */\n      dup6\n        /* \"@openzeppelin/contracts-upgradeable/token/ERC20/ERC20Upgradeable.sol\":8056:8073  _balances[sender] */\n      0xffffffffffffffffffffffffffffffffffffffff\n      and\n      0xffffffffffffffffffffffffffffffffffffffff\n      and\n      dup2\n      mstore\n      0x20\n      add\n      swap1\n      dup2\n      mstore\n      0x20\n      add\n      0x00\n      keccak256\n      sload\n        /* \"@openzeppelin/contracts-upgradeable/token/ERC20/ERC20Upgradeable.sol\":8032:8073  uint256 senderBalance = _balances[sender] */\n      swap1\n      pop\n        /* \"@openzeppelin/contracts-upgradeable/token/ERC20/ERC20Upgradeable.sol\":8108:8114  amount */\n      dup2\n        /* \"@openzeppelin/contracts-upgradeable/token/ERC20/ERC20Upgradeable.sol\":8091:8104  senderBalance */\n      dup2\n        /* \"@openzeppelin/contracts-upgradeable/token/ERC20/ERC20Upgradeable.sol\":8091:8114  senderBalance >= amount */\n      lt\n      iszero\n        /* \"@openzeppelin/contracts-upgradeable/token/ERC20/ERC20Upgradeable.sol\":8083:8157  require(senderBalance >= amount, \"ERC20: transfer amount exceeds balance\") */\n      tag_233\n      jumpi\n      mload(0x40)\n      0x08c379a000000000000000000000000000000000000000000000000000000000\n      dup2\n      mstore\n      0x04\n      add\n      tag_234\n      swap1\n      tag_235\n      jump\t// in\n    tag_234:\n      mload(0x40)\n      dup1\n      swap2\n      sub\n      swap1\n      revert\n    tag_233:\n        /* \"@openzeppelin/contracts-upgradeable/token/ERC20/ERC20Upgradeable.sol\":8227:8233  amount */\n      dup2\n        /* \"@openzeppelin/contracts-upgradeable/token/ERC20/ERC20Upgradeable.sol\":8211:8224  senderBalance */\n      dup2\n        /* \"@openzeppelin/contracts-upgradeable/token/ERC20/ERC20Upgradeable.sol\":8211:8233  senderBalance - amount */\n      sub\n        /* \"@openzeppelin/contracts-upgradeable/token/ERC20/ERC20Upgradeable.sol\":8191:8200  _balances */\n      0x65\n        /* \"@openzeppelin/contracts-upgradeable/token/ERC20/ERC20Upgradeable.sol\":8191:8208  _balances[sender] */\n      0x00\n        /* \"@openzeppelin/contracts-upgradeable/token/ERC20/ERC20Upgradeable.sol\":8201:8207  sender */\n      dup7\n        /* \"@openzeppelin/contracts-upgradeable/token/ERC20/ERC20Upgradeable.sol\":8191:8208  _balances[sender] */\n      0xffffffffffffffffffffffffffffffffffffffff\n      and\n      0xffffffffffffffffffffffffffffffffffffffff\n      and\n      dup2\n      mstore\n      0x20\n      add\n      swap1\n      dup2\n      mstore\n      0x20\n      add\n      0x00\n      keccak256\n        /* \"@openzeppelin/contracts-upgradeable/token/ERC20/ERC20Upgradeable.sol\":8191:8233  _balances[sender] = senderBalance - amount */\n      dup2\n      swap1\n      sstore\n      pop\n        /* \"@openzeppelin/contracts-upgradeable/token/ERC20/ERC20Upgradeable.sol\":8277:8283  amount */\n      dup2\n        /* \"@openzeppelin/contracts-upgradeable/token/ERC20/ERC20Upgradeable.sol\":8253:8262  _balances */\n      0x65\n        /* \"@openzeppelin/contracts-upgradeable/token/ERC20/ERC20Upgradeable.sol\":8253:8273  _balances[recipient] */\n      0x00\n        /* \"@openzeppelin/contracts-upgradeable/token/ERC20/ERC20Upgradeable.sol\":8263:8272  recipient */\n      dup6\n        /* \"@openzeppelin/contracts-upgradeable/token/ERC20/ERC20Upgradeable.sol\":8253:8273  _balances[recipient] */\n      0xffffffffffffffffffffffffffffffffffffffff\n      and\n      0xffffffffffffffffffffffffffffffffffffffff\n      and\n      dup2\n      mstore\n      0x20\n      add\n      swap1\n      dup2\n      mstore\n      0x20\n      add\n      0x00\n      keccak256\n      0x00\n        /* \"@openzeppelin/contracts-upgradeable/token/ERC20/ERC20Upgradeable.sol\":8253:8283  _balances[recipient] += amount */\n      dup3\n      dup3\n      sload\n      tag_236\n      swap2\n      swap1\n      tag_146\n      jump\t// in\n    tag_236:\n      swap3\n      pop\n      pop\n      dup2\n      swap1\n      sstore\n      pop\n        /* \"@openzeppelin/contracts-upgradeable/token/ERC20/ERC20Upgradeable.sol\":8316:8325  recipient */\n      dup3\n        /* \"@openzeppelin/contracts-upgradeable/token/ERC20/ERC20Upgradeable.sol\":8299:8334  Transfer(sender, recipient, amount) */\n      0xffffffffffffffffffffffffffffffffffffffff\n      and\n        /* \"@openzeppelin/contracts-upgradeable/token/ERC20/ERC20Upgradeable.sol\":8308:8314  sender */\n      dup5\n        /* \"@openzeppelin/contracts-upgradeable/token/ERC20/ERC20Upgradeable.sol\":8299:8334  Transfer(sender, recipient, amount) */\n      0xffffffffffffffffffffffffffffffffffffffff\n      and\n      0xddf252ad1be2c89b69c2b068fc378daa952ba7f163c4a11628f55a4df523b3ef\n        /* \"@openzeppelin/contracts-upgradeable/token/ERC20/ERC20Upgradeable.sol\":8327:8333  amount */\n      dup5\n        /* \"@openzeppelin/contracts-upgradeable/token/ERC20/ERC20Upgradeable.sol\":8299:8334  Transfer(sender, recipient, amount) */\n      mload(0x40)\n      tag_237\n      swap2\n      swap1\n      tag_40\n      jump\t// in\n    tag_237:\n      mload(0x40)\n      dup1\n      swap2\n      sub\n      swap1\n      log3\n        /* \"@openzeppelin/contracts-upgradeable/token/ERC20/ERC20Upgradeable.sol\":8345:8391  _afterTokenTransfer(sender, recipient, amount) */\n      tag_238\n        /* \"@openzeppelin/contracts-upgradeable/token/ERC20/ERC20Upgradeable.sol\":8365:8371  sender */\n      dup5\n        /* \"@openzeppelin/contracts-upgradeable/token/ERC20/ERC20Upgradeable.sol\":8373:8382  recipient */\n      dup5\n        /* \"@openzeppelin/contracts-upgradeable/token/ERC20/ERC20Upgradeable.sol\":8384:8390  amount */\n      dup5\n        /* \"@openzeppelin/contracts-upgradeable/token/ERC20/ERC20Upgradeable.sol\":8345:8364  _afterTokenTransfer */\n      tag_239\n        /* \"@openzeppelin/contracts-upgradeable/token/ERC20/ERC20Upgradeable.sol\":8345:8391  _afterTokenTransfer(sender, recipient, amount) */\n      jump\t// in\n    tag_238:\n        /* \"@openzeppelin/contracts-upgradeable/token/ERC20/ERC20Upgradeable.sol\":7685:8398  function _transfer(... */\n      pop\n      pop\n      pop\n      pop\n      jump\t// out\n        /* \"@openzeppelin/contracts-upgradeable/token/ERC20/ERC20Upgradeable.sol\":8674:9063  function _mint(address account, uint256 amount) internal virtual {... */\n    tag_153:\n        /* \"@openzeppelin/contracts-upgradeable/token/ERC20/ERC20Upgradeable.sol\":8776:8777  0 */\n      0x00\n        /* \"@openzeppelin/contracts-upgradeable/token/ERC20/ERC20Upgradeable.sol\":8757:8778  account != address(0) */\n      0xffffffffffffffffffffffffffffffffffffffff\n      and\n        /* \"@openzeppelin/contracts-upgradeable/token/ERC20/ERC20Upgradeable.sol\":8757:8764  account */\n      dup3\n        /* \"@openzeppelin/contracts-upgradeable/token/ERC20/ERC20Upgradeable.sol\":8757:8778  account != address(0) */\n      0xffffffffffffffffffffffffffffffffffffffff\n      and\n      eq\n      iszero\n        /* \"@openzeppelin/contracts-upgradeable/token/ERC20/ERC20Upgradeable.sol\":8749:8814  require(account != address(0), \"ERC20: mint to the zero address\") */\n      tag_241\n      jumpi\n      mload(0x40)\n      0x08c379a000000000000000000000000000000000000000000000000000000000\n      dup2\n      mstore\n      0x04\n      add\n      tag_242\n      swap1\n      tag_243\n      jump\t// in\n    tag_242:\n      mload(0x40)\n      dup1\n      swap2\n      sub\n      swap1\n      revert\n    tag_241:\n        /* \"@openzeppelin/contracts-upgradeable/token/ERC20/ERC20Upgradeable.sol\":8825:8874  _beforeTokenTransfer(address(0), account, amount) */\n      tag_244\n        /* \"@openzeppelin/contracts-upgradeable/token/ERC20/ERC20Upgradeable.sol\":8854:8855  0 */\n      0x00\n        /* \"@openzeppelin/contracts-upgradeable/token/ERC20/ERC20Upgradeable.sol\":8858:8865  account */\n      dup4\n        /* \"@openzeppelin/contracts-upgradeable/token/ERC20/ERC20Upgradeable.sol\":8867:8873  amount */\n      dup4\n        /* \"@openzeppelin/contracts-upgradeable/token/ERC20/ERC20Upgradeable.sol\":8825:8845  _beforeTokenTransfer */\n      tag_232\n        /* \"@openzeppelin/contracts-upgradeable/token/ERC20/ERC20Upgradeable.sol\":8825:8874  _beforeTokenTransfer(address(0), account, amount) */\n      jump\t// in\n    tag_244:\n        /* \"@openzeppelin/contracts-upgradeable/token/ERC20/ERC20Upgradeable.sol\":8901:8907  amount */\n      dup1\n        /* \"@openzeppelin/contracts-upgradeable/token/ERC20/ERC20Upgradeable.sol\":8885:8897  _totalSupply */\n      0x67\n      0x00\n        /* \"@openzeppelin/contracts-upgradeable/token/ERC20/ERC20Upgradeable.sol\":8885:8907  _totalSupply += amount */\n      dup3\n      dup3\n      sload\n      tag_245\n      swap2\n      swap1\n      tag_146\n      jump\t// in\n    tag_245:\n      swap3\n      pop\n      pop\n      dup2\n      swap1\n      sstore\n      pop\n        /* \"@openzeppelin/contracts-upgradeable/token/ERC20/ERC20Upgradeable.sol\":8939:8945  amount */\n      dup1\n        /* \"@openzeppelin/contracts-upgradeable/token/ERC20/ERC20Upgradeable.sol\":8917:8926  _balances */\n      0x65\n        /* \"@openzeppelin/contracts-upgradeable/token/ERC20/ERC20Upgradeable.sol\":8917:8935  _balances[account] */\n      0x00\n        /* \"@openzeppelin/contracts-upgradeable/token/ERC20/ERC20Upgradeable.sol\":8927:8934  account */\n      dup5\n        /* \"@openzeppelin/contracts-upgradeable/token/ERC20/ERC20Upgradeable.sol\":8917:8935  _balances[account] */\n      0xffffffffffffffffffffffffffffffffffffffff\n      and\n      0xffffffffffffffffffffffffffffffffffffffff\n      and\n      dup2\n      mstore\n      0x20\n      add\n      swap1\n      dup2\n      mstore\n      0x20\n      add\n      0x00\n      keccak256\n      0x00\n        /* \"@openzeppelin/contracts-upgradeable/token/ERC20/ERC20Upgradeable.sol\":8917:8945  _balances[account] += amount */\n      dup3\n      dup3\n      sload\n      tag_246\n      swap2\n      swap1\n      tag_146\n      jump\t// in\n    tag_246:\n      swap3\n      pop\n      pop\n      dup2\n      swap1\n      sstore\n      pop\n        /* \"@openzeppelin/contracts-upgradeable/token/ERC20/ERC20Upgradeable.sol\":8981:8988  account */\n      dup2\n        /* \"@openzeppelin/contracts-upgradeable/token/ERC20/ERC20Upgradeable.sol\":8960:8997  Transfer(address(0), account, amount) */\n      0xffffffffffffffffffffffffffffffffffffffff\n      and\n        /* \"@openzeppelin/contracts-upgradeable/token/ERC20/ERC20Upgradeable.sol\":8977:8978  0 */\n      0x00\n        /* \"@openzeppelin/contracts-upgradeable/token/ERC20/ERC20Upgradeable.sol\":8960:8997  Transfer(address(0), account, amount) */\n      0xffffffffffffffffffffffffffffffffffffffff\n      and\n      0xddf252ad1be2c89b69c2b068fc378daa952ba7f163c4a11628f55a4df523b3ef\n        /* \"@openzeppelin/contracts-upgradeable/token/ERC20/ERC20Upgradeable.sol\":8990:8996  amount */\n      dup4\n        /* \"@openzeppelin/contracts-upgradeable/token/ERC20/ERC20Upgradeable.sol\":8960:8997  Transfer(address(0), account, amount) */\n      mload(0x40)\n      tag_247\n      swap2\n      swap1\n      tag_40\n      jump\t// in\n    tag_247:\n      mload(0x40)\n      dup1\n      swap2\n      sub\n      swap1\n      log3\n        /* \"@openzeppelin/contracts-upgradeable/token/ERC20/ERC20Upgradeable.sol\":9008:9056  _afterTokenTransfer(address(0), account, amount) */\n      tag_248\n        /* \"@openzeppelin/contracts-upgradeable/token/ERC20/ERC20Upgradeable.sol\":9036:9037  0 */\n      0x00\n        /* \"@openzeppelin/contracts-upgradeable/token/ERC20/ERC20Upgradeable.sol\":9040:9047  account */\n      dup4\n        /* \"@openzeppelin/contracts-upgradeable/token/ERC20/ERC20Upgradeable.sol\":9049:9055  amount */\n      dup4\n        /* \"@openzeppelin/contracts-upgradeable/token/ERC20/ERC20Upgradeable.sol\":9008:9027  _afterTokenTransfer */\n      tag_239\n        /* \"@openzeppelin/contracts-upgradeable/token/ERC20/ERC20Upgradeable.sol\":9008:9056  _afterTokenTransfer(address(0), account, amount) */\n      jump\t// in\n    tag_248:\n        /* \"@openzeppelin/contracts-upgradeable/token/ERC20/ERC20Upgradeable.sol\":8674:9063  function _mint(address account, uint256 amount) internal virtual {... */\n      pop\n      pop\n      jump\t// out\n        /* \"@openzeppelin/contracts-upgradeable/token/ERC20/ERC20Upgradeable.sol\":9383:9959  function _burn(address account, uint256 amount) internal virtual {... */\n    tag_156:\n        /* \"@openzeppelin/contracts-upgradeable/token/ERC20/ERC20Upgradeable.sol\":9485:9486  0 */\n      0x00\n        /* \"@openzeppelin/contracts-upgradeable/token/ERC20/ERC20Upgradeable.sol\":9466:9487  account != address(0) */\n      0xffffffffffffffffffffffffffffffffffffffff\n      and\n        /* \"@openzeppelin/contracts-upgradeable/token/ERC20/ERC20Upgradeable.sol\":9466:9473  account */\n      dup3\n        /* \"@openzeppelin/contracts-upgradeable/token/ERC20/ERC20Upgradeable.sol\":9466:9487  account != address(0) */\n      0xffffffffffffffffffffffffffffffffffffffff\n      and\n      eq\n      iszero\n        /* \"@openzeppelin/contracts-upgradeable/token/ERC20/ERC20Upgradeable.sol\":9458:9525  require(account != address(0), \"ERC20: burn from the zero address\") */\n      tag_250\n      jumpi\n      mload(0x40)\n      0x08c379a000000000000000000000000000000000000000000000000000000000\n      dup2\n      mstore\n      0x04\n      add\n      tag_251\n      swap1\n      tag_252\n      jump\t// in\n    tag_251:\n      mload(0x40)\n      dup1\n      swap2\n      sub\n      swap1\n      revert\n    tag_250:\n        /* \"@openzeppelin/contracts-upgradeable/token/ERC20/ERC20Upgradeable.sol\":9536:9585  _beforeTokenTransfer(account, address(0), amount) */\n      tag_253\n        /* \"@openzeppelin/contracts-upgradeable/token/ERC20/ERC20Upgradeable.sol\":9557:9564  account */\n      dup3\n        /* \"@openzeppelin/contracts-upgradeable/token/ERC20/ERC20Upgradeable.sol\":9574:9575  0 */\n      0x00\n        /* \"@openzeppelin/contracts-upgradeable/token/ERC20/ERC20Upgradeable.sol\":9578:9584  amount */\n      dup4\n        /* \"@openzeppelin/contracts-upgradeable/token/ERC20/ERC20Upgradeable.sol\":9536:9556  _beforeTokenTransfer */\n      tag_232\n        /* \"@openzeppelin/contracts-upgradeable/token/ERC20/ERC20Upgradeable.sol\":9536:9585  _beforeTokenTransfer(account, address(0), amount) */\n      jump\t// in\n    tag_253:\n        /* \"@openzeppelin/contracts-upgradeable/token/ERC20/ERC20Upgradeable.sol\":9596:9618  uint256 accountBalance */\n      0x00\n        /* \"@openzeppelin/contracts-upgradeable/token/ERC20/ERC20Upgradeable.sol\":9621:9630  _balances */\n      0x65\n        /* \"@openzeppelin/contracts-upgradeable/token/ERC20/ERC20Upgradeable.sol\":9621:9639  _balances[account] */\n      0x00\n        /* \"@openzeppelin/contracts-upgradeable/token/ERC20/ERC20Upgradeable.sol\":9631:9638  account */\n      dup5\n        /* \"@openzeppelin/contracts-upgradeable/token/ERC20/ERC20Upgradeable.sol\":9621:9639  _balances[account] */\n      0xffffffffffffffffffffffffffffffffffffffff\n      and\n      0xffffffffffffffffffffffffffffffffffffffff\n      and\n      dup2\n      mstore\n      0x20\n      add\n      swap1\n      dup2\n      mstore\n      0x20\n      add\n      0x00\n      keccak256\n      sload\n        /* \"@openzeppelin/contracts-upgradeable/token/ERC20/ERC20Upgradeable.sol\":9596:9639  uint256 accountBalance = _balances[account] */\n      swap1\n      pop\n        /* \"@openzeppelin/contracts-upgradeable/token/ERC20/ERC20Upgradeable.sol\":9675:9681  amount */\n      dup2\n        /* \"@openzeppelin/contracts-upgradeable/token/ERC20/ERC20Upgradeable.sol\":9657:9671  accountBalance */\n      dup2\n        /* \"@openzeppelin/contracts-upgradeable/token/ERC20/ERC20Upgradeable.sol\":9657:9681  accountBalance >= amount */\n      lt\n      iszero\n        /* \"@openzeppelin/contracts-upgradeable/token/ERC20/ERC20Upgradeable.sol\":9649:9720  require(accountBalance >= amount, \"ERC20: burn amount exceeds balance\") */\n      tag_254\n      jumpi\n      mload(0x40)\n      0x08c379a000000000000000000000000000000000000000000000000000000000\n      dup2\n      mstore\n      0x04\n      add\n      tag_255\n      swap1\n      tag_256\n      jump\t// in\n    tag_255:\n      mload(0x40)\n      dup1\n      swap2\n      sub\n      swap1\n      revert\n    tag_254:\n        /* \"@openzeppelin/contracts-upgradeable/token/ERC20/ERC20Upgradeable.sol\":9792:9798  amount */\n      dup2\n        /* \"@openzeppelin/contracts-upgradeable/token/ERC20/ERC20Upgradeable.sol\":9775:9789  accountBalance */\n      dup2\n        /* \"@openzeppelin/contracts-upgradeable/token/ERC20/ERC20Upgradeable.sol\":9775:9798  accountBalance - amount */\n      sub\n        /* \"@openzeppelin/contracts-upgradeable/token/ERC20/ERC20Upgradeable.sol\":9754:9763  _balances */\n      0x65\n        /* \"@openzeppelin/contracts-upgradeable/token/ERC20/ERC20Upgradeable.sol\":9754:9772  _balances[account] */\n      0x00\n        /* \"@openzeppelin/contracts-upgradeable/token/ERC20/ERC20Upgradeable.sol\":9764:9771  account */\n      dup6\n        /* \"@openzeppelin/contracts-upgradeable/token/ERC20/ERC20Upgradeable.sol\":9754:9772  _balances[account] */\n      0xffffffffffffffffffffffffffffffffffffffff\n      and\n      0xffffffffffffffffffffffffffffffffffffffff\n      and\n      dup2\n      mstore\n      0x20\n      add\n      swap1\n      dup2\n      mstore\n      0x20\n      add\n      0x00\n      keccak256\n        /* \"@openzeppelin/contracts-upgradeable/token/ERC20/ERC20Upgradeable.sol\":9754:9798  _balances[account] = accountBalance - amount */\n      dup2\n      swap1\n      sstore\n      pop\n        /* \"@openzeppelin/contracts-upgradeable/token/ERC20/ERC20Upgradeable.sol\":9834:9840  amount */\n      dup2\n        /* \"@openzeppelin/contracts-upgradeable/token/ERC20/ERC20Upgradeable.sol\":9818:9830  _totalSupply */\n      0x67\n      0x00\n        /* \"@openzeppelin/contracts-upgradeable/token/ERC20/ERC20Upgradeable.sol\":9818:9840  _totalSupply -= amount */\n      dup3\n      dup3\n      sload\n      tag_257\n      swap2\n      swap1\n      tag_258\n      jump\t// in\n    tag_257:\n      swap3\n      pop\n      pop\n      dup2\n      swap1\n      sstore\n      pop\n        /* \"@openzeppelin/contracts-upgradeable/token/ERC20/ERC20Upgradeable.sol\":9882:9883  0 */\n      0x00\n        /* \"@openzeppelin/contracts-upgradeable/token/ERC20/ERC20Upgradeable.sol\":9856:9893  Transfer(account, address(0), amount) */\n      0xffffffffffffffffffffffffffffffffffffffff\n      and\n        /* \"@openzeppelin/contracts-upgradeable/token/ERC20/ERC20Upgradeable.sol\":9865:9872  account */\n      dup4\n        /* \"@openzeppelin/contracts-upgradeable/token/ERC20/ERC20Upgradeable.sol\":9856:9893  Transfer(account, address(0), amount) */\n      0xffffffffffffffffffffffffffffffffffffffff\n      and\n      0xddf252ad1be2c89b69c2b068fc378daa952ba7f163c4a11628f55a4df523b3ef\n        /* \"@openzeppelin/contracts-upgradeable/token/ERC20/ERC20Upgradeable.sol\":9886:9892  amount */\n      dup5\n        /* \"@openzeppelin/contracts-upgradeable/token/ERC20/ERC20Upgradeable.sol\":9856:9893  Transfer(account, address(0), amount) */\n      mload(0x40)\n      tag_259\n      swap2\n      swap1\n      tag_40\n      jump\t// in\n    tag_259:\n      mload(0x40)\n      dup1\n      swap2\n      sub\n      swap1\n      log3\n        /* \"@openzeppelin/contracts-upgradeable/token/ERC20/ERC20Upgradeable.sol\":9904:9952  _afterTokenTransfer(account, address(0), amount) */\n      tag_260\n        /* \"@openzeppelin/contracts-upgradeable/token/ERC20/ERC20Upgradeable.sol\":9924:9931  account */\n      dup4\n        /* \"@openzeppelin/contracts-upgradeable/token/ERC20/ERC20Upgradeable.sol\":9941:9942  0 */\n      0x00\n        /* \"@openzeppelin/contracts-upgradeable/token/ERC20/ERC20Upgradeable.sol\":9945:9951  amount */\n      dup5\n        /* \"@openzeppelin/contracts-upgradeable/token/ERC20/ERC20Upgradeable.sol\":9904:9923  _afterTokenTransfer */\n      tag_239\n        /* \"@openzeppelin/contracts-upgradeable/token/ERC20/ERC20Upgradeable.sol\":9904:9952  _afterTokenTransfer(account, address(0), amount) */\n      jump\t// in\n    tag_260:\n        /* \"@openzeppelin/contracts-upgradeable/token/ERC20/ERC20Upgradeable.sol\":9383:9959  function _burn(address account, uint256 amount) internal virtual {... */\n      pop\n      pop\n      pop\n      jump\t// out\n        /* \"@openzeppelin/contracts-upgradeable/access/OwnableUpgradeable.sol\":2536:2723  function _transferOwnership(address newOwner) internal virtual {... */\n    tag_165:\n        /* \"@openzeppelin/contracts-upgradeable/access/OwnableUpgradeable.sol\":2609:2625  address oldOwner */\n      0x00\n        /* \"@openzeppelin/contracts-upgradeable/access/OwnableUpgradeable.sol\":2628:2634  _owner */\n      0x33\n      0x00\n      swap1\n      sload\n      swap1\n      0x0100\n      exp\n      swap1\n      div\n      0xffffffffffffffffffffffffffffffffffffffff\n      and\n        /* \"@openzeppelin/contracts-upgradeable/access/OwnableUpgradeable.sol\":2609:2634  address oldOwner = _owner */\n      swap1\n      pop\n        /* \"@openzeppelin/contracts-upgradeable/access/OwnableUpgradeable.sol\":2653:2661  newOwner */\n      dup2\n        /* \"@openzeppelin/contracts-upgradeable/access/OwnableUpgradeable.sol\":2644:2650  _owner */\n      0x33\n      0x00\n        /* \"@openzeppelin/contracts-upgradeable/access/OwnableUpgradeable.sol\":2644:2661  _owner = newOwner */\n      0x0100\n      exp\n      dup2\n      sload\n      dup2\n      0xffffffffffffffffffffffffffffffffffffffff\n      mul\n      not\n      and\n      swap1\n      dup4\n      0xffffffffffffffffffffffffffffffffffffffff\n      and\n      mul\n      or\n      swap1\n      sstore\n      pop\n        /* \"@openzeppelin/contracts-upgradeable/access/OwnableUpgradeable.sol\":2707:2715  newOwner */\n      dup2\n        /* \"@openzeppelin/contracts-upgradeable/access/OwnableUpgradeable.sol\":2676:2716  OwnershipTransferred(oldOwner, newOwner) */\n      0xffffffffffffffffffffffffffffffffffffffff\n      and\n        /* \"@openzeppelin/contracts-upgradeable/access/OwnableUpgradeable.sol\":2697:2705  oldOwner */\n      dup2\n        /* \"@openzeppelin/contracts-upgradeable/access/OwnableUpgradeable.sol\":2676:2716  OwnershipTransferred(oldOwner, newOwner) */\n      0xffffffffffffffffffffffffffffffffffffffff\n      and\n      0x8be0079c531659141344cd1fd0a4f28419497f9722a3daafe3b4186f6b6457e0\n      mload(0x40)\n      mload(0x40)\n      dup1\n      swap2\n      sub\n      swap1\n      log3\n        /* \"@openzeppelin/contracts-upgradeable/access/OwnableUpgradeable.sol\":2536:2723  function _transferOwnership(address newOwner) internal virtual {... */\n      pop\n      pop\n      jump\t// out\n        /* \"@openzeppelin/contracts/utils/math/SafeMath.sol\":4945:5176  function sub(... */\n    tag_178:\n        /* \"@openzeppelin/contracts/utils/math/SafeMath.sol\":5061:5068  uint256 */\n      0x00\n        /* \"@openzeppelin/contracts/utils/math/SafeMath.sol\":5117:5118  a */\n      dup4\n        /* \"@openzeppelin/contracts/utils/math/SafeMath.sol\":5112:5113  b */\n      dup4\n        /* \"@openzeppelin/contracts/utils/math/SafeMath.sol\":5112:5118  b <= a */\n      gt\n      iszero\n        /* \"@openzeppelin/contracts/utils/math/SafeMath.sol\":5120:5132  errorMessage */\n      dup3\n        /* \"@openzeppelin/contracts/utils/math/SafeMath.sol\":5104:5133  require(b <= a, errorMessage) */\n      swap1\n      tag_263\n      jumpi\n      mload(0x40)\n      0x08c379a000000000000000000000000000000000000000000000000000000000\n      dup2\n      mstore\n      0x04\n      add\n      tag_264\n      swap2\n      swap1\n      tag_30\n      jump\t// in\n    tag_264:\n      mload(0x40)\n      dup1\n      swap2\n      sub\n      swap1\n      revert\n    tag_263:\n      pop\n        /* \"@openzeppelin/contracts/utils/math/SafeMath.sol\":5158:5159  b */\n      dup3\n        /* \"@openzeppelin/contracts/utils/math/SafeMath.sol\":5154:5155  a */\n      dup5\n        /* \"@openzeppelin/contracts/utils/math/SafeMath.sol\":5154:5159  a - b */\n      sub\n        /* \"@openzeppelin/contracts/utils/math/SafeMath.sol\":5147:5159  return a - b */\n      swap1\n      pop\n        /* \"@openzeppelin/contracts/utils/math/SafeMath.sol\":4945:5176  function sub(... */\n      swap4\n      swap3\n      pop\n      pop\n      pop\n      jump\t// out\n        /* \"@openzeppelin/contracts-upgradeable/access/OwnableUpgradeable.sol\":988:1114  function __Ownable_init() internal initializer {... */\n    tag_210:\n        /* \"@openzeppelin/contracts-upgradeable/proxy/utils/Initializable.sol\":539:552  _initializing */\n      0x00\n      0x01\n      swap1\n      sload\n      swap1\n      0x0100\n      exp\n      swap1\n      div\n      0xff\n      and\n        /* \"@openzeppelin/contracts-upgradeable/proxy/utils/Initializable.sol\":539:569  _initializing || !_initialized */\n      dup1\n      tag_266\n      jumpi\n      pop\n        /* \"@openzeppelin/contracts-upgradeable/proxy/utils/Initializable.sol\":557:569  _initialized */\n      0x00\n      dup1\n      sload\n      swap1\n      0x0100\n      exp\n      swap1\n      div\n      0xff\n      and\n        /* \"@openzeppelin/contracts-upgradeable/proxy/utils/Initializable.sol\":556:569  !_initialized */\n      iszero\n        /* \"@openzeppelin/contracts-upgradeable/proxy/utils/Initializable.sol\":539:569  _initializing || !_initialized */\n    tag_266:\n        /* \"@openzeppelin/contracts-upgradeable/proxy/utils/Initializable.sol\":531:620  require(_initializing || !_initialized, \"Initializable: contract is already initialized\") */\n      tag_267\n      jumpi\n      mload(0x40)\n      0x08c379a000000000000000000000000000000000000000000000000000000000\n      dup2\n      mstore\n      0x04\n      add\n      tag_268\n      swap1\n      tag_206\n      jump\t// in\n    tag_268:\n      mload(0x40)\n      dup1\n      swap2\n      sub\n      swap1\n      revert\n    tag_267:\n        /* \"@openzeppelin/contracts-upgradeable/proxy/utils/Initializable.sol\":631:650  bool isTopLevelCall */\n      0x00\n        /* \"@openzeppelin/contracts-upgradeable/proxy/utils/Initializable.sol\":654:667  _initializing */\n      dup1\n      0x01\n      swap1\n      sload\n      swap1\n      0x0100\n      exp\n      swap1\n      div\n      0xff\n      and\n        /* \"@openzeppelin/contracts-upgradeable/proxy/utils/Initializable.sol\":653:667  !_initializing */\n      iszero\n        /* \"@openzeppelin/contracts-upgradeable/proxy/utils/Initializable.sol\":631:667  bool isTopLevelCall = !_initializing */\n      swap1\n      pop\n        /* \"@openzeppelin/contracts-upgradeable/proxy/utils/Initializable.sol\":681:695  isTopLevelCall */\n      dup1\n        /* \"@openzeppelin/contracts-upgradeable/proxy/utils/Initializable.sol\":677:775  if (isTopLevelCall) {... */\n      iszero\n      tag_269\n      jumpi\n        /* \"@openzeppelin/contracts-upgradeable/proxy/utils/Initializable.sol\":727:731  true */\n      0x01\n        /* \"@openzeppelin/contracts-upgradeable/proxy/utils/Initializable.sol\":711:724  _initializing */\n      0x00\n      0x01\n        /* \"@openzeppelin/contracts-upgradeable/proxy/utils/Initializable.sol\":711:731  _initializing = true */\n      0x0100\n      exp\n      dup2\n      sload\n      dup2\n      0xff\n      mul\n      not\n      and\n      swap1\n      dup4\n      iszero\n      iszero\n      mul\n      or\n      swap1\n      sstore\n      pop\n        /* \"@openzeppelin/contracts-upgradeable/proxy/utils/Initializable.sol\":760:764  true */\n      0x01\n        /* \"@openzeppelin/contracts-upgradeable/proxy/utils/Initializable.sol\":745:757  _initialized */\n      0x00\n      dup1\n        /* \"@openzeppelin/contracts-upgradeable/proxy/utils/Initializable.sol\":745:764  _initialized = true */\n      0x0100\n      exp\n      dup2\n      sload\n      dup2\n      0xff\n      mul\n      not\n      and\n      swap1\n      dup4\n      iszero\n      iszero\n      mul\n      or\n      swap1\n      sstore\n      pop\n        /* \"@openzeppelin/contracts-upgradeable/proxy/utils/Initializable.sol\":677:775  if (isTopLevelCall) {... */\n    tag_269:\n        /* \"@openzeppelin/contracts-upgradeable/access/OwnableUpgradeable.sol\":1045:1071  __Context_init_unchained() */\n      tag_271\n        /* \"@openzeppelin/contracts-upgradeable/access/OwnableUpgradeable.sol\":1045:1069  __Context_init_unchained */\n      tag_272\n        /* \"@openzeppelin/contracts-upgradeable/access/OwnableUpgradeable.sol\":1045:1071  __Context_init_unchained() */\n      jump\t// in\n    tag_271:\n        /* \"@openzeppelin/contracts-upgradeable/access/OwnableUpgradeable.sol\":1081:1107  __Ownable_init_unchained() */\n      tag_273\n        /* \"@openzeppelin/contracts-upgradeable/access/OwnableUpgradeable.sol\":1081:1105  __Ownable_init_unchained */\n      tag_274\n        /* \"@openzeppelin/contracts-upgradeable/access/OwnableUpgradeable.sol\":1081:1107  __Ownable_init_unchained() */\n      jump\t// in\n    tag_273:\n        /* \"@openzeppelin/contracts-upgradeable/proxy/utils/Initializable.sol\":801:815  isTopLevelCall */\n      dup1\n        /* \"@openzeppelin/contracts-upgradeable/proxy/utils/Initializable.sol\":797:863  if (isTopLevelCall) {... */\n      iszero\n      tag_275\n      jumpi\n        /* \"@openzeppelin/contracts-upgradeable/proxy/utils/Initializable.sol\":847:852  false */\n      0x00\n        /* \"@openzeppelin/contracts-upgradeable/proxy/utils/Initializable.sol\":831:844  _initializing */\n      dup1\n      0x01\n        /* \"@openzeppelin/contracts-upgradeable/proxy/utils/Initializable.sol\":831:852  _initializing = false */\n      0x0100\n      exp\n      dup2\n      sload\n      dup2\n      0xff\n      mul\n      not\n      and\n      swap1\n      dup4\n      iszero\n      iszero\n      mul\n      or\n      swap1\n      sstore\n      pop\n        /* \"@openzeppelin/contracts-upgradeable/proxy/utils/Initializable.sol\":797:863  if (isTopLevelCall) {... */\n    tag_275:\n        /* \"@openzeppelin/contracts-upgradeable/access/OwnableUpgradeable.sol\":988:1114  function __Ownable_init() internal initializer {... */\n      pop\n      jump\t// out\n        /* \"@openzeppelin/contracts-upgradeable/token/ERC20/ERC20Upgradeable.sol\":2101:2279  function __ERC20_init(string memory name_, string memory symbol_) internal initializer {... */\n    tag_212:\n        /* \"@openzeppelin/contracts-upgradeable/proxy/utils/Initializable.sol\":539:552  _initializing */\n      0x00\n      0x01\n      swap1\n      sload\n      swap1\n      0x0100\n      exp\n      swap1\n      div\n      0xff\n      and\n        /* \"@openzeppelin/contracts-upgradeable/proxy/utils/Initializable.sol\":539:569  _initializing || !_initialized */\n      dup1\n      tag_277\n      jumpi\n      pop\n        /* \"@openzeppelin/contracts-upgradeable/proxy/utils/Initializable.sol\":557:569  _initialized */\n      0x00\n      dup1\n      sload\n      swap1\n      0x0100\n      exp\n      swap1\n      div\n      0xff\n      and\n        /* \"@openzeppelin/contracts-upgradeable/proxy/utils/Initializable.sol\":556:569  !_initialized */\n      iszero\n        /* \"@openzeppelin/contracts-upgradeable/proxy/utils/Initializable.sol\":539:569  _initializing || !_initialized */\n    tag_277:\n        /* \"@openzeppelin/contracts-upgradeable/proxy/utils/Initializable.sol\":531:620  require(_initializing || !_initialized, \"Initializable: contract is already initialized\") */\n      tag_278\n      jumpi\n      mload(0x40)\n      0x08c379a000000000000000000000000000000000000000000000000000000000\n      dup2\n      mstore\n      0x04\n      add\n      tag_279\n      swap1\n      tag_206\n      jump\t// in\n    tag_279:\n      mload(0x40)\n      dup1\n      swap2\n      sub\n      swap1\n      revert\n    tag_278:\n        /* \"@openzeppelin/contracts-upgradeable/proxy/utils/Initializable.sol\":631:650  bool isTopLevelCall */\n      0x00\n        /* \"@openzeppelin/contracts-upgradeable/proxy/utils/Initializable.sol\":654:667  _initializing */\n      dup1\n      0x01\n      swap1\n      sload\n      swap1\n      0x0100\n      exp\n      swap1\n      div\n      0xff\n      and\n        /* \"@openzeppelin/contracts-upgradeable/proxy/utils/Initializable.sol\":653:667  !_initializing */\n      iszero\n        /* \"@openzeppelin/contracts-upgradeable/proxy/utils/Initializable.sol\":631:667  bool isTopLevelCall = !_initializing */\n      swap1\n      pop\n        /* \"@openzeppelin/contracts-upgradeable/proxy/utils/Initializable.sol\":681:695  isTopLevelCall */\n      dup1\n        /* \"@openzeppelin/contracts-upgradeable/proxy/utils/Initializable.sol\":677:775  if (isTopLevelCall) {... */\n      iszero\n      tag_280\n      jumpi\n        /* \"@openzeppelin/contracts-upgradeable/proxy/utils/Initializable.sol\":727:731  true */\n      0x01\n        /* \"@openzeppelin/contracts-upgradeable/proxy/utils/Initializable.sol\":711:724  _initializing */\n      0x00\n      0x01\n        /* \"@openzeppelin/contracts-upgradeable/proxy/utils/Initializable.sol\":711:731  _initializing = true */\n      0x0100\n      exp\n      dup2\n      sload\n      dup2\n      0xff\n      mul\n      not\n      and\n      swap1\n      dup4\n      iszero\n      iszero\n      mul\n      or\n      swap1\n      sstore\n      pop\n        /* \"@openzeppelin/contracts-upgradeable/proxy/utils/Initializable.sol\":760:764  true */\n      0x01\n        /* \"@openzeppelin/contracts-upgradeable/proxy/utils/Initializable.sol\":745:757  _initialized */\n      0x00\n      dup1\n        /* \"@openzeppelin/contracts-upgradeable/proxy/utils/Initializable.sol\":745:764  _initialized = true */\n      0x0100\n      exp\n      dup2\n      sload\n      dup2\n      0xff\n      mul\n      not\n      and\n      swap1\n      dup4\n      iszero\n      iszero\n      mul\n      or\n      swap1\n      sstore\n      pop\n        /* \"@openzeppelin/contracts-upgradeable/proxy/utils/Initializable.sol\":677:775  if (isTopLevelCall) {... */\n    tag_280:\n        /* \"@openzeppelin/contracts-upgradeable/token/ERC20/ERC20Upgradeable.sol\":2198:2224  __Context_init_unchained() */\n      tag_282\n        /* \"@openzeppelin/contracts-upgradeable/token/ERC20/ERC20Upgradeable.sol\":2198:2222  __Context_init_unchained */\n      tag_272\n        /* \"@openzeppelin/contracts-upgradeable/token/ERC20/ERC20Upgradeable.sol\":2198:2224  __Context_init_unchained() */\n      jump\t// in\n    tag_282:\n        /* \"@openzeppelin/contracts-upgradeable/token/ERC20/ERC20Upgradeable.sol\":2234:2272  __ERC20_init_unchained(name_, symbol_) */\n      tag_283\n        /* \"@openzeppelin/contracts-upgradeable/token/ERC20/ERC20Upgradeable.sol\":2257:2262  name_ */\n      dup4\n        /* \"@openzeppelin/contracts-upgradeable/token/ERC20/ERC20Upgradeable.sol\":2264:2271  symbol_ */\n      dup4\n        /* \"@openzeppelin/contracts-upgradeable/token/ERC20/ERC20Upgradeable.sol\":2234:2256  __ERC20_init_unchained */\n      tag_284\n        /* \"@openzeppelin/contracts-upgradeable/token/ERC20/ERC20Upgradeable.sol\":2234:2272  __ERC20_init_unchained(name_, symbol_) */\n      jump\t// in\n    tag_283:\n        /* \"@openzeppelin/contracts-upgradeable/proxy/utils/Initializable.sol\":801:815  isTopLevelCall */\n      dup1\n        /* \"@openzeppelin/contracts-upgradeable/proxy/utils/Initializable.sol\":797:863  if (isTopLevelCall) {... */\n      iszero\n      tag_285\n      jumpi\n        /* \"@openzeppelin/contracts-upgradeable/proxy/utils/Initializable.sol\":847:852  false */\n      0x00\n        /* \"@openzeppelin/contracts-upgradeable/proxy/utils/Initializable.sol\":831:844  _initializing */\n      dup1\n      0x01\n        /* \"@openzeppelin/contracts-upgradeable/proxy/utils/Initializable.sol\":831:852  _initializing = false */\n      0x0100\n      exp\n      dup2\n      sload\n      dup2\n      0xff\n      mul\n      not\n      and\n      swap1\n      dup4\n      iszero\n      iszero\n      mul\n      or\n      swap1\n      sstore\n      pop\n        /* \"@openzeppelin/contracts-upgradeable/proxy/utils/Initializable.sol\":797:863  if (isTopLevelCall) {... */\n    tag_285:\n        /* \"@openzeppelin/contracts-upgradeable/token/ERC20/ERC20Upgradeable.sol\":2101:2279  function __ERC20_init(string memory name_, string memory symbol_) internal initializer {... */\n      pop\n      pop\n      pop\n      jump\t// out\n        /* \"@openzeppelin/contracts-upgradeable/token/ERC20/ERC20Upgradeable.sol\":11336:11457  function _beforeTokenTransfer(... */\n    tag_232:\n      pop\n      pop\n      pop\n      jump\t// out\n        /* \"@openzeppelin/contracts-upgradeable/token/ERC20/ERC20Upgradeable.sol\":12045:12165  function _afterTokenTransfer(... */\n    tag_239:\n      pop\n      pop\n      pop\n      jump\t// out\n        /* \"@openzeppelin/contracts-upgradeable/utils/ContextUpgradeable.sol\":807:871  function __Context_init_unchained() internal initializer {... */\n    tag_272:\n        /* \"@openzeppelin/contracts-upgradeable/proxy/utils/Initializable.sol\":539:552  _initializing */\n      0x00\n      0x01\n      swap1\n      sload\n      swap1\n      0x0100\n      exp\n      swap1\n      div\n      0xff\n      and\n        /* \"@openzeppelin/contracts-upgradeable/proxy/utils/Initializable.sol\":539:569  _initializing || !_initialized */\n      dup1\n      tag_289\n      jumpi\n      pop\n        /* \"@openzeppelin/contracts-upgradeable/proxy/utils/Initializable.sol\":557:569  _initialized */\n      0x00\n      dup1\n      sload\n      swap1\n      0x0100\n      exp\n      swap1\n      div\n      0xff\n      and\n        /* \"@openzeppelin/contracts-upgradeable/proxy/utils/Initializable.sol\":556:569  !_initialized */\n      iszero\n        /* \"@openzeppelin/contracts-upgradeable/proxy/utils/Initializable.sol\":539:569  _initializing || !_initialized */\n    tag_289:\n        /* \"@openzeppelin/contracts-upgradeable/proxy/utils/Initializable.sol\":531:620  require(_initializing || !_initialized, \"Initializable: contract is already initialized\") */\n      tag_290\n      jumpi\n      mload(0x40)\n      0x08c379a000000000000000000000000000000000000000000000000000000000\n      dup2\n      mstore\n      0x04\n      add\n      tag_291\n      swap1\n      tag_206\n      jump\t// in\n    tag_291:\n      mload(0x40)\n      dup1\n      swap2\n      sub\n      swap1\n      revert\n    tag_290:\n        /* \"@openzeppelin/contracts-upgradeable/proxy/utils/Initializable.sol\":631:650  bool isTopLevelCall */\n      0x00\n        /* \"@openzeppelin/contracts-upgradeable/proxy/utils/Initializable.sol\":654:667  _initializing */\n      dup1\n      0x01\n      swap1\n      sload\n      swap1\n      0x0100\n      exp\n      swap1\n      div\n      0xff\n      and\n        /* \"@openzeppelin/contracts-upgradeable/proxy/utils/Initializable.sol\":653:667  !_initializing */\n      iszero\n        /* \"@openzeppelin/contracts-upgradeable/proxy/utils/Initializable.sol\":631:667  bool isTopLevelCall = !_initializing */\n      swap1\n      pop\n        /* \"@openzeppelin/contracts-upgradeable/proxy/utils/Initializable.sol\":681:695  isTopLevelCall */\n      dup1\n        /* \"@openzeppelin/contracts-upgradeable/proxy/utils/Initializable.sol\":677:775  if (isTopLevelCall) {... */\n      iszero\n      tag_292\n      jumpi\n        /* \"@openzeppelin/contracts-upgradeable/proxy/utils/Initializable.sol\":727:731  true */\n      0x01\n        /* \"@openzeppelin/contracts-upgradeable/proxy/utils/Initializable.sol\":711:724  _initializing */\n      0x00\n      0x01\n        /* \"@openzeppelin/contracts-upgradeable/proxy/utils/Initializable.sol\":711:731  _initializing = true */\n      0x0100\n      exp\n      dup2\n      sload\n      dup2\n      0xff\n      mul\n      not\n      and\n      swap1\n      dup4\n      iszero\n      iszero\n      mul\n      or\n      swap1\n      sstore\n      pop\n        /* \"@openzeppelin/contracts-upgradeable/proxy/utils/Initializable.sol\":760:764  true */\n      0x01\n        /* \"@openzeppelin/contracts-upgradeable/proxy/utils/Initializable.sol\":745:757  _initialized */\n      0x00\n      dup1\n        /* \"@openzeppelin/contracts-upgradeable/proxy/utils/Initializable.sol\":745:764  _initialized = true */\n      0x0100\n      exp\n      dup2\n      sload\n      dup2\n      0xff\n      mul\n      not\n      and\n      swap1\n      dup4\n      iszero\n      iszero\n      mul\n      or\n      swap1\n      sstore\n      pop\n        /* \"@openzeppelin/contracts-upgradeable/proxy/utils/Initializable.sol\":677:775  if (isTopLevelCall) {... */\n    tag_292:\n        /* \"@openzeppelin/contracts-upgradeable/proxy/utils/Initializable.sol\":801:815  isTopLevelCall */\n      dup1\n        /* \"@openzeppelin/contracts-upgradeable/proxy/utils/Initializable.sol\":797:863  if (isTopLevelCall) {... */\n      iszero\n      tag_294\n      jumpi\n        /* \"@openzeppelin/contracts-upgradeable/proxy/utils/Initializable.sol\":847:852  false */\n      0x00\n        /* \"@openzeppelin/contracts-upgradeable/proxy/utils/Initializable.sol\":831:844  _initializing */\n      dup1\n      0x01\n        /* \"@openzeppelin/contracts-upgradeable/proxy/utils/Initializable.sol\":831:852  _initializing = false */\n      0x0100\n      exp\n      dup2\n      sload\n      dup2\n      0xff\n      mul\n      not\n      and\n      swap1\n      dup4\n      iszero\n      iszero\n      mul\n      or\n      swap1\n      sstore\n      pop\n        /* \"@openzeppelin/contracts-upgradeable/proxy/utils/Initializable.sol\":797:863  if (isTopLevelCall) {... */\n    tag_294:\n        /* \"@openzeppelin/contracts-upgradeable/utils/ContextUpgradeable.sol\":807:871  function __Context_init_unchained() internal initializer {... */\n      pop\n      jump\t// out\n        /* \"@openzeppelin/contracts-upgradeable/access/OwnableUpgradeable.sol\":1120:1226  function __Ownable_init_unchained() internal initializer {... */\n    tag_274:\n        /* \"@openzeppelin/contracts-upgradeable/proxy/utils/Initializable.sol\":539:552  _initializing */\n      0x00\n      0x01\n      swap1\n      sload\n      swap1\n      0x0100\n      exp\n      swap1\n      div\n      0xff\n      and\n        /* \"@openzeppelin/contracts-upgradeable/proxy/utils/Initializable.sol\":539:569  _initializing || !_initialized */\n      dup1\n      tag_296\n      jumpi\n      pop\n        /* \"@openzeppelin/contracts-upgradeable/proxy/utils/Initializable.sol\":557:569  _initialized */\n      0x00\n      dup1\n      sload\n      swap1\n      0x0100\n      exp\n      swap1\n      div\n      0xff\n      and\n        /* \"@openzeppelin/contracts-upgradeable/proxy/utils/Initializable.sol\":556:569  !_initialized */\n      iszero\n        /* \"@openzeppelin/contracts-upgradeable/proxy/utils/Initializable.sol\":539:569  _initializing || !_initialized */\n    tag_296:\n        /* \"@openzeppelin/contracts-upgradeable/proxy/utils/Initializable.sol\":531:620  require(_initializing || !_initialized, \"Initializable: contract is already initialized\") */\n      tag_297\n      jumpi\n      mload(0x40)\n      0x08c379a000000000000000000000000000000000000000000000000000000000\n      dup2\n      mstore\n      0x04\n      add\n      tag_298\n      swap1\n      tag_206\n      jump\t// in\n    tag_298:\n      mload(0x40)\n      dup1\n      swap2\n      sub\n      swap1\n      revert\n    tag_297:\n        /* \"@openzeppelin/contracts-upgradeable/proxy/utils/Initializable.sol\":631:650  bool isTopLevelCall */\n      0x00\n        /* \"@openzeppelin/contracts-upgradeable/proxy/utils/Initializable.sol\":654:667  _initializing */\n      dup1\n      0x01\n      swap1\n      sload\n      swap1\n      0x0100\n      exp\n      swap1\n      div\n      0xff\n      and\n        /* \"@openzeppelin/contracts-upgradeable/proxy/utils/Initializable.sol\":653:667  !_initializing */\n      iszero\n        /* \"@openzeppelin/contracts-upgradeable/proxy/utils/Initializable.sol\":631:667  bool isTopLevelCall = !_initializing */\n      swap1\n      pop\n        /* \"@openzeppelin/contracts-upgradeable/proxy/utils/Initializable.sol\":681:695  isTopLevelCall */\n      dup1\n        /* \"@openzeppelin/contracts-upgradeable/proxy/utils/Initializable.sol\":677:775  if (isTopLevelCall) {... */\n      iszero\n      tag_299\n      jumpi\n        /* \"@openzeppelin/contracts-upgradeable/proxy/utils/Initializable.sol\":727:731  true */\n      0x01\n        /* \"@openzeppelin/contracts-upgradeable/proxy/utils/Initializable.sol\":711:724  _initializing */\n      0x00\n      0x01\n        /* \"@openzeppelin/contracts-upgradeable/proxy/utils/Initializable.sol\":711:731  _initializing = true */\n      0x0100\n      exp\n      dup2\n      sload\n      dup2\n      0xff\n      mul\n      not\n      and\n      swap1\n      dup4\n      iszero\n      iszero\n      mul\n      or\n      swap1\n      sstore\n      pop\n        /* \"@openzeppelin/contracts-upgradeable/proxy/utils/Initializable.sol\":760:764  true */\n      0x01\n        /* \"@openzeppelin/contracts-upgradeable/proxy/utils/Initializable.sol\":745:757  _initialized */\n      0x00\n      dup1\n        /* \"@openzeppelin/contracts-upgradeable/proxy/utils/Initializable.sol\":745:764  _initialized = true */\n      0x0100\n      exp\n      dup2\n      sload\n      dup2\n      0xff\n      mul\n      not\n      and\n      swap1\n      dup4\n      iszero\n      iszero\n      mul\n      or\n      swap1\n      sstore\n      pop\n        /* \"@openzeppelin/contracts-upgradeable/proxy/utils/Initializable.sol\":677:775  if (isTopLevelCall) {... */\n    tag_299:\n        /* \"@openzeppelin/contracts-upgradeable/access/OwnableUpgradeable.sol\":1187:1219  _transferOwnership(_msgSender()) */\n      tag_301\n        /* \"@openzeppelin/contracts-upgradeable/access/OwnableUpgradeable.sol\":1206:1218  _msgSender() */\n      tag_302\n        /* \"@openzeppelin/contracts-upgradeable/access/OwnableUpgradeable.sol\":1206:1216  _msgSender */\n      tag_121\n        /* \"@openzeppelin/contracts-upgradeable/access/OwnableUpgradeable.sol\":1206:1218  _msgSender() */\n      jump\t// in\n    tag_302:\n        /* \"@openzeppelin/contracts-upgradeable/access/OwnableUpgradeable.sol\":1187:1205  _transferOwnership */\n      tag_165\n        /* \"@openzeppelin/contracts-upgradeable/access/OwnableUpgradeable.sol\":1187:1219  _transferOwnership(_msgSender()) */\n      jump\t// in\n    tag_301:\n        /* \"@openzeppelin/contracts-upgradeable/proxy/utils/Initializable.sol\":801:815  isTopLevelCall */\n      dup1\n        /* \"@openzeppelin/contracts-upgradeable/proxy/utils/Initializable.sol\":797:863  if (isTopLevelCall) {... */\n      iszero\n      tag_303\n      jumpi\n        /* \"@openzeppelin/contracts-upgradeable/proxy/utils/Initializable.sol\":847:852  false */\n      0x00\n        /* \"@openzeppelin/contracts-upgradeable/proxy/utils/Initializable.sol\":831:844  _initializing */\n      dup1\n      0x01\n        /* \"@openzeppelin/contracts-upgradeable/proxy/utils/Initializable.sol\":831:852  _initializing = false */\n      0x0100\n      exp\n      dup2\n      sload\n      dup2\n      0xff\n      mul\n      not\n      and\n      swap1\n      dup4\n      iszero\n      iszero\n      mul\n      or\n      swap1\n      sstore\n      pop\n        /* \"@openzeppelin/contracts-upgradeable/proxy/utils/Initializable.sol\":797:863  if (isTopLevelCall) {... */\n    tag_303:\n        /* \"@openzeppelin/contracts-upgradeable/access/OwnableUpgradeable.sol\":1120:1226  function __Ownable_init_unchained() internal initializer {... */\n      pop\n      jump\t// out\n        /* \"@openzeppelin/contracts-upgradeable/token/ERC20/ERC20Upgradeable.sol\":2285:2439  function __ERC20_init_unchained(string memory name_, string memory symbol_) internal initializer {... */\n    tag_284:\n        /* \"@openzeppelin/contracts-upgradeable/proxy/utils/Initializable.sol\":539:552  _initializing */\n      0x00\n      0x01\n      swap1\n      sload\n      swap1\n      0x0100\n      exp\n      swap1\n      div\n      0xff\n      and\n        /* \"@openzeppelin/contracts-upgradeable/proxy/utils/Initializable.sol\":539:569  _initializing || !_initialized */\n      dup1\n      tag_305\n      jumpi\n      pop\n        /* \"@openzeppelin/contracts-upgradeable/proxy/utils/Initializable.sol\":557:569  _initialized */\n      0x00\n      dup1\n      sload\n      swap1\n      0x0100\n      exp\n      swap1\n      div\n      0xff\n      and\n        /* \"@openzeppelin/contracts-upgradeable/proxy/utils/Initializable.sol\":556:569  !_initialized */\n      iszero\n        /* \"@openzeppelin/contracts-upgradeable/proxy/utils/Initializable.sol\":539:569  _initializing || !_initialized */\n    tag_305:\n        /* \"@openzeppelin/contracts-upgradeable/proxy/utils/Initializable.sol\":531:620  require(_initializing || !_initialized, \"Initializable: contract is already initialized\") */\n      tag_306\n      jumpi\n      mload(0x40)\n      0x08c379a000000000000000000000000000000000000000000000000000000000\n      dup2\n      mstore\n      0x04\n      add\n      tag_307\n      swap1\n      tag_206\n      jump\t// in\n    tag_307:\n      mload(0x40)\n      dup1\n      swap2\n      sub\n      swap1\n      revert\n    tag_306:\n        /* \"@openzeppelin/contracts-upgradeable/proxy/utils/Initializable.sol\":631:650  bool isTopLevelCall */\n      0x00\n        /* \"@openzeppelin/contracts-upgradeable/proxy/utils/Initializable.sol\":654:667  _initializing */\n      dup1\n      0x01\n      swap1\n      sload\n      swap1\n      0x0100\n      exp\n      swap1\n      div\n      0xff\n      and\n        /* \"@openzeppelin/contracts-upgradeable/proxy/utils/Initializable.sol\":653:667  !_initializing */\n      iszero\n        /* \"@openzeppelin/contracts-upgradeable/proxy/utils/Initializable.sol\":631:667  bool isTopLevelCall = !_initializing */\n      swap1\n      pop\n        /* \"@openzeppelin/contracts-upgradeable/proxy/utils/Initializable.sol\":681:695  isTopLevelCall */\n      dup1\n        /* \"@openzeppelin/contracts-upgradeable/proxy/utils/Initializable.sol\":677:775  if (isTopLevelCall) {... */\n      iszero\n      tag_308\n      jumpi\n        /* \"@openzeppelin/contracts-upgradeable/proxy/utils/Initializable.sol\":727:731  true */\n      0x01\n        /* \"@openzeppelin/contracts-upgradeable/proxy/utils/Initializable.sol\":711:724  _initializing */\n      0x00\n      0x01\n        /* \"@openzeppelin/contracts-upgradeable/proxy/utils/Initializable.sol\":711:731  _initializing = true */\n      0x0100\n      exp\n      dup2\n      sload\n      dup2\n      0xff\n      mul\n      not\n      and\n      swap1\n      dup4\n      iszero\n      iszero\n      mul\n      or\n      swap1\n      sstore\n      pop\n        /* \"@openzeppelin/contracts-upgradeable/proxy/utils/Initializable.sol\":760:764  true */\n      0x01\n        /* \"@openzeppelin/contracts-upgradeable/proxy/utils/Initializable.sol\":745:757  _initialized */\n      0x00\n      dup1\n        /* \"@openzeppelin/contracts-upgradeable/proxy/utils/Initializable.sol\":745:764  _initialized = true */\n      0x0100\n      exp\n      dup2\n      sload\n      dup2\n      0xff\n      mul\n      not\n      and\n      swap1\n      dup4\n      iszero\n      iszero\n      mul\n      or\n      swap1\n      sstore\n      pop\n        /* \"@openzeppelin/contracts-upgradeable/proxy/utils/Initializable.sol\":677:775  if (isTopLevelCall) {... */\n    tag_308:\n        /* \"@openzeppelin/contracts-upgradeable/token/ERC20/ERC20Upgradeable.sol\":2400:2405  name_ */\n      dup3\n        /* \"@openzeppelin/contracts-upgradeable/token/ERC20/ERC20Upgradeable.sol\":2392:2397  _name */\n      0x68\n        /* \"@openzeppelin/contracts-upgradeable/token/ERC20/ERC20Upgradeable.sol\":2392:2405  _name = name_ */\n      swap1\n      dup1\n      mload\n      swap1\n      0x20\n      add\n      swap1\n      tag_310\n      swap3\n      swap2\n      swap1\n      tag_311\n      jump\t// in\n    tag_310:\n      pop\n        /* \"@openzeppelin/contracts-upgradeable/token/ERC20/ERC20Upgradeable.sol\":2425:2432  symbol_ */\n      dup2\n        /* \"@openzeppelin/contracts-upgradeable/token/ERC20/ERC20Upgradeable.sol\":2415:2422  _symbol */\n      0x69\n        /* \"@openzeppelin/contracts-upgradeable/token/ERC20/ERC20Upgradeable.sol\":2415:2432  _symbol = symbol_ */\n      swap1\n      dup1\n      mload\n      swap1\n      0x20\n      add\n      swap1\n      tag_312\n      swap3\n      swap2\n      swap1\n      tag_311\n      jump\t// in\n    tag_312:\n      pop\n        /* \"@openzeppelin/contracts-upgradeable/proxy/utils/Initializable.sol\":801:815  isTopLevelCall */\n      dup1\n        /* \"@openzeppelin/contracts-upgradeable/proxy/utils/Initializable.sol\":797:863  if (isTopLevelCall) {... */\n      iszero\n      tag_313\n      jumpi\n        /* \"@openzeppelin/contracts-upgradeable/proxy/utils/Initializable.sol\":847:852  false */\n      0x00\n        /* \"@openzeppelin/contracts-upgradeable/proxy/utils/Initializable.sol\":831:844  _initializing */\n      dup1\n      0x01\n        /* \"@openzeppelin/contracts-upgradeable/proxy/utils/Initializable.sol\":831:852  _initializing = false */\n      0x0100\n      exp\n      dup2\n      sload\n      dup2\n      0xff\n      mul\n      not\n      and\n      swap1\n      dup4\n      iszero\n      iszero\n      mul\n      or\n      swap1\n      sstore\n      pop\n        /* \"@openzeppelin/contracts-upgradeable/proxy/utils/Initializable.sol\":797:863  if (isTopLevelCall) {... */\n    tag_313:\n        /* \"@openzeppelin/contracts-upgradeable/token/ERC20/ERC20Upgradeable.sol\":2285:2439  function __ERC20_init_unchained(string memory name_, string memory symbol_) internal initializer {... */\n      pop\n      pop\n      pop\n      jump\t// out\n    tag_311:\n      dup3\n      dup1\n      sload\n      tag_314\n      swap1\n      tag_113\n      jump\t// in\n    tag_314:\n      swap1\n      0x00\n      mstore\n      keccak256(0x00, 0x20)\n      swap1\n      0x1f\n      add\n      0x20\n      swap1\n      div\n      dup2\n      add\n      swap3\n      dup3\n      tag_316\n      jumpi\n      0x00\n      dup6\n      sstore\n      jump(tag_315)\n    tag_316:\n      dup3\n      0x1f\n      lt\n      tag_317\n      jumpi\n      dup1\n      mload\n      not(0xff)\n      and\n      dup4\n      dup1\n      add\n      or\n      dup6\n      sstore\n      jump(tag_315)\n    tag_317:\n      dup3\n      dup1\n      add\n      0x01\n      add\n      dup6\n      sstore\n      dup3\n      iszero\n      tag_315\n      jumpi\n      swap2\n      dup3\n      add\n    tag_318:\n      dup3\n      dup2\n      gt\n      iszero\n      tag_319\n      jumpi\n      dup3\n      mload\n      dup3\n      sstore\n      swap2\n      0x20\n      add\n      swap2\n      swap1\n      0x01\n      add\n      swap1\n      jump(tag_318)\n    tag_319:\n    tag_315:\n      pop\n      swap1\n      pop\n      tag_320\n      swap2\n      swap1\n      tag_321\n      jump\t// in\n    tag_320:\n      pop\n      swap1\n      jump\t// out\n    tag_321:\n    tag_322:\n      dup1\n      dup3\n      gt\n      iszero\n      tag_323\n      jumpi\n      0x00\n      dup2\n      0x00\n      swap1\n      sstore\n      pop\n      0x01\n      add\n      jump(tag_322)\n    tag_323:\n      pop\n      swap1\n      jump\t// out\n        /* \"#utility.yul\":7:351   */\n    tag_325:\n      0x00\n        /* \"#utility.yul\":110:175   */\n      tag_327\n        /* \"#utility.yul\":125:174   */\n      tag_328\n        /* \"#utility.yul\":167:173   */\n      dup5\n        /* \"#utility.yul\":125:174   */\n      tag_329\n      jump\t// in\n    tag_328:\n        /* \"#utility.yul\":110:175   */\n      tag_330\n      jump\t// in\n    tag_327:\n        /* \"#utility.yul\":101:175   */\n      swap1\n      pop\n        /* \"#utility.yul\":198:204   */\n      dup3\n        /* \"#utility.yul\":191:196   */\n      dup2\n        /* \"#utility.yul\":184:205   */\n      mstore\n        /* \"#utility.yul\":236:240   */\n      0x20\n        /* \"#utility.yul\":229:234   */\n      dup2\n        /* \"#utility.yul\":225:241   */\n      add\n        /* \"#utility.yul\":274:277   */\n      dup5\n        /* \"#utility.yul\":265:271   */\n      dup5\n        /* \"#utility.yul\":260:263   */\n      dup5\n        /* \"#utility.yul\":256:272   */\n      add\n        /* \"#utility.yul\":253:278   */\n      gt\n        /* \"#utility.yul\":250:252   */\n      iszero\n      tag_331\n      jumpi\n        /* \"#utility.yul\":291:292   */\n      0x00\n        /* \"#utility.yul\":288:289   */\n      dup1\n        /* \"#utility.yul\":281:293   */\n      revert\n        /* \"#utility.yul\":250:252   */\n    tag_331:\n        /* \"#utility.yul\":304:345   */\n      tag_332\n        /* \"#utility.yul\":338:344   */\n      dup5\n        /* \"#utility.yul\":333:336   */\n      dup3\n        /* \"#utility.yul\":328:331   */\n      dup6\n        /* \"#utility.yul\":304:345   */\n      tag_333\n      jump\t// in\n    tag_332:\n        /* \"#utility.yul\":91:351   */\n      pop\n      swap4\n      swap3\n      pop\n      pop\n      pop\n      jump\t// out\n        /* \"#utility.yul\":357:496   */\n    tag_334:\n      0x00\n        /* \"#utility.yul\":441:447   */\n      dup2\n        /* \"#utility.yul\":428:448   */\n      calldataload\n        /* \"#utility.yul\":419:448   */\n      swap1\n      pop\n        /* \"#utility.yul\":457:490   */\n      tag_336\n        /* \"#utility.yul\":484:489   */\n      dup2\n        /* \"#utility.yul\":457:490   */\n      tag_337\n      jump\t// in\n    tag_336:\n        /* \"#utility.yul\":409:496   */\n      swap3\n      swap2\n      pop\n      pop\n      jump\t// out\n        /* \"#utility.yul\":502:635   */\n    tag_338:\n      0x00\n        /* \"#utility.yul\":583:589   */\n      dup2\n        /* \"#utility.yul\":570:590   */\n      calldataload\n        /* \"#utility.yul\":561:590   */\n      swap1\n      pop\n        /* \"#utility.yul\":599:629   */\n      tag_340\n        /* \"#utility.yul\":623:628   */\n      dup2\n        /* \"#utility.yul\":599:629   */\n      tag_341\n      jump\t// in\n    tag_340:\n        /* \"#utility.yul\":551:635   */\n      swap3\n      swap2\n      pop\n      pop\n      jump\t// out\n        /* \"#utility.yul\":655:928   */\n    tag_342:\n      0x00\n        /* \"#utility.yul\":760:763   */\n      dup3\n        /* \"#utility.yul\":753:757   */\n      0x1f\n        /* \"#utility.yul\":745:751   */\n      dup4\n        /* \"#utility.yul\":741:758   */\n      add\n        /* \"#utility.yul\":737:764   */\n      slt\n        /* \"#utility.yul\":727:729   */\n      tag_344\n      jumpi\n        /* \"#utility.yul\":778:779   */\n      0x00\n        /* \"#utility.yul\":775:776   */\n      dup1\n        /* \"#utility.yul\":768:780   */\n      revert\n        /* \"#utility.yul\":727:729   */\n    tag_344:\n        /* \"#utility.yul\":818:824   */\n      dup2\n        /* \"#utility.yul\":805:825   */\n      calldataload\n        /* \"#utility.yul\":843:922   */\n      tag_345\n        /* \"#utility.yul\":918:921   */\n      dup5\n        /* \"#utility.yul\":910:916   */\n      dup3\n        /* \"#utility.yul\":903:907   */\n      0x20\n        /* \"#utility.yul\":895:901   */\n      dup7\n        /* \"#utility.yul\":891:908   */\n      add\n        /* \"#utility.yul\":843:922   */\n      tag_325\n      jump\t// in\n    tag_345:\n        /* \"#utility.yul\":834:922   */\n      swap2\n      pop\n        /* \"#utility.yul\":717:928   */\n      pop\n      swap3\n      swap2\n      pop\n      pop\n      jump\t// out\n        /* \"#utility.yul\":934:1073   */\n    tag_346:\n      0x00\n        /* \"#utility.yul\":1018:1024   */\n      dup2\n        /* \"#utility.yul\":1005:1025   */\n      calldataload\n        /* \"#utility.yul\":996:1025   */\n      swap1\n      pop\n        /* \"#utility.yul\":1034:1067   */\n      tag_348\n        /* \"#utility.yul\":1061:1066   */\n      dup2\n        /* \"#utility.yul\":1034:1067   */\n      tag_349\n      jump\t// in\n    tag_348:\n        /* \"#utility.yul\":986:1073   */\n      swap3\n      swap2\n      pop\n      pop\n      jump\t// out\n        /* \"#utility.yul\":1079:1341   */\n    tag_69:\n      0x00\n        /* \"#utility.yul\":1187:1189   */\n      0x20\n        /* \"#utility.yul\":1175:1184   */\n      dup3\n        /* \"#utility.yul\":1166:1173   */\n      dup5\n        /* \"#utility.yul\":1162:1185   */\n      sub\n        /* \"#utility.yul\":1158:1190   */\n      slt\n        /* \"#utility.yul\":1155:1157   */\n      iszero\n      tag_351\n      jumpi\n        /* \"#utility.yul\":1203:1204   */\n      0x00\n        /* \"#utility.yul\":1200:1201   */\n      dup1\n        /* \"#utility.yul\":1193:1205   */\n      revert\n        /* \"#utility.yul\":1155:1157   */\n    tag_351:\n        /* \"#utility.yul\":1246:1247   */\n      0x00\n        /* \"#utility.yul\":1271:1324   */\n      tag_352\n        /* \"#utility.yul\":1316:1323   */\n      dup5\n        /* \"#utility.yul\":1307:1313   */\n      dup3\n        /* \"#utility.yul\":1296:1305   */\n      dup6\n        /* \"#utility.yul\":1292:1314   */\n      add\n        /* \"#utility.yul\":1271:1324   */\n      tag_334\n      jump\t// in\n    tag_352:\n        /* \"#utility.yul\":1261:1324   */\n      swap2\n      pop\n        /* \"#utility.yul\":1217:1334   */\n      pop\n        /* \"#utility.yul\":1145:1341   */\n      swap3\n      swap2\n      pop\n      pop\n      jump\t// out\n        /* \"#utility.yul\":1347:1754   */\n    tag_101:\n      0x00\n      dup1\n        /* \"#utility.yul\":1472:1474   */\n      0x40\n        /* \"#utility.yul\":1460:1469   */\n      dup4\n        /* \"#utility.yul\":1451:1458   */\n      dup6\n        /* \"#utility.yul\":1447:1470   */\n      sub\n        /* \"#utility.yul\":1443:1475   */\n      slt\n        /* \"#utility.yul\":1440:1442   */\n      iszero\n      tag_354\n      jumpi\n        /* \"#utility.yul\":1488:1489   */\n      0x00\n        /* \"#utility.yul\":1485:1486   */\n      dup1\n        /* \"#utility.yul\":1478:1490   */\n      revert\n        /* \"#utility.yul\":1440:1442   */\n    tag_354:\n        /* \"#utility.yul\":1531:1532   */\n      0x00\n        /* \"#utility.yul\":1556:1609   */\n      tag_355\n        /* \"#utility.yul\":1601:1608   */\n      dup6\n        /* \"#utility.yul\":1592:1598   */\n      dup3\n        /* \"#utility.yul\":1581:1590   */\n      dup7\n        /* \"#utility.yul\":1577:1599   */\n      add\n        /* \"#utility.yul\":1556:1609   */\n      tag_334\n      jump\t// in\n    tag_355:\n        /* \"#utility.yul\":1546:1609   */\n      swap3\n      pop\n        /* \"#utility.yul\":1502:1619   */\n      pop\n        /* \"#utility.yul\":1658:1660   */\n      0x20\n        /* \"#utility.yul\":1684:1737   */\n      tag_356\n        /* \"#utility.yul\":1729:1736   */\n      dup6\n        /* \"#utility.yul\":1720:1726   */\n      dup3\n        /* \"#utility.yul\":1709:1718   */\n      dup7\n        /* \"#utility.yul\":1705:1727   */\n      add\n        /* \"#utility.yul\":1684:1737   */\n      tag_334\n      jump\t// in\n    tag_356:\n        /* \"#utility.yul\":1674:1737   */\n      swap2\n      pop\n        /* \"#utility.yul\":1629:1747   */\n      pop\n        /* \"#utility.yul\":1430:1754   */\n      swap3\n      pop\n      swap3\n      swap1\n      pop\n      jump\t// out\n        /* \"#utility.yul\":1760:2312   */\n    tag_48:\n      0x00\n      dup1\n      0x00\n        /* \"#utility.yul\":1902:1904   */\n      0x60\n        /* \"#utility.yul\":1890:1899   */\n      dup5\n        /* \"#utility.yul\":1881:1888   */\n      dup7\n        /* \"#utility.yul\":1877:1900   */\n      sub\n        /* \"#utility.yul\":1873:1905   */\n      slt\n        /* \"#utility.yul\":1870:1872   */\n      iszero\n      tag_358\n      jumpi\n        /* \"#utility.yul\":1918:1919   */\n      0x00\n        /* \"#utility.yul\":1915:1916   */\n      dup1\n        /* \"#utility.yul\":1908:1920   */\n      revert\n        /* \"#utility.yul\":1870:1872   */\n    tag_358:\n        /* \"#utility.yul\":1961:1962   */\n      0x00\n        /* \"#utility.yul\":1986:2039   */\n      tag_359\n        /* \"#utility.yul\":2031:2038   */\n      dup7\n        /* \"#utility.yul\":2022:2028   */\n      dup3\n        /* \"#utility.yul\":2011:2020   */\n      dup8\n        /* \"#utility.yul\":2007:2029   */\n      add\n        /* \"#utility.yul\":1986:2039   */\n      tag_334\n      jump\t// in\n    tag_359:\n        /* \"#utility.yul\":1976:2039   */\n      swap4\n      pop\n        /* \"#utility.yul\":1932:2049   */\n      pop\n        /* \"#utility.yul\":2088:2090   */\n      0x20\n        /* \"#utility.yul\":2114:2167   */\n      tag_360\n        /* \"#utility.yul\":2159:2166   */\n      dup7\n        /* \"#utility.yul\":2150:2156   */\n      dup3\n        /* \"#utility.yul\":2139:2148   */\n      dup8\n        /* \"#utility.yul\":2135:2157   */\n      add\n        /* \"#utility.yul\":2114:2167   */\n      tag_334\n      jump\t// in\n    tag_360:\n        /* \"#utility.yul\":2104:2167   */\n      swap3\n      pop\n        /* \"#utility.yul\":2059:2177   */\n      pop\n        /* \"#utility.yul\":2216:2218   */\n      0x40\n        /* \"#utility.yul\":2242:2295   */\n      tag_361\n        /* \"#utility.yul\":2287:2294   */\n      dup7\n        /* \"#utility.yul\":2278:2284   */\n      dup3\n        /* \"#utility.yul\":2267:2276   */\n      dup8\n        /* \"#utility.yul\":2263:2285   */\n      add\n        /* \"#utility.yul\":2242:2295   */\n      tag_346\n      jump\t// in\n    tag_361:\n        /* \"#utility.yul\":2232:2295   */\n      swap2\n      pop\n        /* \"#utility.yul\":2187:2305   */\n      pop\n        /* \"#utility.yul\":1860:2312   */\n      swap3\n      pop\n      swap3\n      pop\n      swap3\n      jump\t// out\n        /* \"#utility.yul\":2318:2719   */\n    tag_43:\n      0x00\n      dup1\n        /* \"#utility.yul\":2440:2442   */\n      0x40\n        /* \"#utility.yul\":2428:2437   */\n      dup4\n        /* \"#utility.yul\":2419:2426   */\n      dup6\n        /* \"#utility.yul\":2415:2438   */\n      sub\n        /* \"#utility.yul\":2411:2443   */\n      slt\n        /* \"#utility.yul\":2408:2410   */\n      iszero\n      tag_363\n      jumpi\n        /* \"#utility.yul\":2456:2457   */\n      0x00\n        /* \"#utility.yul\":2453:2454   */\n      dup1\n        /* \"#utility.yul\":2446:2458   */\n      revert\n        /* \"#utility.yul\":2408:2410   */\n    tag_363:\n        /* \"#utility.yul\":2499:2500   */\n      0x00\n        /* \"#utility.yul\":2524:2577   */\n      tag_364\n        /* \"#utility.yul\":2569:2576   */\n      dup6\n        /* \"#utility.yul\":2560:2566   */\n      dup3\n        /* \"#utility.yul\":2549:2558   */\n      dup7\n        /* \"#utility.yul\":2545:2567   */\n      add\n        /* \"#utility.yul\":2524:2577   */\n      tag_334\n      jump\t// in\n    tag_364:\n        /* \"#utility.yul\":2514:2577   */\n      swap3\n      pop\n        /* \"#utility.yul\":2470:2587   */\n      pop\n        /* \"#utility.yul\":2626:2628   */\n      0x20\n        /* \"#utility.yul\":2652:2702   */\n      tag_365\n        /* \"#utility.yul\":2694:2701   */\n      dup6\n        /* \"#utility.yul\":2685:2691   */\n      dup3\n        /* \"#utility.yul\":2674:2683   */\n      dup7\n        /* \"#utility.yul\":2670:2692   */\n      add\n        /* \"#utility.yul\":2652:2702   */\n      tag_338\n      jump\t// in\n    tag_365:\n        /* \"#utility.yul\":2642:2702   */\n      swap2\n      pop\n        /* \"#utility.yul\":2597:2712   */\n      pop\n        /* \"#utility.yul\":2398:2719   */\n      swap3\n      pop\n      swap3\n      swap1\n      pop\n      jump\t// out\n        /* \"#utility.yul\":2725:3132   */\n    tag_33:\n      0x00\n      dup1\n        /* \"#utility.yul\":2850:2852   */\n      0x40\n        /* \"#utility.yul\":2838:2847   */\n      dup4\n        /* \"#utility.yul\":2829:2836   */\n      dup6\n        /* \"#utility.yul\":2825:2848   */\n      sub\n        /* \"#utility.yul\":2821:2853   */\n      slt\n        /* \"#utility.yul\":2818:2820   */\n      iszero\n      tag_367\n      jumpi\n        /* \"#utility.yul\":2866:2867   */\n      0x00\n        /* \"#utility.yul\":2863:2864   */\n      dup1\n        /* \"#utility.yul\":2856:2868   */\n      revert\n        /* \"#utility.yul\":2818:2820   */\n    tag_367:\n        /* \"#utility.yul\":2909:2910   */\n      0x00\n        /* \"#utility.yul\":2934:2987   */\n      tag_368\n        /* \"#utility.yul\":2979:2986   */\n      dup6\n        /* \"#utility.yul\":2970:2976   */\n      dup3\n        /* \"#utility.yul\":2959:2968   */\n      dup7\n        /* \"#utility.yul\":2955:2977   */\n      add\n        /* \"#utility.yul\":2934:2987   */\n      tag_334\n      jump\t// in\n    tag_368:\n        /* \"#utility.yul\":2924:2987   */\n      swap3\n      pop\n        /* \"#utility.yul\":2880:2997   */\n      pop\n        /* \"#utility.yul\":3036:3038   */\n      0x20\n        /* \"#utility.yul\":3062:3115   */\n      tag_369\n        /* \"#utility.yul\":3107:3114   */\n      dup6\n        /* \"#utility.yul\":3098:3104   */\n      dup3\n        /* \"#utility.yul\":3087:3096   */\n      dup7\n        /* \"#utility.yul\":3083:3105   */\n      add\n        /* \"#utility.yul\":3062:3115   */\n      tag_346\n      jump\t// in\n    tag_369:\n        /* \"#utility.yul\":3052:3115   */\n      swap2\n      pop\n        /* \"#utility.yul\":3007:3125   */\n      pop\n        /* \"#utility.yul\":2808:3132   */\n      swap3\n      pop\n      swap3\n      swap1\n      pop\n      jump\t// out\n        /* \"#utility.yul\":3138:4062   */\n    tag_109:\n      0x00\n      dup1\n      0x00\n      dup1\n        /* \"#utility.yul\":3317:3320   */\n      0x80\n        /* \"#utility.yul\":3305:3314   */\n      dup6\n        /* \"#utility.yul\":3296:3303   */\n      dup8\n        /* \"#utility.yul\":3292:3315   */\n      sub\n        /* \"#utility.yul\":3288:3321   */\n      slt\n        /* \"#utility.yul\":3285:3287   */\n      iszero\n      tag_371\n      jumpi\n        /* \"#utility.yul\":3334:3335   */\n      0x00\n        /* \"#utility.yul\":3331:3332   */\n      dup1\n        /* \"#utility.yul\":3324:3336   */\n      revert\n        /* \"#utility.yul\":3285:3287   */\n    tag_371:\n        /* \"#utility.yul\":3405:3406   */\n      0x00\n        /* \"#utility.yul\":3394:3403   */\n      dup6\n        /* \"#utility.yul\":3390:3407   */\n      add\n        /* \"#utility.yul\":3377:3408   */\n      calldataload\n        /* \"#utility.yul\":3435:3453   */\n      0xffffffffffffffff\n        /* \"#utility.yul\":3427:3433   */\n      dup2\n        /* \"#utility.yul\":3424:3454   */\n      gt\n        /* \"#utility.yul\":3421:3423   */\n      iszero\n      tag_372\n      jumpi\n        /* \"#utility.yul\":3467:3468   */\n      0x00\n        /* \"#utility.yul\":3464:3465   */\n      dup1\n        /* \"#utility.yul\":3457:3469   */\n      revert\n        /* \"#utility.yul\":3421:3423   */\n    tag_372:\n        /* \"#utility.yul\":3495:3558   */\n      tag_373\n        /* \"#utility.yul\":3550:3557   */\n      dup8\n        /* \"#utility.yul\":3541:3547   */\n      dup3\n        /* \"#utility.yul\":3530:3539   */\n      dup9\n        /* \"#utility.yul\":3526:3548   */\n      add\n        /* \"#utility.yul\":3495:3558   */\n      tag_342\n      jump\t// in\n    tag_373:\n        /* \"#utility.yul\":3485:3558   */\n      swap5\n      pop\n        /* \"#utility.yul\":3348:3568   */\n      pop\n        /* \"#utility.yul\":3635:3637   */\n      0x20\n        /* \"#utility.yul\":3624:3633   */\n      dup6\n        /* \"#utility.yul\":3620:3638   */\n      add\n        /* \"#utility.yul\":3607:3639   */\n      calldataload\n        /* \"#utility.yul\":3666:3684   */\n      0xffffffffffffffff\n        /* \"#utility.yul\":3658:3664   */\n      dup2\n        /* \"#utility.yul\":3655:3685   */\n      gt\n        /* \"#utility.yul\":3652:3654   */\n      iszero\n      tag_374\n      jumpi\n        /* \"#utility.yul\":3698:3699   */\n      0x00\n        /* \"#utility.yul\":3695:3696   */\n      dup1\n        /* \"#utility.yul\":3688:3700   */\n      revert\n        /* \"#utility.yul\":3652:3654   */\n    tag_374:\n        /* \"#utility.yul\":3726:3789   */\n      tag_375\n        /* \"#utility.yul\":3781:3788   */\n      dup8\n        /* \"#utility.yul\":3772:3778   */\n      dup3\n        /* \"#utility.yul\":3761:3770   */\n      dup9\n        /* \"#utility.yul\":3757:3779   */\n      add\n        /* \"#utility.yul\":3726:3789   */\n      tag_342\n      jump\t// in\n    tag_375:\n        /* \"#utility.yul\":3716:3789   */\n      swap4\n      pop\n        /* \"#utility.yul\":3578:3799   */\n      pop\n        /* \"#utility.yul\":3838:3840   */\n      0x40\n        /* \"#utility.yul\":3864:3917   */\n      tag_376\n        /* \"#utility.yul\":3909:3916   */\n      dup8\n        /* \"#utility.yul\":3900:3906   */\n      dup3\n        /* \"#utility.yul\":3889:3898   */\n      dup9\n        /* \"#utility.yul\":3885:3907   */\n      add\n        /* \"#utility.yul\":3864:3917   */\n      tag_334\n      jump\t// in\n    tag_376:\n        /* \"#utility.yul\":3854:3917   */\n      swap3\n      pop\n        /* \"#utility.yul\":3809:3927   */\n      pop\n        /* \"#utility.yul\":3966:3968   */\n      0x60\n        /* \"#utility.yul\":3992:4045   */\n      tag_377\n        /* \"#utility.yul\":4037:4044   */\n      dup8\n        /* \"#utility.yul\":4028:4034   */\n      dup3\n        /* \"#utility.yul\":4017:4026   */\n      dup9\n        /* \"#utility.yul\":4013:4035   */\n      add\n        /* \"#utility.yul\":3992:4045   */\n      tag_346\n      jump\t// in\n    tag_377:\n        /* \"#utility.yul\":3982:4045   */\n      swap2\n      pop\n        /* \"#utility.yul\":3937:4055   */\n      pop\n        /* \"#utility.yul\":3275:4062   */\n      swap3\n      swap6\n      swap2\n      swap5\n      pop\n      swap3\n      pop\n      jump\t// out\n        /* \"#utility.yul\":4068:4330   */\n    tag_65:\n      0x00\n        /* \"#utility.yul\":4176:4178   */\n      0x20\n        /* \"#utility.yul\":4164:4173   */\n      dup3\n        /* \"#utility.yul\":4155:4162   */\n      dup5\n        /* \"#utility.yul\":4151:4174   */\n      sub\n        /* \"#utility.yul\":4147:4179   */\n      slt\n        /* \"#utility.yul\":4144:4146   */\n      iszero\n      tag_379\n      jumpi\n        /* \"#utility.yul\":4192:4193   */\n      0x00\n        /* \"#utility.yul\":4189:4190   */\n      dup1\n        /* \"#utility.yul\":4182:4194   */\n      revert\n        /* \"#utility.yul\":4144:4146   */\n    tag_379:\n        /* \"#utility.yul\":4235:4236   */\n      0x00\n        /* \"#utility.yul\":4260:4313   */\n      tag_380\n        /* \"#utility.yul\":4305:4312   */\n      dup5\n        /* \"#utility.yul\":4296:4302   */\n      dup3\n        /* \"#utility.yul\":4285:4294   */\n      dup6\n        /* \"#utility.yul\":4281:4303   */\n      add\n        /* \"#utility.yul\":4260:4313   */\n      tag_346\n      jump\t// in\n    tag_380:\n        /* \"#utility.yul\":4250:4313   */\n      swap2\n      pop\n        /* \"#utility.yul\":4206:4323   */\n      pop\n        /* \"#utility.yul\":4134:4330   */\n      swap3\n      swap2\n      pop\n      pop\n      jump\t// out\n        /* \"#utility.yul\":4336:4454   */\n    tag_381:\n        /* \"#utility.yul\":4423:4447   */\n      tag_383\n        /* \"#utility.yul\":4441:4446   */\n      dup2\n        /* \"#utility.yul\":4423:4447   */\n      tag_384\n      jump\t// in\n    tag_383:\n        /* \"#utility.yul\":4418:4421   */\n      dup3\n        /* \"#utility.yul\":4411:4448   */\n      mstore\n        /* \"#utility.yul\":4401:4454   */\n      pop\n      pop\n      jump\t// out\n        /* \"#utility.yul\":4460:4569   */\n    tag_385:\n        /* \"#utility.yul\":4541:4562   */\n      tag_387\n        /* \"#utility.yul\":4556:4561   */\n      dup2\n        /* \"#utility.yul\":4541:4562   */\n      tag_388\n      jump\t// in\n    tag_387:\n        /* \"#utility.yul\":4536:4539   */\n      dup3\n        /* \"#utility.yul\":4529:4563   */\n      mstore\n        /* \"#utility.yul\":4519:4569   */\n      pop\n      pop\n      jump\t// out\n        /* \"#utility.yul\":4575:4939   */\n    tag_389:\n      0x00\n        /* \"#utility.yul\":4691:4730   */\n      tag_391\n        /* \"#utility.yul\":4724:4729   */\n      dup3\n        /* \"#utility.yul\":4691:4730   */\n      tag_392\n      jump\t// in\n    tag_391:\n        /* \"#utility.yul\":4746:4817   */\n      tag_393\n        /* \"#utility.yul\":4810:4816   */\n      dup2\n        /* \"#utility.yul\":4805:4808   */\n      dup6\n        /* \"#utility.yul\":4746:4817   */\n      tag_394\n      jump\t// in\n    tag_393:\n        /* \"#utility.yul\":4739:4817   */\n      swap4\n      pop\n        /* \"#utility.yul\":4826:4878   */\n      tag_395\n        /* \"#utility.yul\":4871:4877   */\n      dup2\n        /* \"#utility.yul\":4866:4869   */\n      dup6\n        /* \"#utility.yul\":4859:4863   */\n      0x20\n        /* \"#utility.yul\":4852:4857   */\n      dup7\n        /* \"#utility.yul\":4848:4864   */\n      add\n        /* \"#utility.yul\":4826:4878   */\n      tag_396\n      jump\t// in\n    tag_395:\n        /* \"#utility.yul\":4903:4932   */\n      tag_397\n        /* \"#utility.yul\":4925:4931   */\n      dup2\n        /* \"#utility.yul\":4903:4932   */\n      tag_398\n      jump\t// in\n    tag_397:\n        /* \"#utility.yul\":4898:4901   */\n      dup5\n        /* \"#utility.yul\":4894:4933   */\n      add\n        /* \"#utility.yul\":4887:4933   */\n      swap2\n      pop\n        /* \"#utility.yul\":4667:4939   */\n      pop\n      swap3\n      swap2\n      pop\n      pop\n      jump\t// out\n        /* \"#utility.yul\":4945:5312   */\n    tag_399:\n      0x00\n        /* \"#utility.yul\":5108:5175   */\n      tag_401\n        /* \"#utility.yul\":5172:5174   */\n      0x23\n        /* \"#utility.yul\":5167:5170   */\n      dup4\n        /* \"#utility.yul\":5108:5175   */\n      tag_394\n      jump\t// in\n    tag_401:\n        /* \"#utility.yul\":5101:5175   */\n      swap2\n      pop\n        /* \"#utility.yul\":5205:5239   */\n      0x45524332303a207472616e7366657220746f20746865207a65726f2061646472\n        /* \"#utility.yul\":5201:5202   */\n      0x00\n        /* \"#utility.yul\":5196:5199   */\n      dup4\n        /* \"#utility.yul\":5192:5203   */\n      add\n        /* \"#utility.yul\":5185:5240   */\n      mstore\n        /* \"#utility.yul\":5271:5276   */\n      0x6573730000000000000000000000000000000000000000000000000000000000\n        /* \"#utility.yul\":5266:5268   */\n      0x20\n        /* \"#utility.yul\":5261:5264   */\n      dup4\n        /* \"#utility.yul\":5257:5269   */\n      add\n        /* \"#utility.yul\":5250:5277   */\n      mstore\n        /* \"#utility.yul\":5303:5305   */\n      0x40\n        /* \"#utility.yul\":5298:5301   */\n      dup3\n        /* \"#utility.yul\":5294:5306   */\n      add\n        /* \"#utility.yul\":5287:5306   */\n      swap1\n      pop\n        /* \"#utility.yul\":5091:5312   */\n      swap2\n      swap1\n      pop\n      jump\t// out\n        /* \"#utility.yul\":5318:5684   */\n    tag_402:\n      0x00\n        /* \"#utility.yul\":5481:5548   */\n      tag_404\n        /* \"#utility.yul\":5545:5547   */\n      0x22\n        /* \"#utility.yul\":5540:5543   */\n      dup4\n        /* \"#utility.yul\":5481:5548   */\n      tag_394\n      jump\t// in\n    tag_404:\n        /* \"#utility.yul\":5474:5548   */\n      swap2\n      pop\n        /* \"#utility.yul\":5578:5612   */\n      0x45524332303a206275726e20616d6f756e7420657863656564732062616c616e\n        /* \"#utility.yul\":5574:5575   */\n      0x00\n        /* \"#utility.yul\":5569:5572   */\n      dup4\n        /* \"#utility.yul\":5565:5576   */\n      add\n        /* \"#utility.yul\":5558:5613   */\n      mstore\n        /* \"#utility.yul\":5644:5648   */\n      0x6365000000000000000000000000000000000000000000000000000000000000\n        /* \"#utility.yul\":5639:5641   */\n      0x20\n        /* \"#utility.yul\":5634:5637   */\n      dup4\n        /* \"#utility.yul\":5630:5642   */\n      add\n        /* \"#utility.yul\":5623:5649   */\n      mstore\n        /* \"#utility.yul\":5675:5677   */\n      0x40\n        /* \"#utility.yul\":5670:5673   */\n      dup3\n        /* \"#utility.yul\":5666:5678   */\n      add\n        /* \"#utility.yul\":5659:5678   */\n      swap1\n      pop\n        /* \"#utility.yul\":5464:5684   */\n      swap2\n      swap1\n      pop\n      jump\t// out\n        /* \"#utility.yul\":5690:6060   */\n    tag_405:\n      0x00\n        /* \"#utility.yul\":5853:5920   */\n      tag_407\n        /* \"#utility.yul\":5917:5919   */\n      0x26\n        /* \"#utility.yul\":5912:5915   */\n      dup4\n        /* \"#utility.yul\":5853:5920   */\n      tag_394\n      jump\t// in\n    tag_407:\n        /* \"#utility.yul\":5846:5920   */\n      swap2\n      pop\n        /* \"#utility.yul\":5950:5984   */\n      0x4f776e61626c653a206e6577206f776e657220697320746865207a65726f2061\n        /* \"#utility.yul\":5946:5947   */\n      0x00\n        /* \"#utility.yul\":5941:5944   */\n      dup4\n        /* \"#utility.yul\":5937:5948   */\n      add\n        /* \"#utility.yul\":5930:5985   */\n      mstore\n        /* \"#utility.yul\":6016:6024   */\n      0x6464726573730000000000000000000000000000000000000000000000000000\n        /* \"#utility.yul\":6011:6013   */\n      0x20\n        /* \"#utility.yul\":6006:6009   */\n      dup4\n        /* \"#utility.yul\":6002:6014   */\n      add\n        /* \"#utility.yul\":5995:6025   */\n      mstore\n        /* \"#utility.yul\":6051:6053   */\n      0x40\n        /* \"#utility.yul\":6046:6049   */\n      dup3\n        /* \"#utility.yul\":6042:6054   */\n      add\n        /* \"#utility.yul\":6035:6054   */\n      swap1\n      pop\n        /* \"#utility.yul\":5836:6060   */\n      swap2\n      swap1\n      pop\n      jump\t// out\n        /* \"#utility.yul\":6066:6432   */\n    tag_408:\n      0x00\n        /* \"#utility.yul\":6229:6296   */\n      tag_410\n        /* \"#utility.yul\":6293:6295   */\n      0x22\n        /* \"#utility.yul\":6288:6291   */\n      dup4\n        /* \"#utility.yul\":6229:6296   */\n      tag_394\n      jump\t// in\n    tag_410:\n        /* \"#utility.yul\":6222:6296   */\n      swap2\n      pop\n        /* \"#utility.yul\":6326:6360   */\n      0x45524332303a20617070726f766520746f20746865207a65726f206164647265\n        /* \"#utility.yul\":6322:6323   */\n      0x00\n        /* \"#utility.yul\":6317:6320   */\n      dup4\n        /* \"#utility.yul\":6313:6324   */\n      add\n        /* \"#utility.yul\":6306:6361   */\n      mstore\n        /* \"#utility.yul\":6392:6396   */\n      0x7373000000000000000000000000000000000000000000000000000000000000\n        /* \"#utility.yul\":6387:6389   */\n      0x20\n        /* \"#utility.yul\":6382:6385   */\n      dup4\n        /* \"#utility.yul\":6378:6390   */\n      add\n        /* \"#utility.yul\":6371:6397   */\n      mstore\n        /* \"#utility.yul\":6423:6425   */\n      0x40\n        /* \"#utility.yul\":6418:6421   */\n      dup3\n        /* \"#utility.yul\":6414:6426   */\n      add\n        /* \"#utility.yul\":6407:6426   */\n      swap1\n      pop\n        /* \"#utility.yul\":6212:6432   */\n      swap2\n      swap1\n      pop\n      jump\t// out\n        /* \"#utility.yul\":6438:6808   */\n    tag_411:\n      0x00\n        /* \"#utility.yul\":6601:6668   */\n      tag_413\n        /* \"#utility.yul\":6665:6667   */\n      0x26\n        /* \"#utility.yul\":6660:6663   */\n      dup4\n        /* \"#utility.yul\":6601:6668   */\n      tag_394\n      jump\t// in\n    tag_413:\n        /* \"#utility.yul\":6594:6668   */\n      swap2\n      pop\n        /* \"#utility.yul\":6698:6732   */\n      0x45524332303a207472616e7366657220616d6f756e7420657863656564732062\n        /* \"#utility.yul\":6694:6695   */\n      0x00\n        /* \"#utility.yul\":6689:6692   */\n      dup4\n        /* \"#utility.yul\":6685:6696   */\n      add\n        /* \"#utility.yul\":6678:6733   */\n      mstore\n        /* \"#utility.yul\":6764:6772   */\n      0x616c616e63650000000000000000000000000000000000000000000000000000\n        /* \"#utility.yul\":6759:6761   */\n      0x20\n        /* \"#utility.yul\":6754:6757   */\n      dup4\n        /* \"#utility.yul\":6750:6762   */\n      add\n        /* \"#utility.yul\":6743:6773   */\n      mstore\n        /* \"#utility.yul\":6799:6801   */\n      0x40\n        /* \"#utility.yul\":6794:6797   */\n      dup3\n        /* \"#utility.yul\":6790:6802   */\n      add\n        /* \"#utility.yul\":6783:6802   */\n      swap1\n      pop\n        /* \"#utility.yul\":6584:6808   */\n      swap2\n      swap1\n      pop\n      jump\t// out\n        /* \"#utility.yul\":6814:7182   */\n    tag_414:\n      0x00\n        /* \"#utility.yul\":6977:7044   */\n      tag_416\n        /* \"#utility.yul\":7041:7043   */\n      0x24\n        /* \"#utility.yul\":7036:7039   */\n      dup4\n        /* \"#utility.yul\":6977:7044   */\n      tag_394\n      jump\t// in\n    tag_416:\n        /* \"#utility.yul\":6970:7044   */\n      swap2\n      pop\n        /* \"#utility.yul\":7074:7108   */\n      0x6578656375746f723a2063616c6c6572206973206e6f74207468652065786563\n        /* \"#utility.yul\":7070:7071   */\n      0x00\n        /* \"#utility.yul\":7065:7068   */\n      dup4\n        /* \"#utility.yul\":7061:7072   */\n      add\n        /* \"#utility.yul\":7054:7109   */\n      mstore\n        /* \"#utility.yul\":7140:7146   */\n      0x75746f7200000000000000000000000000000000000000000000000000000000\n        /* \"#utility.yul\":7135:7137   */\n      0x20\n        /* \"#utility.yul\":7130:7133   */\n      dup4\n        /* \"#utility.yul\":7126:7138   */\n      add\n        /* \"#utility.yul\":7119:7147   */\n      mstore\n        /* \"#utility.yul\":7173:7175   */\n      0x40\n        /* \"#utility.yul\":7168:7171   */\n      dup3\n        /* \"#utility.yul\":7164:7176   */\n      add\n        /* \"#utility.yul\":7157:7176   */\n      swap1\n      pop\n        /* \"#utility.yul\":6960:7182   */\n      swap2\n      swap1\n      pop\n      jump\t// out\n        /* \"#utility.yul\":7188:7566   */\n    tag_417:\n      0x00\n        /* \"#utility.yul\":7351:7418   */\n      tag_419\n        /* \"#utility.yul\":7415:7417   */\n      0x2e\n        /* \"#utility.yul\":7410:7413   */\n      dup4\n        /* \"#utility.yul\":7351:7418   */\n      tag_394\n      jump\t// in\n    tag_419:\n        /* \"#utility.yul\":7344:7418   */\n      swap2\n      pop\n        /* \"#utility.yul\":7448:7482   */\n      0x496e697469616c697a61626c653a20636f6e747261637420697320616c726561\n        /* \"#utility.yul\":7444:7445   */\n      0x00\n        /* \"#utility.yul\":7439:7442   */\n      dup4\n        /* \"#utility.yul\":7435:7446   */\n      add\n        /* \"#utility.yul\":7428:7483   */\n      mstore\n        /* \"#utility.yul\":7514:7530   */\n      0x647920696e697469616c697a6564000000000000000000000000000000000000\n        /* \"#utility.yul\":7509:7511   */\n      0x20\n        /* \"#utility.yul\":7504:7507   */\n      dup4\n        /* \"#utility.yul\":7500:7512   */\n      add\n        /* \"#utility.yul\":7493:7531   */\n      mstore\n        /* \"#utility.yul\":7557:7559   */\n      0x40\n        /* \"#utility.yul\":7552:7555   */\n      dup3\n        /* \"#utility.yul\":7548:7560   */\n      add\n        /* \"#utility.yul\":7541:7560   */\n      swap1\n      pop\n        /* \"#utility.yul\":7334:7566   */\n      swap2\n      swap1\n      pop\n      jump\t// out\n        /* \"#utility.yul\":7572:7944   */\n    tag_420:\n      0x00\n        /* \"#utility.yul\":7735:7802   */\n      tag_422\n        /* \"#utility.yul\":7799:7801   */\n      0x28\n        /* \"#utility.yul\":7794:7797   */\n      dup4\n        /* \"#utility.yul\":7735:7802   */\n      tag_394\n      jump\t// in\n    tag_422:\n        /* \"#utility.yul\":7728:7802   */\n      swap2\n      pop\n        /* \"#utility.yul\":7832:7866   */\n      0x45524332303a207472616e7366657220616d6f756e7420657863656564732061\n        /* \"#utility.yul\":7828:7829   */\n      0x00\n        /* \"#utility.yul\":7823:7826   */\n      dup4\n        /* \"#utility.yul\":7819:7830   */\n      add\n        /* \"#utility.yul\":7812:7867   */\n      mstore\n        /* \"#utility.yul\":7898:7908   */\n      0x6c6c6f77616e6365000000000000000000000000000000000000000000000000\n        /* \"#utility.yul\":7893:7895   */\n      0x20\n        /* \"#utility.yul\":7888:7891   */\n      dup4\n        /* \"#utility.yul\":7884:7896   */\n      add\n        /* \"#utility.yul\":7877:7909   */\n      mstore\n        /* \"#utility.yul\":7935:7937   */\n      0x40\n        /* \"#utility.yul\":7930:7933   */\n      dup3\n        /* \"#utility.yul\":7926:7938   */\n      add\n        /* \"#utility.yul\":7919:7938   */\n      swap1\n      pop\n        /* \"#utility.yul\":7718:7944   */\n      swap2\n      swap1\n      pop\n      jump\t// out\n        /* \"#utility.yul\":7950:8280   */\n    tag_423:\n      0x00\n        /* \"#utility.yul\":8113:8180   */\n      tag_425\n        /* \"#utility.yul\":8177:8179   */\n      0x20\n        /* \"#utility.yul\":8172:8175   */\n      dup4\n        /* \"#utility.yul\":8113:8180   */\n      tag_394\n      jump\t// in\n    tag_425:\n        /* \"#utility.yul\":8106:8180   */\n      swap2\n      pop\n        /* \"#utility.yul\":8210:8244   */\n      0x4f776e61626c653a2063616c6c6572206973206e6f7420746865206f776e6572\n        /* \"#utility.yul\":8206:8207   */\n      0x00\n        /* \"#utility.yul\":8201:8204   */\n      dup4\n        /* \"#utility.yul\":8197:8208   */\n      add\n        /* \"#utility.yul\":8190:8245   */\n      mstore\n        /* \"#utility.yul\":8271:8273   */\n      0x20\n        /* \"#utility.yul\":8266:8269   */\n      dup3\n        /* \"#utility.yul\":8262:8274   */\n      add\n        /* \"#utility.yul\":8255:8274   */\n      swap1\n      pop\n        /* \"#utility.yul\":8096:8280   */\n      swap2\n      swap1\n      pop\n      jump\t// out\n        /* \"#utility.yul\":8286:8651   */\n    tag_426:\n      0x00\n        /* \"#utility.yul\":8449:8516   */\n      tag_428\n        /* \"#utility.yul\":8513:8515   */\n      0x21\n        /* \"#utility.yul\":8508:8511   */\n      dup4\n        /* \"#utility.yul\":8449:8516   */\n      tag_394\n      jump\t// in\n    tag_428:\n        /* \"#utility.yul\":8442:8516   */\n      swap2\n      pop\n        /* \"#utility.yul\":8546:8580   */\n      0x45524332303a206275726e2066726f6d20746865207a65726f20616464726573\n        /* \"#utility.yul\":8542:8543   */\n      0x00\n        /* \"#utility.yul\":8537:8540   */\n      dup4\n        /* \"#utility.yul\":8533:8544   */\n      add\n        /* \"#utility.yul\":8526:8581   */\n      mstore\n        /* \"#utility.yul\":8612:8615   */\n      0x7300000000000000000000000000000000000000000000000000000000000000\n        /* \"#utility.yul\":8607:8609   */\n      0x20\n        /* \"#utility.yul\":8602:8605   */\n      dup4\n        /* \"#utility.yul\":8598:8610   */\n      add\n        /* \"#utility.yul\":8591:8616   */\n      mstore\n        /* \"#utility.yul\":8642:8644   */\n      0x40\n        /* \"#utility.yul\":8637:8640   */\n      dup3\n        /* \"#utility.yul\":8633:8645   */\n      add\n        /* \"#utility.yul\":8626:8645   */\n      swap1\n      pop\n        /* \"#utility.yul\":8432:8651   */\n      swap2\n      swap1\n      pop\n      jump\t// out\n        /* \"#utility.yul\":8657:9026   */\n    tag_429:\n      0x00\n        /* \"#utility.yul\":8820:8887   */\n      tag_431\n        /* \"#utility.yul\":8884:8886   */\n      0x25\n        /* \"#utility.yul\":8879:8882   */\n      dup4\n        /* \"#utility.yul\":8820:8887   */\n      tag_394\n      jump\t// in\n    tag_431:\n        /* \"#utility.yul\":8813:8887   */\n      swap2\n      pop\n        /* \"#utility.yul\":8917:8951   */\n      0x45524332303a207472616e736665722066726f6d20746865207a65726f206164\n        /* \"#utility.yul\":8913:8914   */\n      0x00\n        /* \"#utility.yul\":8908:8911   */\n      dup4\n        /* \"#utility.yul\":8904:8915   */\n      add\n        /* \"#utility.yul\":8897:8952   */\n      mstore\n        /* \"#utility.yul\":8983:8990   */\n      0x6472657373000000000000000000000000000000000000000000000000000000\n        /* \"#utility.yul\":8978:8980   */\n      0x20\n        /* \"#utility.yul\":8973:8976   */\n      dup4\n        /* \"#utility.yul\":8969:8981   */\n      add\n        /* \"#utility.yul\":8962:8991   */\n      mstore\n        /* \"#utility.yul\":9017:9019   */\n      0x40\n        /* \"#utility.yul\":9012:9015   */\n      dup3\n        /* \"#utility.yul\":9008:9020   */\n      add\n        /* \"#utility.yul\":9001:9020   */\n      swap1\n      pop\n        /* \"#utility.yul\":8803:9026   */\n      swap2\n      swap1\n      pop\n      jump\t// out\n        /* \"#utility.yul\":9032:9400   */\n    tag_432:\n      0x00\n        /* \"#utility.yul\":9195:9262   */\n      tag_434\n        /* \"#utility.yul\":9259:9261   */\n      0x24\n        /* \"#utility.yul\":9254:9257   */\n      dup4\n        /* \"#utility.yul\":9195:9262   */\n      tag_394\n      jump\t// in\n    tag_434:\n        /* \"#utility.yul\":9188:9262   */\n      swap2\n      pop\n        /* \"#utility.yul\":9292:9326   */\n      0x45524332303a20617070726f76652066726f6d20746865207a65726f20616464\n        /* \"#utility.yul\":9288:9289   */\n      0x00\n        /* \"#utility.yul\":9283:9286   */\n      dup4\n        /* \"#utility.yul\":9279:9290   */\n      add\n        /* \"#utility.yul\":9272:9327   */\n      mstore\n        /* \"#utility.yul\":9358:9364   */\n      0x7265737300000000000000000000000000000000000000000000000000000000\n        /* \"#utility.yul\":9353:9355   */\n      0x20\n        /* \"#utility.yul\":9348:9351   */\n      dup4\n        /* \"#utility.yul\":9344:9356   */\n      add\n        /* \"#utility.yul\":9337:9365   */\n      mstore\n        /* \"#utility.yul\":9391:9393   */\n      0x40\n        /* \"#utility.yul\":9386:9389   */\n      dup3\n        /* \"#utility.yul\":9382:9394   */\n      add\n        /* \"#utility.yul\":9375:9394   */\n      swap1\n      pop\n        /* \"#utility.yul\":9178:9400   */\n      swap2\n      swap1\n      pop\n      jump\t// out\n        /* \"#utility.yul\":9406:9775   */\n    tag_435:\n      0x00\n        /* \"#utility.yul\":9569:9636   */\n      tag_437\n        /* \"#utility.yul\":9633:9635   */\n      0x25\n        /* \"#utility.yul\":9628:9631   */\n      dup4\n        /* \"#utility.yul\":9569:9636   */\n      tag_394\n      jump\t// in\n    tag_437:\n        /* \"#utility.yul\":9562:9636   */\n      swap2\n      pop\n        /* \"#utility.yul\":9666:9700   */\n      0x45524332303a2064656372656173656420616c6c6f77616e63652062656c6f77\n        /* \"#utility.yul\":9662:9663   */\n      0x00\n        /* \"#utility.yul\":9657:9660   */\n      dup4\n        /* \"#utility.yul\":9653:9664   */\n      add\n        /* \"#utility.yul\":9646:9701   */\n      mstore\n        /* \"#utility.yul\":9732:9739   */\n      0x207a65726f000000000000000000000000000000000000000000000000000000\n        /* \"#utility.yul\":9727:9729   */\n      0x20\n        /* \"#utility.yul\":9722:9725   */\n      dup4\n        /* \"#utility.yul\":9718:9730   */\n      add\n        /* \"#utility.yul\":9711:9740   */\n      mstore\n        /* \"#utility.yul\":9766:9768   */\n      0x40\n        /* \"#utility.yul\":9761:9764   */\n      dup3\n        /* \"#utility.yul\":9757:9769   */\n      add\n        /* \"#utility.yul\":9750:9769   */\n      swap1\n      pop\n        /* \"#utility.yul\":9552:9775   */\n      swap2\n      swap1\n      pop\n      jump\t// out\n        /* \"#utility.yul\":9781:10110   */\n    tag_438:\n      0x00\n        /* \"#utility.yul\":9944:10011   */\n      tag_440\n        /* \"#utility.yul\":10008:10010   */\n      0x1f\n        /* \"#utility.yul\":10003:10006   */\n      dup4\n        /* \"#utility.yul\":9944:10011   */\n      tag_394\n      jump\t// in\n    tag_440:\n        /* \"#utility.yul\":9937:10011   */\n      swap2\n      pop\n        /* \"#utility.yul\":10041:10074   */\n      0x45524332303a206d696e7420746f20746865207a65726f206164647265737300\n        /* \"#utility.yul\":10037:10038   */\n      0x00\n        /* \"#utility.yul\":10032:10035   */\n      dup4\n        /* \"#utility.yul\":10028:10039   */\n      add\n        /* \"#utility.yul\":10021:10075   */\n      mstore\n        /* \"#utility.yul\":10101:10103   */\n      0x20\n        /* \"#utility.yul\":10096:10099   */\n      dup3\n        /* \"#utility.yul\":10092:10104   */\n      add\n        /* \"#utility.yul\":10085:10104   */\n      swap1\n      pop\n        /* \"#utility.yul\":9927:10110   */\n      swap2\n      swap1\n      pop\n      jump\t// out\n        /* \"#utility.yul\":10116:10234   */\n    tag_441:\n        /* \"#utility.yul\":10203:10227   */\n      tag_443\n        /* \"#utility.yul\":10221:10226   */\n      dup2\n        /* \"#utility.yul\":10203:10227   */\n      tag_444\n      jump\t// in\n    tag_443:\n        /* \"#utility.yul\":10198:10201   */\n      dup3\n        /* \"#utility.yul\":10191:10228   */\n      mstore\n        /* \"#utility.yul\":10181:10234   */\n      pop\n      pop\n      jump\t// out\n        /* \"#utility.yul\":10240:10352   */\n    tag_445:\n        /* \"#utility.yul\":10323:10345   */\n      tag_447\n        /* \"#utility.yul\":10339:10344   */\n      dup2\n        /* \"#utility.yul\":10323:10345   */\n      tag_448\n      jump\t// in\n    tag_447:\n        /* \"#utility.yul\":10318:10321   */\n      dup3\n        /* \"#utility.yul\":10311:10346   */\n      mstore\n        /* \"#utility.yul\":10301:10352   */\n      pop\n      pop\n      jump\t// out\n        /* \"#utility.yul\":10358:10580   */\n    tag_84:\n      0x00\n        /* \"#utility.yul\":10489:10491   */\n      0x20\n        /* \"#utility.yul\":10478:10487   */\n      dup3\n        /* \"#utility.yul\":10474:10492   */\n      add\n        /* \"#utility.yul\":10466:10492   */\n      swap1\n      pop\n        /* \"#utility.yul\":10502:10573   */\n      tag_450\n        /* \"#utility.yul\":10570:10571   */\n      0x00\n        /* \"#utility.yul\":10559:10568   */\n      dup4\n        /* \"#utility.yul\":10555:10572   */\n      add\n        /* \"#utility.yul\":10546:10552   */\n      dup5\n        /* \"#utility.yul\":10502:10573   */\n      tag_381\n      jump\t// in\n    tag_450:\n        /* \"#utility.yul\":10456:10580   */\n      swap3\n      swap2\n      pop\n      pop\n      jump\t// out\n        /* \"#utility.yul\":10586:10796   */\n    tag_36:\n      0x00\n        /* \"#utility.yul\":10711:10713   */\n      0x20\n        /* \"#utility.yul\":10700:10709   */\n      dup3\n        /* \"#utility.yul\":10696:10714   */\n      add\n        /* \"#utility.yul\":10688:10714   */\n      swap1\n      pop\n        /* \"#utility.yul\":10724:10789   */\n      tag_452\n        /* \"#utility.yul\":10786:10787   */\n      0x00\n        /* \"#utility.yul\":10775:10784   */\n      dup4\n        /* \"#utility.yul\":10771:10788   */\n      add\n        /* \"#utility.yul\":10762:10768   */\n      dup5\n        /* \"#utility.yul\":10724:10789   */\n      tag_385\n      jump\t// in\n    tag_452:\n        /* \"#utility.yul\":10678:10796   */\n      swap3\n      swap2\n      pop\n      pop\n      jump\t// out\n        /* \"#utility.yul\":10802:11115   */\n    tag_30:\n      0x00\n        /* \"#utility.yul\":10953:10955   */\n      0x20\n        /* \"#utility.yul\":10942:10951   */\n      dup3\n        /* \"#utility.yul\":10938:10956   */\n      add\n        /* \"#utility.yul\":10930:10956   */\n      swap1\n      pop\n        /* \"#utility.yul\":11002:11011   */\n      dup2\n        /* \"#utility.yul\":10996:11000   */\n      dup2\n        /* \"#utility.yul\":10992:11012   */\n      sub\n        /* \"#utility.yul\":10988:10989   */\n      0x00\n        /* \"#utility.yul\":10977:10986   */\n      dup4\n        /* \"#utility.yul\":10973:10990   */\n      add\n        /* \"#utility.yul\":10966:11013   */\n      mstore\n        /* \"#utility.yul\":11030:11108   */\n      tag_454\n        /* \"#utility.yul\":11103:11107   */\n      dup2\n        /* \"#utility.yul\":11094:11100   */\n      dup5\n        /* \"#utility.yul\":11030:11108   */\n      tag_389\n      jump\t// in\n    tag_454:\n        /* \"#utility.yul\":11022:11108   */\n      swap1\n      pop\n        /* \"#utility.yul\":10920:11115   */\n      swap3\n      swap2\n      pop\n      pop\n      jump\t// out\n        /* \"#utility.yul\":11121:11540   */\n    tag_230:\n      0x00\n        /* \"#utility.yul\":11325:11327   */\n      0x20\n        /* \"#utility.yul\":11314:11323   */\n      dup3\n        /* \"#utility.yul\":11310:11328   */\n      add\n        /* \"#utility.yul\":11302:11328   */\n      swap1\n      pop\n        /* \"#utility.yul\":11374:11383   */\n      dup2\n        /* \"#utility.yul\":11368:11372   */\n      dup2\n        /* \"#utility.yul\":11364:11384   */\n      sub\n        /* \"#utility.yul\":11360:11361   */\n      0x00\n        /* \"#utility.yul\":11349:11358   */\n      dup4\n        /* \"#utility.yul\":11345:11362   */\n      add\n        /* \"#utility.yul\":11338:11385   */\n      mstore\n        /* \"#utility.yul\":11402:11533   */\n      tag_456\n        /* \"#utility.yul\":11528:11532   */\n      dup2\n        /* \"#utility.yul\":11402:11533   */\n      tag_399\n      jump\t// in\n    tag_456:\n        /* \"#utility.yul\":11394:11533   */\n      swap1\n      pop\n        /* \"#utility.yul\":11292:11540   */\n      swap2\n      swap1\n      pop\n      jump\t// out\n        /* \"#utility.yul\":11546:11965   */\n    tag_256:\n      0x00\n        /* \"#utility.yul\":11750:11752   */\n      0x20\n        /* \"#utility.yul\":11739:11748   */\n      dup3\n        /* \"#utility.yul\":11735:11753   */\n      add\n        /* \"#utility.yul\":11727:11753   */\n      swap1\n      pop\n        /* \"#utility.yul\":11799:11808   */\n      dup2\n        /* \"#utility.yul\":11793:11797   */\n      dup2\n        /* \"#utility.yul\":11789:11809   */\n      sub\n        /* \"#utility.yul\":11785:11786   */\n      0x00\n        /* \"#utility.yul\":11774:11783   */\n      dup4\n        /* \"#utility.yul\":11770:11787   */\n      add\n        /* \"#utility.yul\":11763:11810   */\n      mstore\n        /* \"#utility.yul\":11827:11958   */\n      tag_458\n        /* \"#utility.yul\":11953:11957   */\n      dup2\n        /* \"#utility.yul\":11827:11958   */\n      tag_402\n      jump\t// in\n    tag_458:\n        /* \"#utility.yul\":11819:11958   */\n      swap1\n      pop\n        /* \"#utility.yul\":11717:11965   */\n      swap2\n      swap1\n      pop\n      jump\t// out\n        /* \"#utility.yul\":11971:12390   */\n    tag_200:\n      0x00\n        /* \"#utility.yul\":12175:12177   */\n      0x20\n        /* \"#utility.yul\":12164:12173   */\n      dup3\n        /* \"#utility.yul\":12160:12178   */\n      add\n        /* \"#utility.yul\":12152:12178   */\n      swap1\n      pop\n        /* \"#utility.yul\":12224:12233   */\n      dup2\n        /* \"#utility.yul\":12218:12222   */\n      dup2\n        /* \"#utility.yul\":12214:12234   */\n      sub\n        /* \"#utility.yul\":12210:12211   */\n      0x00\n        /* \"#utility.yul\":12199:12208   */\n      dup4\n        /* \"#utility.yul\":12195:12212   */\n      add\n        /* \"#utility.yul\":12188:12235   */\n      mstore\n        /* \"#utility.yul\":12252:12383   */\n      tag_460\n        /* \"#utility.yul\":12378:12382   */\n      dup2\n        /* \"#utility.yul\":12252:12383   */\n      tag_405\n      jump\t// in\n    tag_460:\n        /* \"#utility.yul\":12244:12383   */\n      swap1\n      pop\n        /* \"#utility.yul\":12142:12390   */\n      swap2\n      swap1\n      pop\n      jump\t// out\n        /* \"#utility.yul\":12396:12815   */\n    tag_222:\n      0x00\n        /* \"#utility.yul\":12600:12602   */\n      0x20\n        /* \"#utility.yul\":12589:12598   */\n      dup3\n        /* \"#utility.yul\":12585:12603   */\n      add\n        /* \"#utility.yul\":12577:12603   */\n      swap1\n      pop\n        /* \"#utility.yul\":12649:12658   */\n      dup2\n        /* \"#utility.yul\":12643:12647   */\n      dup2\n        /* \"#utility.yul\":12639:12659   */\n      sub\n        /* \"#utility.yul\":12635:12636   */\n      0x00\n        /* \"#utility.yul\":12624:12633   */\n      dup4\n        /* \"#utility.yul\":12620:12637   */\n      add\n        /* \"#utility.yul\":12613:12660   */\n      mstore\n        /* \"#utility.yul\":12677:12808   */\n      tag_462\n        /* \"#utility.yul\":12803:12807   */\n      dup2\n        /* \"#utility.yul\":12677:12808   */\n      tag_408\n      jump\t// in\n    tag_462:\n        /* \"#utility.yul\":12669:12808   */\n      swap1\n      pop\n        /* \"#utility.yul\":12567:12815   */\n      swap2\n      swap1\n      pop\n      jump\t// out\n        /* \"#utility.yul\":12821:13240   */\n    tag_235:\n      0x00\n        /* \"#utility.yul\":13025:13027   */\n      0x20\n        /* \"#utility.yul\":13014:13023   */\n      dup3\n        /* \"#utility.yul\":13010:13028   */\n      add\n        /* \"#utility.yul\":13002:13028   */\n      swap1\n      pop\n        /* \"#utility.yul\":13074:13083   */\n      dup2\n        /* \"#utility.yul\":13068:13072   */\n      dup2\n        /* \"#utility.yul\":13064:13084   */\n      sub\n        /* \"#utility.yul\":13060:13061   */\n      0x00\n        /* \"#utility.yul\":13049:13058   */\n      dup4\n        /* \"#utility.yul\":13045:13062   */\n      add\n        /* \"#utility.yul\":13038:13085   */\n      mstore\n        /* \"#utility.yul\":13102:13233   */\n      tag_464\n        /* \"#utility.yul\":13228:13232   */\n      dup2\n        /* \"#utility.yul\":13102:13233   */\n      tag_411\n      jump\t// in\n    tag_464:\n        /* \"#utility.yul\":13094:13233   */\n      swap1\n      pop\n        /* \"#utility.yul\":12992:13240   */\n      swap2\n      swap1\n      pop\n      jump\t// out\n        /* \"#utility.yul\":13246:13665   */\n    tag_150:\n      0x00\n        /* \"#utility.yul\":13450:13452   */\n      0x20\n        /* \"#utility.yul\":13439:13448   */\n      dup3\n        /* \"#utility.yul\":13435:13453   */\n      add\n        /* \"#utility.yul\":13427:13453   */\n      swap1\n      pop\n        /* \"#utility.yul\":13499:13508   */\n      dup2\n        /* \"#utility.yul\":13493:13497   */\n      dup2\n        /* \"#utility.yul\":13489:13509   */\n      sub\n        /* \"#utility.yul\":13485:13486   */\n      0x00\n        /* \"#utility.yul\":13474:13483   */\n      dup4\n        /* \"#utility.yul\":13470:13487   */\n      add\n        /* \"#utility.yul\":13463:13510   */\n      mstore\n        /* \"#utility.yul\":13527:13658   */\n      tag_466\n        /* \"#utility.yul\":13653:13657   */\n      dup2\n        /* \"#utility.yul\":13527:13658   */\n      tag_414\n      jump\t// in\n    tag_466:\n        /* \"#utility.yul\":13519:13658   */\n      swap1\n      pop\n        /* \"#utility.yul\":13417:13665   */\n      swap2\n      swap1\n      pop\n      jump\t// out\n        /* \"#utility.yul\":13671:14090   */\n    tag_206:\n      0x00\n        /* \"#utility.yul\":13875:13877   */\n      0x20\n        /* \"#utility.yul\":13864:13873   */\n      dup3\n        /* \"#utility.yul\":13860:13878   */\n      add\n        /* \"#utility.yul\":13852:13878   */\n      swap1\n      pop\n        /* \"#utility.yul\":13924:13933   */\n      dup2\n        /* \"#utility.yul\":13918:13922   */\n      dup2\n        /* \"#utility.yul\":13914:13934   */\n      sub\n        /* \"#utility.yul\":13910:13911   */\n      0x00\n        /* \"#utility.yul\":13899:13908   */\n      dup4\n        /* \"#utility.yul\":13895:13912   */\n      add\n        /* \"#utility.yul\":13888:13935   */\n      mstore\n        /* \"#utility.yul\":13952:14083   */\n      tag_468\n        /* \"#utility.yul\":14078:14082   */\n      dup2\n        /* \"#utility.yul\":13952:14083   */\n      tag_417\n      jump\t// in\n    tag_468:\n        /* \"#utility.yul\":13944:14083   */\n      swap1\n      pop\n        /* \"#utility.yul\":13842:14090   */\n      swap2\n      swap1\n      pop\n      jump\t// out\n        /* \"#utility.yul\":14096:14515   */\n    tag_137:\n      0x00\n        /* \"#utility.yul\":14300:14302   */\n      0x20\n        /* \"#utility.yul\":14289:14298   */\n      dup3\n        /* \"#utility.yul\":14285:14303   */\n      add\n        /* \"#utility.yul\":14277:14303   */\n      swap1\n      pop\n        /* \"#utility.yul\":14349:14358   */\n      dup2\n        /* \"#utility.yul\":14343:14347   */\n      dup2\n        /* \"#utility.yul\":14339:14359   */\n      sub\n        /* \"#utility.yul\":14335:14336   */\n      0x00\n        /* \"#utility.yul\":14324:14333   */\n      dup4\n        /* \"#utility.yul\":14320:14337   */\n      add\n        /* \"#utility.yul\":14313:14360   */\n      mstore\n        /* \"#utility.yul\":14377:14508   */\n      tag_470\n        /* \"#utility.yul\":14503:14507   */\n      dup2\n        /* \"#utility.yul\":14377:14508   */\n      tag_420\n      jump\t// in\n    tag_470:\n        /* \"#utility.yul\":14369:14508   */\n      swap1\n      pop\n        /* \"#utility.yul\":14267:14515   */\n      swap2\n      swap1\n      pop\n      jump\t// out\n        /* \"#utility.yul\":14521:14940   */\n    tag_129:\n      0x00\n        /* \"#utility.yul\":14725:14727   */\n      0x20\n        /* \"#utility.yul\":14714:14723   */\n      dup3\n        /* \"#utility.yul\":14710:14728   */\n      add\n        /* \"#utility.yul\":14702:14728   */\n      swap1\n      pop\n        /* \"#utility.yul\":14774:14783   */\n      dup2\n        /* \"#utility.yul\":14768:14772   */\n      dup2\n        /* \"#utility.yul\":14764:14784   */\n      sub\n        /* \"#utility.yul\":14760:14761   */\n      0x00\n        /* \"#utility.yul\":14749:14758   */\n      dup4\n        /* \"#utility.yul\":14745:14762   */\n      add\n        /* \"#utility.yul\":14738:14785   */\n      mstore\n        /* \"#utility.yul\":14802:14933   */\n      tag_472\n        /* \"#utility.yul\":14928:14932   */\n      dup2\n        /* \"#utility.yul\":14802:14933   */\n      tag_423\n      jump\t// in\n    tag_472:\n        /* \"#utility.yul\":14794:14933   */\n      swap1\n      pop\n        /* \"#utility.yul\":14692:14940   */\n      swap2\n      swap1\n      pop\n      jump\t// out\n        /* \"#utility.yul\":14946:15365   */\n    tag_252:\n      0x00\n        /* \"#utility.yul\":15150:15152   */\n      0x20\n        /* \"#utility.yul\":15139:15148   */\n      dup3\n        /* \"#utility.yul\":15135:15153   */\n      add\n        /* \"#utility.yul\":15127:15153   */\n      swap1\n      pop\n        /* \"#utility.yul\":15199:15208   */\n      dup2\n        /* \"#utility.yul\":15193:15197   */\n      dup2\n        /* \"#utility.yul\":15189:15209   */\n      sub\n        /* \"#utility.yul\":15185:15186   */\n      0x00\n        /* \"#utility.yul\":15174:15183   */\n      dup4\n        /* \"#utility.yul\":15170:15187   */\n      add\n        /* \"#utility.yul\":15163:15210   */\n      mstore\n        /* \"#utility.yul\":15227:15358   */\n      tag_474\n        /* \"#utility.yul\":15353:15357   */\n      dup2\n        /* \"#utility.yul\":15227:15358   */\n      tag_426\n      jump\t// in\n    tag_474:\n        /* \"#utility.yul\":15219:15358   */\n      swap1\n      pop\n        /* \"#utility.yul\":15117:15365   */\n      swap2\n      swap1\n      pop\n      jump\t// out\n        /* \"#utility.yul\":15371:15790   */\n    tag_227:\n      0x00\n        /* \"#utility.yul\":15575:15577   */\n      0x20\n        /* \"#utility.yul\":15564:15573   */\n      dup3\n        /* \"#utility.yul\":15560:15578   */\n      add\n        /* \"#utility.yul\":15552:15578   */\n      swap1\n      pop\n        /* \"#utility.yul\":15624:15633   */\n      dup2\n        /* \"#utility.yul\":15618:15622   */\n      dup2\n        /* \"#utility.yul\":15614:15634   */\n      sub\n        /* \"#utility.yul\":15610:15611   */\n      0x00\n        /* \"#utility.yul\":15599:15608   */\n      dup4\n        /* \"#utility.yul\":15595:15612   */\n      add\n        /* \"#utility.yul\":15588:15635   */\n      mstore\n        /* \"#utility.yul\":15652:15783   */\n      tag_476\n        /* \"#utility.yul\":15778:15782   */\n      dup2\n        /* \"#utility.yul\":15652:15783   */\n      tag_429\n      jump\t// in\n    tag_476:\n        /* \"#utility.yul\":15644:15783   */\n      swap1\n      pop\n        /* \"#utility.yul\":15542:15790   */\n      swap2\n      swap1\n      pop\n      jump\t// out\n        /* \"#utility.yul\":15796:16215   */\n    tag_219:\n      0x00\n        /* \"#utility.yul\":16000:16002   */\n      0x20\n        /* \"#utility.yul\":15989:15998   */\n      dup3\n        /* \"#utility.yul\":15985:16003   */\n      add\n        /* \"#utility.yul\":15977:16003   */\n      swap1\n      pop\n        /* \"#utility.yul\":16049:16058   */\n      dup2\n        /* \"#utility.yul\":16043:16047   */\n      dup2\n        /* \"#utility.yul\":16039:16059   */\n      sub\n        /* \"#utility.yul\":16035:16036   */\n      0x00\n        /* \"#utility.yul\":16024:16033   */\n      dup4\n        /* \"#utility.yul\":16020:16037   */\n      add\n        /* \"#utility.yul\":16013:16060   */\n      mstore\n        /* \"#utility.yul\":16077:16208   */\n      tag_478\n        /* \"#utility.yul\":16203:16207   */\n      dup2\n        /* \"#utility.yul\":16077:16208   */\n      tag_432\n      jump\t// in\n    tag_478:\n        /* \"#utility.yul\":16069:16208   */\n      swap1\n      pop\n        /* \"#utility.yul\":15967:16215   */\n      swap2\n      swap1\n      pop\n      jump\t// out\n        /* \"#utility.yul\":16221:16640   */\n    tag_185:\n      0x00\n        /* \"#utility.yul\":16425:16427   */\n      0x20\n        /* \"#utility.yul\":16414:16423   */\n      dup3\n        /* \"#utility.yul\":16410:16428   */\n      add\n        /* \"#utility.yul\":16402:16428   */\n      swap1\n      pop\n        /* \"#utility.yul\":16474:16483   */\n      dup2\n        /* \"#utility.yul\":16468:16472   */\n      dup2\n        /* \"#utility.yul\":16464:16484   */\n      sub\n        /* \"#utility.yul\":16460:16461   */\n      0x00\n        /* \"#utility.yul\":16449:16458   */\n      dup4\n        /* \"#utility.yul\":16445:16462   */\n      add\n        /* \"#utility.yul\":16438:16485   */\n      mstore\n        /* \"#utility.yul\":16502:16633   */\n      tag_480\n        /* \"#utility.yul\":16628:16632   */\n      dup2\n        /* \"#utility.yul\":16502:16633   */\n      tag_435\n      jump\t// in\n    tag_480:\n        /* \"#utility.yul\":16494:16633   */\n      swap1\n      pop\n        /* \"#utility.yul\":16392:16640   */\n      swap2\n      swap1\n      pop\n      jump\t// out\n        /* \"#utility.yul\":16646:17065   */\n    tag_243:\n      0x00\n        /* \"#utility.yul\":16850:16852   */\n      0x20\n        /* \"#utility.yul\":16839:16848   */\n      dup3\n        /* \"#utility.yul\":16835:16853   */\n      add\n        /* \"#utility.yul\":16827:16853   */\n      swap1\n      pop\n        /* \"#utility.yul\":16899:16908   */\n      dup2\n        /* \"#utility.yul\":16893:16897   */\n      dup2\n        /* \"#utility.yul\":16889:16909   */\n      sub\n        /* \"#utility.yul\":16885:16886   */\n      0x00\n        /* \"#utility.yul\":16874:16883   */\n      dup4\n        /* \"#utility.yul\":16870:16887   */\n      add\n        /* \"#utility.yul\":16863:16910   */\n      mstore\n        /* \"#utility.yul\":16927:17058   */\n      tag_482\n        /* \"#utility.yul\":17053:17057   */\n      dup2\n        /* \"#utility.yul\":16927:17058   */\n      tag_438\n      jump\t// in\n    tag_482:\n        /* \"#utility.yul\":16919:17058   */\n      swap1\n      pop\n        /* \"#utility.yul\":16817:17065   */\n      swap2\n      swap1\n      pop\n      jump\t// out\n        /* \"#utility.yul\":17071:17293   */\n    tag_40:\n      0x00\n        /* \"#utility.yul\":17202:17204   */\n      0x20\n        /* \"#utility.yul\":17191:17200   */\n      dup3\n        /* \"#utility.yul\":17187:17205   */\n      add\n        /* \"#utility.yul\":17179:17205   */\n      swap1\n      pop\n        /* \"#utility.yul\":17215:17286   */\n      tag_484\n        /* \"#utility.yul\":17283:17284   */\n      0x00\n        /* \"#utility.yul\":17272:17281   */\n      dup4\n        /* \"#utility.yul\":17268:17285   */\n      add\n        /* \"#utility.yul\":17259:17265   */\n      dup5\n        /* \"#utility.yul\":17215:17286   */\n      tag_441\n      jump\t// in\n    tag_484:\n        /* \"#utility.yul\":17169:17293   */\n      swap3\n      swap2\n      pop\n      pop\n      jump\t// out\n        /* \"#utility.yul\":17299:17513   */\n    tag_54:\n      0x00\n        /* \"#utility.yul\":17426:17428   */\n      0x20\n        /* \"#utility.yul\":17415:17424   */\n      dup3\n        /* \"#utility.yul\":17411:17429   */\n      add\n        /* \"#utility.yul\":17403:17429   */\n      swap1\n      pop\n        /* \"#utility.yul\":17439:17506   */\n      tag_486\n        /* \"#utility.yul\":17503:17504   */\n      0x00\n        /* \"#utility.yul\":17492:17501   */\n      dup4\n        /* \"#utility.yul\":17488:17505   */\n      add\n        /* \"#utility.yul\":17479:17485   */\n      dup5\n        /* \"#utility.yul\":17439:17506   */\n      tag_445\n      jump\t// in\n    tag_486:\n        /* \"#utility.yul\":17393:17513   */\n      swap3\n      swap2\n      pop\n      pop\n      jump\t// out\n        /* \"#utility.yul\":17519:17802   */\n    tag_330:\n      0x00\n        /* \"#utility.yul\":17585:17587   */\n      0x40\n        /* \"#utility.yul\":17579:17588   */\n      mload\n        /* \"#utility.yul\":17569:17588   */\n      swap1\n      pop\n        /* \"#utility.yul\":17627:17631   */\n      dup2\n        /* \"#utility.yul\":17619:17625   */\n      dup2\n        /* \"#utility.yul\":17615:17632   */\n      add\n        /* \"#utility.yul\":17734:17740   */\n      dup2\n        /* \"#utility.yul\":17722:17732   */\n      dup2\n        /* \"#utility.yul\":17719:17741   */\n      lt\n        /* \"#utility.yul\":17698:17716   */\n      0xffffffffffffffff\n        /* \"#utility.yul\":17686:17696   */\n      dup3\n        /* \"#utility.yul\":17683:17717   */\n      gt\n        /* \"#utility.yul\":17680:17742   */\n      or\n        /* \"#utility.yul\":17677:17679   */\n      iszero\n      tag_488\n      jumpi\n        /* \"#utility.yul\":17745:17763   */\n      tag_489\n      tag_490\n      jump\t// in\n    tag_489:\n        /* \"#utility.yul\":17677:17679   */\n    tag_488:\n        /* \"#utility.yul\":17785:17795   */\n      dup1\n        /* \"#utility.yul\":17781:17783   */\n      0x40\n        /* \"#utility.yul\":17774:17796   */\n      mstore\n        /* \"#utility.yul\":17559:17802   */\n      pop\n      swap2\n      swap1\n      pop\n      jump\t// out\n        /* \"#utility.yul\":17808:18140   */\n    tag_329:\n      0x00\n        /* \"#utility.yul\":17960:17978   */\n      0xffffffffffffffff\n        /* \"#utility.yul\":17952:17958   */\n      dup3\n        /* \"#utility.yul\":17949:17979   */\n      gt\n        /* \"#utility.yul\":17946:17948   */\n      iszero\n      tag_492\n      jumpi\n        /* \"#utility.yul\":17982:18000   */\n      tag_493\n      tag_490\n      jump\t// in\n    tag_493:\n        /* \"#utility.yul\":17946:17948   */\n    tag_492:\n        /* \"#utility.yul\":18067:18071   */\n      0x1f\n        /* \"#utility.yul\":18063:18072   */\n      not\n        /* \"#utility.yul\":18056:18060   */\n      0x1f\n        /* \"#utility.yul\":18048:18054   */\n      dup4\n        /* \"#utility.yul\":18044:18061   */\n      add\n        /* \"#utility.yul\":18040:18073   */\n      and\n        /* \"#utility.yul\":18032:18073   */\n      swap1\n      pop\n        /* \"#utility.yul\":18128:18132   */\n      0x20\n        /* \"#utility.yul\":18122:18126   */\n      dup2\n        /* \"#utility.yul\":18118:18133   */\n      add\n        /* \"#utility.yul\":18110:18133   */\n      swap1\n      pop\n        /* \"#utility.yul\":17875:18140   */\n      swap2\n      swap1\n      pop\n      jump\t// out\n        /* \"#utility.yul\":18146:18245   */\n    tag_392:\n      0x00\n        /* \"#utility.yul\":18232:18237   */\n      dup2\n        /* \"#utility.yul\":18226:18238   */\n      mload\n        /* \"#utility.yul\":18216:18238   */\n      swap1\n      pop\n        /* \"#utility.yul\":18205:18245   */\n      swap2\n      swap1\n      pop\n      jump\t// out\n        /* \"#utility.yul\":18251:18420   */\n    tag_394:\n      0x00\n        /* \"#utility.yul\":18369:18375   */\n      dup3\n        /* \"#utility.yul\":18364:18367   */\n      dup3\n        /* \"#utility.yul\":18357:18376   */\n      mstore\n        /* \"#utility.yul\":18409:18413   */\n      0x20\n        /* \"#utility.yul\":18404:18407   */\n      dup3\n        /* \"#utility.yul\":18400:18414   */\n      add\n        /* \"#utility.yul\":18385:18414   */\n      swap1\n      pop\n        /* \"#utility.yul\":18347:18420   */\n      swap3\n      swap2\n      pop\n      pop\n      jump\t// out\n        /* \"#utility.yul\":18426:18731   */\n    tag_146:\n      0x00\n        /* \"#utility.yul\":18485:18505   */\n      tag_497\n        /* \"#utility.yul\":18503:18504   */\n      dup3\n        /* \"#utility.yul\":18485:18505   */\n      tag_444\n      jump\t// in\n    tag_497:\n        /* \"#utility.yul\":18480:18505   */\n      swap2\n      pop\n        /* \"#utility.yul\":18519:18539   */\n      tag_498\n        /* \"#utility.yul\":18537:18538   */\n      dup4\n        /* \"#utility.yul\":18519:18539   */\n      tag_444\n      jump\t// in\n    tag_498:\n        /* \"#utility.yul\":18514:18539   */\n      swap3\n      pop\n        /* \"#utility.yul\":18673:18674   */\n      dup3\n        /* \"#utility.yul\":18605:18671   */\n      0xffffffffffffffffffffffffffffffffffffffffffffffffffffffffffffffff\n        /* \"#utility.yul\":18601:18675   */\n      sub\n        /* \"#utility.yul\":18598:18599   */\n      dup3\n        /* \"#utility.yul\":18595:18676   */\n      gt\n        /* \"#utility.yul\":18592:18594   */\n      iszero\n      tag_499\n      jumpi\n        /* \"#utility.yul\":18679:18697   */\n      tag_500\n      tag_501\n      jump\t// in\n    tag_500:\n        /* \"#utility.yul\":18592:18594   */\n    tag_499:\n        /* \"#utility.yul\":18723:18724   */\n      dup3\n        /* \"#utility.yul\":18720:18721   */\n      dup3\n        /* \"#utility.yul\":18716:18725   */\n      add\n        /* \"#utility.yul\":18709:18725   */\n      swap1\n      pop\n        /* \"#utility.yul\":18470:18731   */\n      swap3\n      swap2\n      pop\n      pop\n      jump\t// out\n        /* \"#utility.yul\":18737:18928   */\n    tag_258:\n      0x00\n        /* \"#utility.yul\":18797:18817   */\n      tag_503\n        /* \"#utility.yul\":18815:18816   */\n      dup3\n        /* \"#utility.yul\":18797:18817   */\n      tag_444\n      jump\t// in\n    tag_503:\n        /* \"#utility.yul\":18792:18817   */\n      swap2\n      pop\n        /* \"#utility.yul\":18831:18851   */\n      tag_504\n        /* \"#utility.yul\":18849:18850   */\n      dup4\n        /* \"#utility.yul\":18831:18851   */\n      tag_444\n      jump\t// in\n    tag_504:\n        /* \"#utility.yul\":18826:18851   */\n      swap3\n      pop\n        /* \"#utility.yul\":18870:18871   */\n      dup3\n        /* \"#utility.yul\":18867:18868   */\n      dup3\n        /* \"#utility.yul\":18864:18872   */\n      lt\n        /* \"#utility.yul\":18861:18863   */\n      iszero\n      tag_505\n      jumpi\n        /* \"#utility.yul\":18875:18893   */\n      tag_506\n      tag_501\n      jump\t// in\n    tag_506:\n        /* \"#utility.yul\":18861:18863   */\n    tag_505:\n        /* \"#utility.yul\":18920:18921   */\n      dup3\n        /* \"#utility.yul\":18917:18918   */\n      dup3\n        /* \"#utility.yul\":18913:18922   */\n      sub\n        /* \"#utility.yul\":18905:18922   */\n      swap1\n      pop\n        /* \"#utility.yul\":18782:18928   */\n      swap3\n      swap2\n      pop\n      pop\n      jump\t// out\n        /* \"#utility.yul\":18934:19030   */\n    tag_384:\n      0x00\n        /* \"#utility.yul\":19000:19024   */\n      tag_508\n        /* \"#utility.yul\":19018:19023   */\n      dup3\n        /* \"#utility.yul\":19000:19024   */\n      tag_509\n      jump\t// in\n    tag_508:\n        /* \"#utility.yul\":18989:19024   */\n      swap1\n      pop\n        /* \"#utility.yul\":18979:19030   */\n      swap2\n      swap1\n      pop\n      jump\t// out\n        /* \"#utility.yul\":19036:19126   */\n    tag_388:\n      0x00\n        /* \"#utility.yul\":19113:19118   */\n      dup2\n        /* \"#utility.yul\":19106:19119   */\n      iszero\n        /* \"#utility.yul\":19099:19120   */\n      iszero\n        /* \"#utility.yul\":19088:19120   */\n      swap1\n      pop\n        /* \"#utility.yul\":19078:19126   */\n      swap2\n      swap1\n      pop\n      jump\t// out\n        /* \"#utility.yul\":19132:19258   */\n    tag_509:\n      0x00\n        /* \"#utility.yul\":19209:19251   */\n      0xffffffffffffffffffffffffffffffffffffffff\n        /* \"#utility.yul\":19202:19207   */\n      dup3\n        /* \"#utility.yul\":19198:19252   */\n      and\n        /* \"#utility.yul\":19187:19252   */\n      swap1\n      pop\n        /* \"#utility.yul\":19177:19258   */\n      swap2\n      swap1\n      pop\n      jump\t// out\n        /* \"#utility.yul\":19264:19341   */\n    tag_444:\n      0x00\n        /* \"#utility.yul\":19330:19335   */\n      dup2\n        /* \"#utility.yul\":19319:19335   */\n      swap1\n      pop\n        /* \"#utility.yul\":19309:19341   */\n      swap2\n      swap1\n      pop\n      jump\t// out\n        /* \"#utility.yul\":19347:19433   */\n    tag_448:\n      0x00\n        /* \"#utility.yul\":19422:19426   */\n      0xff\n        /* \"#utility.yul\":19415:19420   */\n      dup3\n        /* \"#utility.yul\":19411:19427   */\n      and\n        /* \"#utility.yul\":19400:19427   */\n      swap1\n      pop\n        /* \"#utility.yul\":19390:19433   */\n      swap2\n      swap1\n      pop\n      jump\t// out\n        /* \"#utility.yul\":19439:19593   */\n    tag_333:\n        /* \"#utility.yul\":19523:19529   */\n      dup3\n        /* \"#utility.yul\":19518:19521   */\n      dup2\n        /* \"#utility.yul\":19513:19516   */\n      dup4\n        /* \"#utility.yul\":19500:19530   */\n      calldatacopy\n        /* \"#utility.yul\":19585:19586   */\n      0x00\n        /* \"#utility.yul\":19576:19582   */\n      dup4\n        /* \"#utility.yul\":19571:19574   */\n      dup4\n        /* \"#utility.yul\":19567:19583   */\n      add\n        /* \"#utility.yul\":19560:19587   */\n      mstore\n        /* \"#utility.yul\":19490:19593   */\n      pop\n      pop\n      pop\n      jump\t// out\n        /* \"#utility.yul\":19599:19906   */\n    tag_396:\n        /* \"#utility.yul\":19667:19668   */\n      0x00\n        /* \"#utility.yul\":19677:19790   */\n    tag_516:\n        /* \"#utility.yul\":19691:19697   */\n      dup4\n        /* \"#utility.yul\":19688:19689   */\n      dup2\n        /* \"#utility.yul\":19685:19698   */\n      lt\n        /* \"#utility.yul\":19677:19790   */\n      iszero\n      tag_518\n      jumpi\n        /* \"#utility.yul\":19776:19777   */\n      dup1\n        /* \"#utility.yul\":19771:19774   */\n      dup3\n        /* \"#utility.yul\":19767:19778   */\n      add\n        /* \"#utility.yul\":19761:19779   */\n      mload\n        /* \"#utility.yul\":19757:19758   */\n      dup2\n        /* \"#utility.yul\":19752:19755   */\n      dup5\n        /* \"#utility.yul\":19748:19759   */\n      add\n        /* \"#utility.yul\":19741:19780   */\n      mstore\n        /* \"#utility.yul\":19713:19715   */\n      0x20\n        /* \"#utility.yul\":19710:19711   */\n      dup2\n        /* \"#utility.yul\":19706:19716   */\n      add\n        /* \"#utility.yul\":19701:19716   */\n      swap1\n      pop\n        /* \"#utility.yul\":19677:19790   */\n      jump(tag_516)\n    tag_518:\n        /* \"#utility.yul\":19808:19814   */\n      dup4\n        /* \"#utility.yul\":19805:19806   */\n      dup2\n        /* \"#utility.yul\":19802:19815   */\n      gt\n        /* \"#utility.yul\":19799:19801   */\n      iszero\n      tag_519\n      jumpi\n        /* \"#utility.yul\":19888:19889   */\n      0x00\n        /* \"#utility.yul\":19879:19885   */\n      dup5\n        /* \"#utility.yul\":19874:19877   */\n      dup5\n        /* \"#utility.yul\":19870:19886   */\n      add\n        /* \"#utility.yul\":19863:19890   */\n      mstore\n        /* \"#utility.yul\":19799:19801   */\n    tag_519:\n        /* \"#utility.yul\":19648:19906   */\n      pop\n      pop\n      pop\n      pop\n      jump\t// out\n        /* \"#utility.yul\":19912:20232   */\n    tag_113:\n      0x00\n        /* \"#utility.yul\":19993:19994   */\n      0x02\n        /* \"#utility.yul\":19987:19991   */\n      dup3\n        /* \"#utility.yul\":19983:19995   */\n      div\n        /* \"#utility.yul\":19973:19995   */\n      swap1\n      pop\n        /* \"#utility.yul\":20040:20041   */\n      0x01\n        /* \"#utility.yul\":20034:20038   */\n      dup3\n        /* \"#utility.yul\":20030:20042   */\n      and\n        /* \"#utility.yul\":20061:20079   */\n      dup1\n        /* \"#utility.yul\":20051:20053   */\n      tag_521\n      jumpi\n        /* \"#utility.yul\":20117:20121   */\n      0x7f\n        /* \"#utility.yul\":20109:20115   */\n      dup3\n        /* \"#utility.yul\":20105:20122   */\n      and\n        /* \"#utility.yul\":20095:20122   */\n      swap2\n      pop\n        /* \"#utility.yul\":20051:20053   */\n    tag_521:\n        /* \"#utility.yul\":20179:20181   */\n      0x20\n        /* \"#utility.yul\":20171:20177   */\n      dup3\n        /* \"#utility.yul\":20168:20182   */\n      lt\n        /* \"#utility.yul\":20148:20166   */\n      dup2\n        /* \"#utility.yul\":20145:20183   */\n      eq\n        /* \"#utility.yul\":20142:20144   */\n      iszero\n      tag_522\n      jumpi\n        /* \"#utility.yul\":20198:20216   */\n      tag_523\n      tag_524\n      jump\t// in\n    tag_523:\n        /* \"#utility.yul\":20142:20144   */\n    tag_522:\n        /* \"#utility.yul\":19963:20232   */\n      pop\n      swap2\n      swap1\n      pop\n      jump\t// out\n        /* \"#utility.yul\":20238:20418   */\n    tag_501:\n        /* \"#utility.yul\":20286:20363   */\n      0x4e487b7100000000000000000000000000000000000000000000000000000000\n        /* \"#utility.yul\":20283:20284   */\n      0x00\n        /* \"#utility.yul\":20276:20364   */\n      mstore\n        /* \"#utility.yul\":20383:20387   */\n      0x11\n        /* \"#utility.yul\":20380:20381   */\n      0x04\n        /* \"#utility.yul\":20373:20388   */\n      mstore\n        /* \"#utility.yul\":20407:20411   */\n      0x24\n        /* \"#utility.yul\":20404:20405   */\n      0x00\n        /* \"#utility.yul\":20397:20412   */\n      revert\n        /* \"#utility.yul\":20424:20604   */\n    tag_524:\n        /* \"#utility.yul\":20472:20549   */\n      0x4e487b7100000000000000000000000000000000000000000000000000000000\n        /* \"#utility.yul\":20469:20470   */\n      0x00\n        /* \"#utility.yul\":20462:20550   */\n      mstore\n        /* \"#utility.yul\":20569:20573   */\n      0x22\n        /* \"#utility.yul\":20566:20567   */\n      0x04\n        /* \"#utility.yul\":20559:20574   */\n      mstore\n        /* \"#utility.yul\":20593:20597   */\n      0x24\n        /* \"#utility.yul\":20590:20591   */\n      0x00\n        /* \"#utility.yul\":20583:20598   */\n      revert\n        /* \"#utility.yul\":20610:20790   */\n    tag_490:\n        /* \"#utility.yul\":20658:20735   */\n      0x4e487b7100000000000000000000000000000000000000000000000000000000\n        /* \"#utility.yul\":20655:20656   */\n      0x00\n        /* \"#utility.yul\":20648:20736   */\n      mstore\n        /* \"#utility.yul\":20755:20759   */\n      0x41\n        /* \"#utility.yul\":20752:20753   */\n      0x04\n        /* \"#utility.yul\":20745:20760   */\n      mstore\n        /* \"#utility.yul\":20779:20783   */\n      0x24\n        /* \"#utility.yul\":20776:20777   */\n      0x00\n        /* \"#utility.yul\":20769:20784   */\n      revert\n        /* \"#utility.yul\":20796:20898   */\n    tag_398:\n      0x00\n        /* \"#utility.yul\":20888:20890   */\n      0x1f\n        /* \"#utility.yul\":20884:20891   */\n      not\n        /* \"#utility.yul\":20879:20881   */\n      0x1f\n        /* \"#utility.yul\":20872:20877   */\n      dup4\n        /* \"#utility.yul\":20868:20882   */\n      add\n        /* \"#utility.yul\":20864:20892   */\n      and\n        /* \"#utility.yul\":20854:20892   */\n      swap1\n      pop\n        /* \"#utility.yul\":20844:20898   */\n      swap2\n      swap1\n      pop\n      jump\t// out\n        /* \"#utility.yul\":20904:21026   */\n    tag_337:\n        /* \"#utility.yul\":20977:21001   */\n      tag_530\n        /* \"#utility.yul\":20995:21000   */\n      dup2\n        /* \"#utility.yul\":20977:21001   */\n      tag_384\n      jump\t// in\n    tag_530:\n        /* \"#utility.yul\":20970:20975   */\n      dup2\n        /* \"#utility.yul\":20967:21002   */\n      eq\n        /* \"#utility.yul\":20957:20959   */\n      tag_531\n      jumpi\n        /* \"#utility.yul\":21016:21017   */\n      0x00\n        /* \"#utility.yul\":21013:21014   */\n      dup1\n        /* \"#utility.yul\":21006:21018   */\n      revert\n        /* \"#utility.yul\":20957:20959   */\n    tag_531:\n        /* \"#utility.yul\":20947:21026   */\n      pop\n      jump\t// out\n        /* \"#utility.yul\":21032:21148   */\n    tag_341:\n        /* \"#utility.yul\":21102:21123   */\n      tag_533\n        /* \"#utility.yul\":21117:21122   */\n      dup2\n        /* \"#utility.yul\":21102:21123   */\n      tag_388\n      jump\t// in\n    tag_533:\n        /* \"#utility.yul\":21095:21100   */\n      dup2\n        /* \"#utility.yul\":21092:21124   */\n      eq\n        /* \"#utility.yul\":21082:21084   */\n      tag_534\n      jumpi\n        /* \"#utility.yul\":21138:21139   */\n      0x00\n        /* \"#utility.yul\":21135:21136   */\n      dup1\n        /* \"#utility.yul\":21128:21140   */\n      revert\n        /* \"#utility.yul\":21082:21084   */\n    tag_534:\n        /* \"#utility.yul\":21072:21148   */\n      pop\n      jump\t// out\n        /* \"#utility.yul\":21154:21276   */\n    tag_349:\n        /* \"#utility.yul\":21227:21251   */\n      tag_536\n        /* \"#utility.yul\":21245:21250   */\n      dup2\n        /* \"#utility.yul\":21227:21251   */\n      tag_444\n      jump\t// in\n    tag_536:\n        /* \"#utility.yul\":21220:21225   */\n      dup2\n        /* \"#utility.yul\":21217:21252   */\n      eq\n        /* \"#utility.yul\":21207:21209   */\n      tag_537\n      jumpi\n        /* \"#utility.yul\":21266:21267   */\n      0x00\n        /* \"#utility.yul\":21263:21264   */\n      dup1\n        /* \"#utility.yul\":21256:21268   */\n      revert\n        /* \"#utility.yul\":21207:21209   */\n    tag_537:\n        /* \"#utility.yul\":21197:21276   */\n      pop\n      jump\t// out\n    stop\n    data_a287c363786607a1457a2d9d12fa61c0073358e02d76b4035fc2c2d86a19c0db 45524332303a206275726e20616d6f756e74206578636565647320616c6c6f77616e6365\n\n    auxdata: 0xa26469706673582212204e2d410f69843a75fae13246f5630201cbecb8759f62273ed0b290b057fcd5bd64736f6c63430008000033\n}\n",
				"bytecode": {
					"linkReferences": {},
					"object": "608060405234801561001057600080fd5b5061296e806100206000396000f3fe608060405234801561001057600080fd5b50600436106101375760003560e01c806370a08231116100b8578063a22b35ce1161007c578063a22b35ce14610364578063a457c2d714610380578063a9059cbb146103b0578063dd62ed3e146103e0578063f2fde38b14610410578063f542033f1461042c57610137565b806370a08231146102d2578063715018a61461030257806379cc67901461030c5780638da5cb5b1461032857806395d89b411461034657610137565b8063313ce567116100ff578063313ce56714610208578063395093511461022657806340c10f191461025657806342966c681461028657806348c7e528146102a257610137565b806306fdde031461013c578063095ea7b31461015a57806318160ddd1461018a5780631e1bff3f146101a857806323b872dd146101d8575b600080fd5b610144610448565b6040516101519190612449565b60405180910390f35b610174600480360381019061016f9190611d5e565b6104da565b604051610181919061242e565b60405180910390f35b6101926104f8565b60405161019f919061262b565b60405180910390f35b6101c260048036038101906101bd9190611d22565b610502565b6040516101cf919061242e565b60405180910390f35b6101f260048036038101906101ed9190611cd3565b6105e1565b6040516101ff919061242e565b60405180910390f35b6102106106d9565b60405161021d9190612646565b60405180910390f35b610240600480360381019061023b9190611d5e565b6106e2565b60405161024d919061242e565b60405180910390f35b610270600480360381019061026b9190611d5e565b61078e565b60405161027d919061242e565b60405180910390f35b6102a0600480360381019061029b9190611e2d565b610830565b005b6102bc60048036038101906102b79190611c6e565b61083d565b6040516102c9919061242e565b60405180910390f35b6102ec60048036038101906102e79190611c6e565b61085d565b6040516102f9919061262b565b60405180910390f35b61030a6108a6565b005b61032660048036038101906103219190611d5e565b61092e565b005b61033061093c565b60405161033d9190612413565b60405180910390f35b61034e610966565b60405161035b9190612449565b60405180910390f35b61037e60048036038101906103799190611d5e565b6109f8565b005b61039a60048036038101906103959190611d5e565b610a4c565b6040516103a7919061242e565b60405180910390f35b6103ca60048036038101906103c59190611d5e565b610b37565b6040516103d7919061242e565b60405180910390f35b6103fa60048036038101906103f59190611c97565b610b55565b604051610407919061262b565b60405180910390f35b61042a60048036038101906104259190611c6e565b610bdc565b005b61044660048036038101906104419190611d9a565b610cd4565b005b606060688054610457906127ff565b80601f0160208091040260200160405190810160405280929190818152602001828054610483906127ff565b80156104d05780601f106104a5576101008083540402835291602001916104d0565b820191906000526020600020905b8154815290600101906020018083116104b357829003601f168201915b5050505050905090565b60006104ee6104e7610dcd565b8484610dd5565b6001905092915050565b6000606754905090565b600061050c610dcd565b73ffffffffffffffffffffffffffffffffffffffff1661052a61093c565b73ffffffffffffffffffffffffffffffffffffffff1614610580576040517f08c379a00000000000000000000000000000000000000000000000000000000081526004016105779061256b565b60405180910390fd5b81609760008573ffffffffffffffffffffffffffffffffffffffff1673ffffffffffffffffffffffffffffffffffffffff16815260200190815260200160002060006101000a81548160ff0219169083151502179055506001905092915050565b60006105ee848484610fa0565b6000606660008673ffffffffffffffffffffffffffffffffffffffff1673ffffffffffffffffffffffffffffffffffffffff1681526020019081526020016000206000610639610dcd565b73ffffffffffffffffffffffffffffffffffffffff1673ffffffffffffffffffffffffffffffffffffffff168152602001908152602001600020549050828110156106b9576040517f08c379a00000000000000000000000000000000000000000000000000000000081526004016106b09061254b565b60405180910390fd5b6106cd856106c5610dcd565b858403610dd5565b60019150509392505050565b60006012905090565b60006107846106ef610dcd565b8484606660006106fd610dcd565b73ffffffffffffffffffffffffffffffffffffffff1673ffffffffffffffffffffffffffffffffffffffff16815260200190815260200160002060008873ffffffffffffffffffffffffffffffffffffffff1673ffffffffffffffffffffffffffffffffffffffff1681526020019081526020016000205461077f91906126de565b610dd5565b6001905092915050565b6000609760003373ffffffffffffffffffffffffffffffffffffffff1673ffffffffffffffffffffffffffffffffffffffff16815260200190815260200160002060009054906101000a900460ff1661081c576040517f08c379a00000000000000000000000000000000000000000000000000000000081526004016108139061250b565b60405180910390fd5b6108268383611224565b6001905092915050565b61083a3382611385565b50565b60976020528060005260406000206000915054906101000a900460ff1681565b6000606560008373ffffffffffffffffffffffffffffffffffffffff1673ffffffffffffffffffffffffffffffffffffffff168152602001908152602001600020549050919050565b6108ae610dcd565b73ffffffffffffffffffffffffffffffffffffffff166108cc61093c565b73ffffffffffffffffffffffffffffffffffffffff1614610922576040517f08c379a00000000000000000000000000000000000000000000000000000000081526004016109199061256b565b60405180910390fd5b61092c600061155e565b565b61093882826109f8565b5050565b6000603360009054906101000a900473ffffffffffffffffffffffffffffffffffffffff16905090565b606060698054610975906127ff565b80601f01602080910402602001604051908101604052809291908181526020018280546109a1906127ff565b80156109ee5780601f106109c3576101008083540402835291602001916109ee565b820191906000526020600020905b8154815290600101906020018083116109d157829003601f168201915b5050505050905090565b6000610a308260405180606001604052806024815260200161291560249139610a218633610b55565b6116249092919063ffffffff16565b9050610a3d833383610dd5565b610a478383611385565b505050565b60008060666000610a5b610dcd565b73ffffffffffffffffffffffffffffffffffffffff1673ffffffffffffffffffffffffffffffffffffffff16815260200190815260200160002060008573ffffffffffffffffffffffffffffffffffffffff1673ffffffffffffffffffffffffffffffffffffffff16815260200190815260200160002054905082811015610b18576040517f08c379a0000000000000000000000000000000000000000000000000000000008152600401610b0f906125eb565b60405180910390fd5b610b2c610b23610dcd565b85858403610dd5565b600191505092915050565b6000610b4b610b44610dcd565b8484610fa0565b6001905092915050565b6000606660008473ffffffffffffffffffffffffffffffffffffffff1673ffffffffffffffffffffffffffffffffffffffff16815260200190815260200160002060008373ffffffffffffffffffffffffffffffffffffffff1673ffffffffffffffffffffffffffffffffffffffff16815260200190815260200160002054905092915050565b610be4610dcd565b73ffffffffffffffffffffffffffffffffffffffff16610c0261093c565b73ffffffffffffffffffffffffffffffffffffffff1614610c58576040517f08c379a0000000000000000000000000000000000000000000000000000000008152600401610c4f9061256b565b60405180910390fd5b600073ffffffffffffffffffffffffffffffffffffffff168173ffffffffffffffffffffffffffffffffffffffff161415610cc8576040517f08c379a0000000000000000000000000000000000000000000000000000000008152600401610cbf906124ab565b60405180910390fd5b610cd18161155e565b50565b600060019054906101000a900460ff1680610cfa575060008054906101000a900460ff16155b610d39576040517f08c379a0000000000000000000000000000000000000000000000000000000008152600401610d309061252b565b60405180910390fd5b60008060019054906101000a900460ff161590508015610d89576001600060016101000a81548160ff02191690831515021790555060016000806101000a81548160ff0219169083151502179055505b610d91611679565b610d9b8585611762565b610da58383611224565b8015610dc65760008060016101000a81548160ff0219169083151502179055505b5050505050565b600033905090565b600073ffffffffffffffffffffffffffffffffffffffff168373ffffffffffffffffffffffffffffffffffffffff161415610e45576040517f08c379a0000000000000000000000000000000000000000000000000000000008152600401610e3c906125cb565b60405180910390fd5b600073ffffffffffffffffffffffffffffffffffffffff168273ffffffffffffffffffffffffffffffffffffffff161415610eb5576040517f08c379a0000000000000000000000000000000000000000000000000000000008152600401610eac906124cb565b60405180910390fd5b80606660008573ffffffffffffffffffffffffffffffffffffffff1673ffffffffffffffffffffffffffffffffffffffff16815260200190815260200160002060008473ffffffffffffffffffffffffffffffffffffffff1673ffffffffffffffffffffffffffffffffffffffff168152602001908152602001600020819055508173ffffffffffffffffffffffffffffffffffffffff168373ffffffffffffffffffffffffffffffffffffffff167f8c5be1e5ebec7d5bd14f71427d1e84f3dd0314c0f7b2291e5b200ac8c7c3b92583604051610f93919061262b565b60405180910390a3505050565b600073ffffffffffffffffffffffffffffffffffffffff168373ffffffffffffffffffffffffffffffffffffffff161415611010576040517f08c379a0000000000000000000000000000000000000000000000000000000008152600401611007906125ab565b60405180910390fd5b600073ffffffffffffffffffffffffffffffffffffffff168273ffffffffffffffffffffffffffffffffffffffff161415611080576040517f08c379a00000000000000000000000000000000000000000000000000000000081526004016110779061246b565b60405180910390fd5b61108b83838361184f565b6000606560008573ffffffffffffffffffffffffffffffffffffffff1673ffffffffffffffffffffffffffffffffffffffff16815260200190815260200160002054905081811015611112576040517f08c379a0000000000000000000000000000000000000000000000000000000008152600401611109906124eb565b60405180910390fd5b818103606560008673ffffffffffffffffffffffffffffffffffffffff1673ffffffffffffffffffffffffffffffffffffffff1681526020019081526020016000208190555081606560008573ffffffffffffffffffffffffffffffffffffffff1673ffffffffffffffffffffffffffffffffffffffff16815260200190815260200160002060008282546111a791906126de565b925050819055508273ffffffffffffffffffffffffffffffffffffffff168473ffffffffffffffffffffffffffffffffffffffff167fddf252ad1be2c89b69c2b068fc378daa952ba7f163c4a11628f55a4df523b3ef8460405161120b919061262b565b60405180910390a361121e848484611854565b50505050565b600073ffffffffffffffffffffffffffffffffffffffff168273ffffffffffffffffffffffffffffffffffffffff161415611294576040517f08c379a000000000000000000000000000000000000000000000000000000000815260040161128b9061260b565b60405180910390fd5b6112a06000838361184f565b80606760008282546112b291906126de565b9250508190555080606560008473ffffffffffffffffffffffffffffffffffffffff1673ffffffffffffffffffffffffffffffffffffffff168152602001908152602001600020600082825461130891906126de565b925050819055508173ffffffffffffffffffffffffffffffffffffffff16600073ffffffffffffffffffffffffffffffffffffffff167fddf252ad1be2c89b69c2b068fc378daa952ba7f163c4a11628f55a4df523b3ef8360405161136d919061262b565b60405180910390a361138160008383611854565b5050565b600073ffffffffffffffffffffffffffffffffffffffff168273ffffffffffffffffffffffffffffffffffffffff1614156113f5576040517f08c379a00000000000000000000000000000000000000000000000000000000081526004016113ec9061258b565b60405180910390fd5b6114018260008361184f565b6000606560008473ffffffffffffffffffffffffffffffffffffffff1673ffffffffffffffffffffffffffffffffffffffff16815260200190815260200160002054905081811015611488576040517f08c379a000000000000000000000000000000000000000000000000000000000815260040161147f9061248b565b60405180910390fd5b818103606560008573ffffffffffffffffffffffffffffffffffffffff1673ffffffffffffffffffffffffffffffffffffffff1681526020019081526020016000208190555081606760008282546114e09190612734565b92505081905550600073ffffffffffffffffffffffffffffffffffffffff168373ffffffffffffffffffffffffffffffffffffffff167fddf252ad1be2c89b69c2b068fc378daa952ba7f163c4a11628f55a4df523b3ef84604051611545919061262b565b60405180910390a361155983600084611854565b505050565b6000603360009054906101000a900473ffffffffffffffffffffffffffffffffffffffff16905081603360006101000a81548173ffffffffffffffffffffffffffffffffffffffff021916908373ffffffffffffffffffffffffffffffffffffffff1602179055508173ffffffffffffffffffffffffffffffffffffffff168173ffffffffffffffffffffffffffffffffffffffff167f8be0079c531659141344cd1fd0a4f28419497f9722a3daafe3b4186f6b6457e060405160405180910390a35050565b600083831115829061166c576040517f08c379a00000000000000000000000000000000000000000000000000000000081526004016116639190612449565b60405180910390fd5b5082840390509392505050565b600060019054906101000a900460ff168061169f575060008054906101000a900460ff16155b6116de576040517f08c379a00000000000000000000000000000000000000000000000000000000081526004016116d59061252b565b60405180910390fd5b60008060019054906101000a900460ff16159050801561172e576001600060016101000a81548160ff02191690831515021790555060016000806101000a81548160ff0219169083151502179055505b611736611859565b61173e611932565b801561175f5760008060016101000a81548160ff0219169083151502179055505b50565b600060019054906101000a900460ff1680611788575060008054906101000a900460ff16155b6117c7576040517f08c379a00000000000000000000000000000000000000000000000000000000081526004016117be9061252b565b60405180910390fd5b60008060019054906101000a900460ff161590508015611817576001600060016101000a81548160ff02191690831515021790555060016000806101000a81548160ff0219169083151502179055505b61181f611859565b6118298383611a1b565b801561184a5760008060016101000a81548160ff0219169083151502179055505b505050565b505050565b505050565b600060019054906101000a900460ff168061187f575060008054906101000a900460ff16155b6118be576040517f08c379a00000000000000000000000000000000000000000000000000000000081526004016118b59061252b565b60405180910390fd5b60008060019054906101000a900460ff16159050801561190e576001600060016101000a81548160ff02191690831515021790555060016000806101000a81548160ff0219169083151502179055505b801561192f5760008060016101000a81548160ff0219169083151502179055505b50565b600060019054906101000a900460ff1680611958575060008054906101000a900460ff16155b611997576040517f08c379a000000000000000000000000000000000000000000000000000000000815260040161198e9061252b565b60405180910390fd5b60008060019054906101000a900460ff1615905080156119e7576001600060016101000a81548160ff02191690831515021790555060016000806101000a81548160ff0219169083151502179055505b6119f76119f2610dcd565b61155e565b8015611a185760008060016101000a81548160ff0219169083151502179055505b50565b600060019054906101000a900460ff1680611a41575060008054906101000a900460ff16155b611a80576040517f08c379a0000000000000000000000000000000000000000000000000000000008152600401611a779061252b565b60405180910390fd5b60008060019054906101000a900460ff161590508015611ad0576001600060016101000a81548160ff02191690831515021790555060016000806101000a81548160ff0219169083151502179055505b8260689080519060200190611ae6929190611b24565b508160699080519060200190611afd929190611b24565b508015611b1f5760008060016101000a81548160ff0219169083151502179055505b505050565b828054611b30906127ff565b90600052602060002090601f016020900481019282611b525760008555611b99565b82601f10611b6b57805160ff1916838001178555611b99565b82800160010185558215611b99579182015b82811115611b98578251825591602001919060010190611b7d565b5b509050611ba69190611baa565b5090565b5b80821115611bc3576000816000905550600101611bab565b5090565b6000611bda611bd584612692565b612661565b905082815260208101848484011115611bf257600080fd5b611bfd8482856127bd565b509392505050565b600081359050611c14816128cf565b92915050565b600081359050611c29816128e6565b92915050565b600082601f830112611c4057600080fd5b8135611c50848260208601611bc7565b91505092915050565b600081359050611c68816128fd565b92915050565b600060208284031215611c8057600080fd5b6000611c8e84828501611c05565b91505092915050565b60008060408385031215611caa57600080fd5b6000611cb885828601611c05565b9250506020611cc985828601611c05565b9150509250929050565b600080600060608486031215611ce857600080fd5b6000611cf686828701611c05565b9350506020611d0786828701611c05565b9250506040611d1886828701611c59565b9150509250925092565b60008060408385031215611d3557600080fd5b6000611d4385828601611c05565b9250506020611d5485828601611c1a565b9150509250929050565b60008060408385031215611d7157600080fd5b6000611d7f85828601611c05565b9250506020611d9085828601611c59565b9150509250929050565b60008060008060808587031215611db057600080fd5b600085013567ffffffffffffffff811115611dca57600080fd5b611dd687828801611c2f565b945050602085013567ffffffffffffffff811115611df357600080fd5b611dff87828801611c2f565b9350506040611e1087828801611c05565b9250506060611e2187828801611c59565b91505092959194509250565b600060208284031215611e3f57600080fd5b6000611e4d84828501611c59565b91505092915050565b611e5f81612768565b82525050565b611e6e8161277a565b82525050565b6000611e7f826126c2565b611e8981856126cd565b9350611e998185602086016127cc565b611ea2816128be565b840191505092915050565b6000611eba6023836126cd565b91507f45524332303a207472616e7366657220746f20746865207a65726f206164647260008301527f65737300000000000000000000000000000000000000000000000000000000006020830152604082019050919050565b6000611f206022836126cd565b91507f45524332303a206275726e20616d6f756e7420657863656564732062616c616e60008301527f63650000000000000000000000000000000000000000000000000000000000006020830152604082019050919050565b6000611f866026836126cd565b91507f4f776e61626c653a206e6577206f776e657220697320746865207a65726f206160008301527f64647265737300000000000000000000000000000000000000000000000000006020830152604082019050919050565b6000611fec6022836126cd565b91507f45524332303a20617070726f766520746f20746865207a65726f20616464726560008301527f73730000000000000000000000000000000000000000000000000000000000006020830152604082019050919050565b60006120526026836126cd565b91507f45524332303a207472616e7366657220616d6f756e742065786365656473206260008301527f616c616e636500000000000000000000000000000000000000000000000000006020830152604082019050919050565b60006120b86024836126cd565b91507f6578656375746f723a2063616c6c6572206973206e6f7420746865206578656360008301527f75746f72000000000000000000000000000000000000000000000000000000006020830152604082019050919050565b600061211e602e836126cd565b91507f496e697469616c697a61626c653a20636f6e747261637420697320616c72656160008301527f647920696e697469616c697a65640000000000000000000000000000000000006020830152604082019050919050565b60006121846028836126cd565b91507f45524332303a207472616e7366657220616d6f756e742065786365656473206160008301527f6c6c6f77616e63650000000000000000000000000000000000000000000000006020830152604082019050919050565b60006121ea6020836126cd565b91507f4f776e61626c653a2063616c6c6572206973206e6f7420746865206f776e65726000830152602082019050919050565b600061222a6021836126cd565b91507f45524332303a206275726e2066726f6d20746865207a65726f2061646472657360008301527f73000000000000000000000000000000000000000000000000000000000000006020830152604082019050919050565b60006122906025836126cd565b91507f45524332303a207472616e736665722066726f6d20746865207a65726f20616460008301527f64726573730000000000000000000000000000000000000000000000000000006020830152604082019050919050565b60006122f66024836126cd565b91507f45524332303a20617070726f76652066726f6d20746865207a65726f2061646460008301527f72657373000000000000000000000000000000000000000000000000000000006020830152604082019050919050565b600061235c6025836126cd565b91507f45524332303a2064656372656173656420616c6c6f77616e63652062656c6f7760008301527f207a65726f0000000000000000000000000000000000000000000000000000006020830152604082019050919050565b60006123c2601f836126cd565b91507f45524332303a206d696e7420746f20746865207a65726f2061646472657373006000830152602082019050919050565b6123fe816127a6565b82525050565b61240d816127b0565b82525050565b60006020820190506124286000830184611e56565b92915050565b60006020820190506124436000830184611e65565b92915050565b600060208201905081810360008301526124638184611e74565b905092915050565b6000602082019050818103600083015261248481611ead565b9050919050565b600060208201905081810360008301526124a481611f13565b9050919050565b600060208201905081810360008301526124c481611f79565b9050919050565b600060208201905081810360008301526124e481611fdf565b9050919050565b6000602082019050818103600083015261250481612045565b9050919050565b60006020820190508181036000830152612524816120ab565b9050919050565b6000602082019050818103600083015261254481612111565b9050919050565b6000602082019050818103600083015261256481612177565b9050919050565b60006020820190508181036000830152612584816121dd565b9050919050565b600060208201905081810360008301526125a48161221d565b9050919050565b600060208201905081810360008301526125c481612283565b9050919050565b600060208201905081810360008301526125e4816122e9565b9050919050565b600060208201905081810360008301526126048161234f565b9050919050565b60006020820190508181036000830152612624816123b5565b9050919050565b600060208201905061264060008301846123f5565b92915050565b600060208201905061265b6000830184612404565b92915050565b6000604051905081810181811067ffffffffffffffff821117156126885761268761288f565b5b8060405250919050565b600067ffffffffffffffff8211156126ad576126ac61288f565b5b601f19601f8301169050602081019050919050565b600081519050919050565b600082825260208201905092915050565b60006126e9826127a6565b91506126f4836127a6565b9250827fffffffffffffffffffffffffffffffffffffffffffffffffffffffffffffffff0382111561272957612728612831565b5b828201905092915050565b600061273f826127a6565b915061274a836127a6565b92508282101561275d5761275c612831565b5b828203905092915050565b600061277382612786565b9050919050565b60008115159050919050565b600073ffffffffffffffffffffffffffffffffffffffff82169050919050565b6000819050919050565b600060ff82169050919050565b82818337600083830152505050565b60005b838110156127ea5780820151818401526020810190506127cf565b838111156127f9576000848401525b50505050565b6000600282049050600182168061281757607f821691505b6020821081141561282b5761282a612860565b5b50919050565b7f4e487b7100000000000000000000000000000000000000000000000000000000600052601160045260246000fd5b7f4e487b7100000000000000000000000000000000000000000000000000000000600052602260045260246000fd5b7f4e487b7100000000000000000000000000000000000000000000000000000000600052604160045260246000fd5b6000601f19601f8301169050919050565b6128d881612768565b81146128e357600080fd5b50565b6128ef8161277a565b81146128fa57600080fd5b50565b612906816127a6565b811461291157600080fd5b5056fe45524332303a206275726e20616d6f756e74206578636565647320616c6c6f77616e6365a26469706673582212204e2d410f69843a75fae13246f5630201cbecb8759f62273ed0b290b057fcd5bd64736f6c63430008000033",
					"opcodes": "PUSH1 0x80 PUSH1 0x40 MSTORE CALLVALUE DUP1 ISZERO PUSH2 0x10 JUMPI PUSH1 0x0 DUP1 REVERT JUMPDEST POP PUSH2 0x296E DUP1 PUSH2 0x20 PUSH1 0x0 CODECOPY PUSH1 0x0 RETURN INVALID PUSH1 0x80 PUSH1 0x40 MSTORE CALLVALUE DUP1 ISZERO PUSH2 0x10 JUMPI PUSH1 0x0 DUP1 REVERT JUMPDEST POP PUSH1 0x4 CALLDATASIZE LT PUSH2 0x137 JUMPI PUSH1 0x0 CALLDATALOAD PUSH1 0xE0 SHR DUP1 PUSH4 0x70A08231 GT PUSH2 0xB8 JUMPI DUP1 PUSH4 0xA22B35CE GT PUSH2 0x7C JUMPI DUP1 PUSH4 0xA22B35CE EQ PUSH2 0x364 JUMPI DUP1 PUSH4 0xA457C2D7 EQ PUSH2 0x380 JUMPI DUP1 PUSH4 0xA9059CBB EQ PUSH2 0x3B0 JUMPI DUP1 PUSH4 0xDD62ED3E EQ PUSH2 0x3E0 JUMPI DUP1 PUSH4 0xF2FDE38B EQ PUSH2 0x410 JUMPI DUP1 PUSH4 0xF542033F EQ PUSH2 0x42C JUMPI PUSH2 0x137 JUMP JUMPDEST DUP1 PUSH4 0x70A08231 EQ PUSH2 0x2D2 JUMPI DUP1 PUSH4 0x715018A6 EQ PUSH2 0x302 JUMPI DUP1 PUSH4 0x79CC6790 EQ PUSH2 0x30C JUMPI DUP1 PUSH4 0x8DA5CB5B EQ PUSH2 0x328 JUMPI DUP1 PUSH4 0x95D89B41 EQ PUSH2 0x346 JUMPI PUSH2 0x137 JUMP JUMPDEST DUP1 PUSH4 0x313CE567 GT PUSH2 0xFF JUMPI DUP1 PUSH4 0x313CE567 EQ PUSH2 0x208 JUMPI DUP1 PUSH4 0x39509351 EQ PUSH2 0x226 JUMPI DUP1 PUSH4 0x40C10F19 EQ PUSH2 0x256 JUMPI DUP1 PUSH4 0x42966C68 EQ PUSH2 0x286 JUMPI DUP1 PUSH4 0x48C7E528 EQ PUSH2 0x2A2 JUMPI PUSH2 0x137 JUMP JUMPDEST DUP1 PUSH4 0x6FDDE03 EQ PUSH2 0x13C JUMPI DUP1 PUSH4 0x95EA7B3 EQ PUSH2 0x15A JUMPI DUP1 PUSH4 0x18160DDD EQ PUSH2 0x18A JUMPI DUP1 PUSH4 0x1E1BFF3F EQ PUSH2 0x1A8 JUMPI DUP1 PUSH4 0x23B872DD EQ PUSH2 0x1D8 JUMPI JUMPDEST PUSH1 0x0 DUP1 REVERT JUMPDEST PUSH2 0x144 PUSH2 0x448 JUMP JUMPDEST PUSH1 0x40 MLOAD PUSH2 0x151 SWAP2 SWAP1 PUSH2 0x2449 JUMP JUMPDEST PUSH1 0x40 MLOAD DUP1 SWAP2 SUB SWAP1 RETURN JUMPDEST PUSH2 0x174 PUSH1 0x4 DUP1 CALLDATASIZE SUB DUP2 ADD SWAP1 PUSH2 0x16F SWAP2 SWAP1 PUSH2 0x1D5E JUMP JUMPDEST PUSH2 0x4DA JUMP JUMPDEST PUSH1 0x40 MLOAD PUSH2 0x181 SWAP2 SWAP1 PUSH2 0x242E JUMP JUMPDEST PUSH1 0x40 MLOAD DUP1 SWAP2 SUB SWAP1 RETURN JUMPDEST PUSH2 0x192 PUSH2 0x4F8 JUMP JUMPDEST PUSH1 0x40 MLOAD PUSH2 0x19F SWAP2 SWAP1 PUSH2 0x262B JUMP JUMPDEST PUSH1 0x40 MLOAD DUP1 SWAP2 SUB SWAP1 RETURN JUMPDEST PUSH2 0x1C2 PUSH1 0x4 DUP1 CALLDATASIZE SUB DUP2 ADD SWAP1 PUSH2 0x1BD SWAP2 SWAP1 PUSH2 0x1D22 JUMP JUMPDEST PUSH2 0x502 JUMP JUMPDEST PUSH1 0x40 MLOAD PUSH2 0x1CF SWAP2 SWAP1 PUSH2 0x242E JUMP JUMPDEST PUSH1 0x40 MLOAD DUP1 SWAP2 SUB SWAP1 RETURN JUMPDEST PUSH2 0x1F2 PUSH1 0x4 DUP1 CALLDATASIZE SUB DUP2 ADD SWAP1 PUSH2 0x1ED SWAP2 SWAP1 PUSH2 0x1CD3 JUMP JUMPDEST PUSH2 0x5E1 JUMP JUMPDEST PUSH1 0x40 MLOAD PUSH2 0x1FF SWAP2 SWAP1 PUSH2 0x242E JUMP JUMPDEST PUSH1 0x40 MLOAD DUP1 SWAP2 SUB SWAP1 RETURN JUMPDEST PUSH2 0x210 PUSH2 0x6D9 JUMP JUMPDEST PUSH1 0x40 MLOAD PUSH2 0x21D SWAP2 SWAP1 PUSH2 0x2646 JUMP JUMPDEST PUSH1 0x40 MLOAD DUP1 SWAP2 SUB SWAP1 RETURN JUMPDEST PUSH2 0x240 PUSH1 0x4 DUP1 CALLDATASIZE SUB DUP2 ADD SWAP1 PUSH2 0x23B SWAP2 SWAP1 PUSH2 0x1D5E JUMP JUMPDEST PUSH2 0x6E2 JUMP JUMPDEST PUSH1 0x40 MLOAD PUSH2 0x24D SWAP2 SWAP1 PUSH2 0x242E JUMP JUMPDEST PUSH1 0x40 MLOAD DUP1 SWAP2 SUB SWAP1 RETURN JUMPDEST PUSH2 0x270 PUSH1 0x4 DUP1 CALLDATASIZE SUB DUP2 ADD SWAP1 PUSH2 0x26B SWAP2 SWAP1 PUSH2 0x1D5E JUMP JUMPDEST PUSH2 0x78E JUMP JUMPDEST PUSH1 0x40 MLOAD PUSH2 0x27D SWAP2 SWAP1 PUSH2 0x242E JUMP JUMPDEST PUSH1 0x40 MLOAD DUP1 SWAP2 SUB SWAP1 RETURN JUMPDEST PUSH2 0x2A0 PUSH1 0x4 DUP1 CALLDATASIZE SUB DUP2 ADD SWAP1 PUSH2 0x29B SWAP2 SWAP1 PUSH2 0x1E2D JUMP JUMPDEST PUSH2 0x830 JUMP JUMPDEST STOP JUMPDEST PUSH2 0x2BC PUSH1 0x4 DUP1 CALLDATASIZE SUB DUP2 ADD SWAP1 PUSH2 0x2B7 SWAP2 SWAP1 PUSH2 0x1C6E JUMP JUMPDEST PUSH2 0x83D JUMP JUMPDEST PUSH1 0x40 MLOAD PUSH2 0x2C9 SWAP2 SWAP1 PUSH2 0x242E JUMP JUMPDEST PUSH1 0x40 MLOAD DUP1 SWAP2 SUB SWAP1 RETURN JUMPDEST PUSH2 0x2EC PUSH1 0x4 DUP1 CALLDATASIZE SUB DUP2 ADD SWAP1 PUSH2 0x2E7 SWAP2 SWAP1 PUSH2 0x1C6E JUMP JUMPDEST PUSH2 0x85D JUMP JUMPDEST PUSH1 0x40 MLOAD PUSH2 0x2F9 SWAP2 SWAP1 PUSH2 0x262B JUMP JUMPDEST PUSH1 0x40 MLOAD DUP1 SWAP2 SUB SWAP1 RETURN JUMPDEST PUSH2 0x30A PUSH2 0x8A6 JUMP JUMPDEST STOP JUMPDEST PUSH2 0x326 PUSH1 0x4 DUP1 CALLDATASIZE SUB DUP2 ADD SWAP1 PUSH2 0x321 SWAP2 SWAP1 PUSH2 0x1D5E JUMP JUMPDEST PUSH2 0x92E JUMP JUMPDEST STOP JUMPDEST PUSH2 0x330 PUSH2 0x93C JUMP JUMPDEST PUSH1 0x40 MLOAD PUSH2 0x33D SWAP2 SWAP1 PUSH2 0x2413 JUMP JUMPDEST PUSH1 0x40 MLOAD DUP1 SWAP2 SUB SWAP1 RETURN JUMPDEST PUSH2 0x34E PUSH2 0x966 JUMP JUMPDEST PUSH1 0x40 MLOAD PUSH2 0x35B SWAP2 SWAP1 PUSH2 0x2449 JUMP JUMPDEST PUSH1 0x40 MLOAD DUP1 SWAP2 SUB SWAP1 RETURN JUMPDEST PUSH2 0x37E PUSH1 0x4 DUP1 CALLDATASIZE SUB DUP2 ADD SWAP1 PUSH2 0x379 SWAP2 SWAP1 PUSH2 0x1D5E JUMP JUMPDEST PUSH2 0x9F8 JUMP JUMPDEST STOP JUMPDEST PUSH2 0x39A PUSH1 0x4 DUP1 CALLDATASIZE SUB DUP2 ADD SWAP1 PUSH2 0x395 SWAP2 SWAP1 PUSH2 0x1D5E JUMP JUMPDEST PUSH2 0xA4C JUMP JUMPDEST PUSH1 0x40 MLOAD PUSH2 0x3A7 SWAP2 SWAP1 PUSH2 0x242E JUMP JUMPDEST PUSH1 0x40 MLOAD DUP1 SWAP2 SUB SWAP1 RETURN JUMPDEST PUSH2 0x3CA PUSH1 0x4 DUP1 CALLDATASIZE SUB DUP2 ADD SWAP1 PUSH2 0x3C5 SWAP2 SWAP1 PUSH2 0x1D5E JUMP JUMPDEST PUSH2 0xB37 JUMP JUMPDEST PUSH1 0x40 MLOAD PUSH2 0x3D7 SWAP2 SWAP1 PUSH2 0x242E JUMP JUMPDEST PUSH1 0x40 MLOAD DUP1 SWAP2 SUB SWAP1 RETURN JUMPDEST PUSH2 0x3FA PUSH1 0x4 DUP1 CALLDATASIZE SUB DUP2 ADD SWAP1 PUSH2 0x3F5 SWAP2 SWAP1 PUSH2 0x1C97 JUMP JUMPDEST PUSH2 0xB55 JUMP JUMPDEST PUSH1 0x40 MLOAD PUSH2 0x407 SWAP2 SWAP1 PUSH2 0x262B JUMP JUMPDEST PUSH1 0x40 MLOAD DUP1 SWAP2 SUB SWAP1 RETURN JUMPDEST PUSH2 0x42A PUSH1 0x4 DUP1 CALLDATASIZE SUB DUP2 ADD SWAP1 PUSH2 0x425 SWAP2 SWAP1 PUSH2 0x1C6E JUMP JUMPDEST PUSH2 0xBDC JUMP JUMPDEST STOP JUMPDEST PUSH2 0x446 PUSH1 0x4 DUP1 CALLDATASIZE SUB DUP2 ADD SWAP1 PUSH2 0x441 SWAP2 SWAP1 PUSH2 0x1D9A JUMP JUMPDEST PUSH2 0xCD4 JUMP JUMPDEST STOP JUMPDEST PUSH1 0x60 PUSH1 0x68 DUP1 SLOAD PUSH2 0x457 SWAP1 PUSH2 0x27FF JUMP JUMPDEST DUP1 PUSH1 0x1F ADD PUSH1 0x20 DUP1 SWAP2 DIV MUL PUSH1 0x20 ADD PUSH1 0x40 MLOAD SWAP1 DUP2 ADD PUSH1 0x40 MSTORE DUP1 SWAP3 SWAP2 SWAP1 DUP2 DUP2 MSTORE PUSH1 0x20 ADD DUP3 DUP1 SLOAD PUSH2 0x483 SWAP1 PUSH2 0x27FF JUMP JUMPDEST DUP1 ISZERO PUSH2 0x4D0 JUMPI DUP1 PUSH1 0x1F LT PUSH2 0x4A5 JUMPI PUSH2 0x100 DUP1 DUP4 SLOAD DIV MUL DUP4 MSTORE SWAP2 PUSH1 0x20 ADD SWAP2 PUSH2 0x4D0 JUMP JUMPDEST DUP3 ADD SWAP2 SWAP1 PUSH1 0x0 MSTORE PUSH1 0x20 PUSH1 0x0 KECCAK256 SWAP1 JUMPDEST DUP2 SLOAD DUP2 MSTORE SWAP1 PUSH1 0x1 ADD SWAP1 PUSH1 0x20 ADD DUP1 DUP4 GT PUSH2 0x4B3 JUMPI DUP3 SWAP1 SUB PUSH1 0x1F AND DUP3 ADD SWAP2 JUMPDEST POP POP POP POP POP SWAP1 POP SWAP1 JUMP JUMPDEST PUSH1 0x0 PUSH2 0x4EE PUSH2 0x4E7 PUSH2 0xDCD JUMP JUMPDEST DUP5 DUP5 PUSH2 0xDD5 JUMP JUMPDEST PUSH1 0x1 SWAP1 POP SWAP3 SWAP2 POP POP JUMP JUMPDEST PUSH1 0x0 PUSH1 0x67 SLOAD SWAP1 POP SWAP1 JUMP JUMPDEST PUSH1 0x0 PUSH2 0x50C PUSH2 0xDCD JUMP JUMPDEST PUSH20 0xFFFFFFFFFFFFFFFFFFFFFFFFFFFFFFFFFFFFFFFF AND PUSH2 0x52A PUSH2 0x93C JUMP JUMPDEST PUSH20 0xFFFFFFFFFFFFFFFFFFFFFFFFFFFFFFFFFFFFFFFF AND EQ PUSH2 0x580 JUMPI PUSH1 0x40 MLOAD PUSH32 0x8C379A000000000000000000000000000000000000000000000000000000000 DUP2 MSTORE PUSH1 0x4 ADD PUSH2 0x577 SWAP1 PUSH2 0x256B JUMP JUMPDEST PUSH1 0x40 MLOAD DUP1 SWAP2 SUB SWAP1 REVERT JUMPDEST DUP2 PUSH1 0x97 PUSH1 0x0 DUP6 PUSH20 0xFFFFFFFFFFFFFFFFFFFFFFFFFFFFFFFFFFFFFFFF AND PUSH20 0xFFFFFFFFFFFFFFFFFFFFFFFFFFFFFFFFFFFFFFFF AND DUP2 MSTORE PUSH1 0x20 ADD SWAP1 DUP2 MSTORE PUSH1 0x20 ADD PUSH1 0x0 KECCAK256 PUSH1 0x0 PUSH2 0x100 EXP DUP2 SLOAD DUP2 PUSH1 0xFF MUL NOT AND SWAP1 DUP4 ISZERO ISZERO MUL OR SWAP1 SSTORE POP PUSH1 0x1 SWAP1 POP SWAP3 SWAP2 POP POP JUMP JUMPDEST PUSH1 0x0 PUSH2 0x5EE DUP5 DUP5 DUP5 PUSH2 0xFA0 JUMP JUMPDEST PUSH1 0x0 PUSH1 0x66 PUSH1 0x0 DUP7 PUSH20 0xFFFFFFFFFFFFFFFFFFFFFFFFFFFFFFFFFFFFFFFF AND PUSH20 0xFFFFFFFFFFFFFFFFFFFFFFFFFFFFFFFFFFFFFFFF AND DUP2 MSTORE PUSH1 0x20 ADD SWAP1 DUP2 MSTORE PUSH1 0x20 ADD PUSH1 0x0 KECCAK256 PUSH1 0x0 PUSH2 0x639 PUSH2 0xDCD JUMP JUMPDEST PUSH20 0xFFFFFFFFFFFFFFFFFFFFFFFFFFFFFFFFFFFFFFFF AND PUSH20 0xFFFFFFFFFFFFFFFFFFFFFFFFFFFFFFFFFFFFFFFF AND DUP2 MSTORE PUSH1 0x20 ADD SWAP1 DUP2 MSTORE PUSH1 0x20 ADD PUSH1 0x0 KECCAK256 SLOAD SWAP1 POP DUP3 DUP2 LT ISZERO PUSH2 0x6B9 JUMPI PUSH1 0x40 MLOAD PUSH32 0x8C379A000000000000000000000000000000000000000000000000000000000 DUP2 MSTORE PUSH1 0x4 ADD PUSH2 0x6B0 SWAP1 PUSH2 0x254B JUMP JUMPDEST PUSH1 0x40 MLOAD DUP1 SWAP2 SUB SWAP1 REVERT JUMPDEST PUSH2 0x6CD DUP6 PUSH2 0x6C5 PUSH2 0xDCD JUMP JUMPDEST DUP6 DUP5 SUB PUSH2 0xDD5 JUMP JUMPDEST PUSH1 0x1 SWAP2 POP POP SWAP4 SWAP3 POP POP POP JUMP JUMPDEST PUSH1 0x0 PUSH1 0x12 SWAP1 POP SWAP1 JUMP JUMPDEST PUSH1 0x0 PUSH2 0x784 PUSH2 0x6EF PUSH2 0xDCD JUMP JUMPDEST DUP5 DUP5 PUSH1 0x66 PUSH1 0x0 PUSH2 0x6FD PUSH2 0xDCD JUMP JUMPDEST PUSH20 0xFFFFFFFFFFFFFFFFFFFFFFFFFFFFFFFFFFFFFFFF AND PUSH20 0xFFFFFFFFFFFFFFFFFFFFFFFFFFFFFFFFFFFFFFFF AND DUP2 MSTORE PUSH1 0x20 ADD SWAP1 DUP2 MSTORE PUSH1 0x20 ADD PUSH1 0x0 KECCAK256 PUSH1 0x0 DUP9 PUSH20 0xFFFFFFFFFFFFFFFFFFFFFFFFFFFFFFFFFFFFFFFF AND PUSH20 0xFFFFFFFFFFFFFFFFFFFFFFFFFFFFFFFFFFFFFFFF AND DUP2 MSTORE PUSH1 0x20 ADD SWAP1 DUP2 MSTORE PUSH1 0x20 ADD PUSH1 0x0 KECCAK256 SLOAD PUSH2 0x77F SWAP2 SWAP1 PUSH2 0x26DE JUMP JUMPDEST PUSH2 0xDD5 JUMP JUMPDEST PUSH1 0x1 SWAP1 POP SWAP3 SWAP2 POP POP JUMP JUMPDEST PUSH1 0x0 PUSH1 0x97 PUSH1 0x0 CALLER PUSH20 0xFFFFFFFFFFFFFFFFFFFFFFFFFFFFFFFFFFFFFFFF AND PUSH20 0xFFFFFFFFFFFFFFFFFFFFFFFFFFFFFFFFFFFFFFFF AND DUP2 MSTORE PUSH1 0x20 ADD SWAP1 DUP2 MSTORE PUSH1 0x20 ADD PUSH1 0x0 KECCAK256 PUSH1 0x0 SWAP1 SLOAD SWAP1 PUSH2 0x100 EXP SWAP1 DIV PUSH1 0xFF AND PUSH2 0x81C JUMPI PUSH1 0x40 MLOAD PUSH32 0x8C379A000000000000000000000000000000000000000000000000000000000 DUP2 MSTORE PUSH1 0x4 ADD PUSH2 0x813 SWAP1 PUSH2 0x250B JUMP JUMPDEST PUSH1 0x40 MLOAD DUP1 SWAP2 SUB SWAP1 REVERT JUMPDEST PUSH2 0x826 DUP4 DUP4 PUSH2 0x1224 JUMP JUMPDEST PUSH1 0x1 SWAP1 POP SWAP3 SWAP2 POP POP JUMP JUMPDEST PUSH2 0x83A CALLER DUP3 PUSH2 0x1385 JUMP JUMPDEST POP JUMP JUMPDEST PUSH1 0x97 PUSH1 0x20 MSTORE DUP1 PUSH1 0x0 MSTORE PUSH1 0x40 PUSH1 0x0 KECCAK256 PUSH1 0x0 SWAP2 POP SLOAD SWAP1 PUSH2 0x100 EXP SWAP1 DIV PUSH1 0xFF AND DUP2 JUMP JUMPDEST PUSH1 0x0 PUSH1 0x65 PUSH1 0x0 DUP4 PUSH20 0xFFFFFFFFFFFFFFFFFFFFFFFFFFFFFFFFFFFFFFFF AND PUSH20 0xFFFFFFFFFFFFFFFFFFFFFFFFFFFFFFFFFFFFFFFF AND DUP2 MSTORE PUSH1 0x20 ADD SWAP1 DUP2 MSTORE PUSH1 0x20 ADD PUSH1 0x0 KECCAK256 SLOAD SWAP1 POP SWAP2 SWAP1 POP JUMP JUMPDEST PUSH2 0x8AE PUSH2 0xDCD JUMP JUMPDEST PUSH20 0xFFFFFFFFFFFFFFFFFFFFFFFFFFFFFFFFFFFFFFFF AND PUSH2 0x8CC PUSH2 0x93C JUMP JUMPDEST PUSH20 0xFFFFFFFFFFFFFFFFFFFFFFFFFFFFFFFFFFFFFFFF AND EQ PUSH2 0x922 JUMPI PUSH1 0x40 MLOAD PUSH32 0x8C379A000000000000000000000000000000000000000000000000000000000 DUP2 MSTORE PUSH1 0x4 ADD PUSH2 0x919 SWAP1 PUSH2 0x256B JUMP JUMPDEST PUSH1 0x40 MLOAD DUP1 SWAP2 SUB SWAP1 REVERT JUMPDEST PUSH2 0x92C PUSH1 0x0 PUSH2 0x155E JUMP JUMPDEST JUMP JUMPDEST PUSH2 0x938 DUP3 DUP3 PUSH2 0x9F8 JUMP JUMPDEST POP POP JUMP JUMPDEST PUSH1 0x0 PUSH1 0x33 PUSH1 0x0 SWAP1 SLOAD SWAP1 PUSH2 0x100 EXP SWAP1 DIV PUSH20 0xFFFFFFFFFFFFFFFFFFFFFFFFFFFFFFFFFFFFFFFF AND SWAP1 POP SWAP1 JUMP JUMPDEST PUSH1 0x60 PUSH1 0x69 DUP1 SLOAD PUSH2 0x975 SWAP1 PUSH2 0x27FF JUMP JUMPDEST DUP1 PUSH1 0x1F ADD PUSH1 0x20 DUP1 SWAP2 DIV MUL PUSH1 0x20 ADD PUSH1 0x40 MLOAD SWAP1 DUP2 ADD PUSH1 0x40 MSTORE DUP1 SWAP3 SWAP2 SWAP1 DUP2 DUP2 MSTORE PUSH1 0x20 ADD DUP3 DUP1 SLOAD PUSH2 0x9A1 SWAP1 PUSH2 0x27FF JUMP JUMPDEST DUP1 ISZERO PUSH2 0x9EE JUMPI DUP1 PUSH1 0x1F LT PUSH2 0x9C3 JUMPI PUSH2 0x100 DUP1 DUP4 SLOAD DIV MUL DUP4 MSTORE SWAP2 PUSH1 0x20 ADD SWAP2 PUSH2 0x9EE JUMP JUMPDEST DUP3 ADD SWAP2 SWAP1 PUSH1 0x0 MSTORE PUSH1 0x20 PUSH1 0x0 KECCAK256 SWAP1 JUMPDEST DUP2 SLOAD DUP2 MSTORE SWAP1 PUSH1 0x1 ADD SWAP1 PUSH1 0x20 ADD DUP1 DUP4 GT PUSH2 0x9D1 JUMPI DUP3 SWAP1 SUB PUSH1 0x1F AND DUP3 ADD SWAP2 JUMPDEST POP POP POP POP POP SWAP1 POP SWAP1 JUMP JUMPDEST PUSH1 0x0 PUSH2 0xA30 DUP3 PUSH1 0x40 MLOAD DUP1 PUSH1 0x60 ADD PUSH1 0x40 MSTORE DUP1 PUSH1 0x24 DUP2 MSTORE PUSH1 0x20 ADD PUSH2 0x2915 PUSH1 0x24 SWAP2 CODECOPY PUSH2 0xA21 DUP7 CALLER PUSH2 0xB55 JUMP JUMPDEST PUSH2 0x1624 SWAP1 SWAP3 SWAP2 SWAP1 PUSH4 0xFFFFFFFF AND JUMP JUMPDEST SWAP1 POP PUSH2 0xA3D DUP4 CALLER DUP4 PUSH2 0xDD5 JUMP JUMPDEST PUSH2 0xA47 DUP4 DUP4 PUSH2 0x1385 JUMP JUMPDEST POP POP POP JUMP JUMPDEST PUSH1 0x0 DUP1 PUSH1 0x66 PUSH1 0x0 PUSH2 0xA5B PUSH2 0xDCD JUMP JUMPDEST PUSH20 0xFFFFFFFFFFFFFFFFFFFFFFFFFFFFFFFFFFFFFFFF AND PUSH20 0xFFFFFFFFFFFFFFFFFFFFFFFFFFFFFFFFFFFFFFFF AND DUP2 MSTORE PUSH1 0x20 ADD SWAP1 DUP2 MSTORE PUSH1 0x20 ADD PUSH1 0x0 KECCAK256 PUSH1 0x0 DUP6 PUSH20 0xFFFFFFFFFFFFFFFFFFFFFFFFFFFFFFFFFFFFFFFF AND PUSH20 0xFFFFFFFFFFFFFFFFFFFFFFFFFFFFFFFFFFFFFFFF AND DUP2 MSTORE PUSH1 0x20 ADD SWAP1 DUP2 MSTORE PUSH1 0x20 ADD PUSH1 0x0 KECCAK256 SLOAD SWAP1 POP DUP3 DUP2 LT ISZERO PUSH2 0xB18 JUMPI PUSH1 0x40 MLOAD PUSH32 0x8C379A000000000000000000000000000000000000000000000000000000000 DUP2 MSTORE PUSH1 0x4 ADD PUSH2 0xB0F SWAP1 PUSH2 0x25EB JUMP JUMPDEST PUSH1 0x40 MLOAD DUP1 SWAP2 SUB SWAP1 REVERT JUMPDEST PUSH2 0xB2C PUSH2 0xB23 PUSH2 0xDCD JUMP JUMPDEST DUP6 DUP6 DUP5 SUB PUSH2 0xDD5 JUMP JUMPDEST PUSH1 0x1 SWAP2 POP POP SWAP3 SWAP2 POP POP JUMP JUMPDEST PUSH1 0x0 PUSH2 0xB4B PUSH2 0xB44 PUSH2 0xDCD JUMP JUMPDEST DUP5 DUP5 PUSH2 0xFA0 JUMP JUMPDEST PUSH1 0x1 SWAP1 POP SWAP3 SWAP2 POP POP JUMP JUMPDEST PUSH1 0x0 PUSH1 0x66 PUSH1 0x0 DUP5 PUSH20 0xFFFFFFFFFFFFFFFFFFFFFFFFFFFFFFFFFFFFFFFF AND PUSH20 0xFFFFFFFFFFFFFFFFFFFFFFFFFFFFFFFFFFFFFFFF AND DUP2 MSTORE PUSH1 0x20 ADD SWAP1 DUP2 MSTORE PUSH1 0x20 ADD PUSH1 0x0 KECCAK256 PUSH1 0x0 DUP4 PUSH20 0xFFFFFFFFFFFFFFFFFFFFFFFFFFFFFFFFFFFFFFFF AND PUSH20 0xFFFFFFFFFFFFFFFFFFFFFFFFFFFFFFFFFFFFFFFF AND DUP2 MSTORE PUSH1 0x20 ADD SWAP1 DUP2 MSTORE PUSH1 0x20 ADD PUSH1 0x0 KECCAK256 SLOAD SWAP1 POP SWAP3 SWAP2 POP POP JUMP JUMPDEST PUSH2 0xBE4 PUSH2 0xDCD JUMP JUMPDEST PUSH20 0xFFFFFFFFFFFFFFFFFFFFFFFFFFFFFFFFFFFFFFFF AND PUSH2 0xC02 PUSH2 0x93C JUMP JUMPDEST PUSH20 0xFFFFFFFFFFFFFFFFFFFFFFFFFFFFFFFFFFFFFFFF AND EQ PUSH2 0xC58 JUMPI PUSH1 0x40 MLOAD PUSH32 0x8C379A000000000000000000000000000000000000000000000000000000000 DUP2 MSTORE PUSH1 0x4 ADD PUSH2 0xC4F SWAP1 PUSH2 0x256B JUMP JUMPDEST PUSH1 0x40 MLOAD DUP1 SWAP2 SUB SWAP1 REVERT JUMPDEST PUSH1 0x0 PUSH20 0xFFFFFFFFFFFFFFFFFFFFFFFFFFFFFFFFFFFFFFFF AND DUP2 PUSH20 0xFFFFFFFFFFFFFFFFFFFFFFFFFFFFFFFFFFFFFFFF AND EQ ISZERO PUSH2 0xCC8 JUMPI PUSH1 0x40 MLOAD PUSH32 0x8C379A000000000000000000000000000000000000000000000000000000000 DUP2 MSTORE PUSH1 0x4 ADD PUSH2 0xCBF SWAP1 PUSH2 0x24AB JUMP JUMPDEST PUSH1 0x40 MLOAD DUP1 SWAP2 SUB SWAP1 REVERT JUMPDEST PUSH2 0xCD1 DUP2 PUSH2 0x155E JUMP JUMPDEST POP JUMP JUMPDEST PUSH1 0x0 PUSH1 0x1 SWAP1 SLOAD SWAP1 PUSH2 0x100 EXP SWAP1 DIV PUSH1 0xFF AND DUP1 PUSH2 0xCFA JUMPI POP PUSH1 0x0 DUP1 SLOAD SWAP1 PUSH2 0x100 EXP SWAP1 DIV PUSH1 0xFF AND ISZERO JUMPDEST PUSH2 0xD39 JUMPI PUSH1 0x40 MLOAD PUSH32 0x8C379A000000000000000000000000000000000000000000000000000000000 DUP2 MSTORE PUSH1 0x4 ADD PUSH2 0xD30 SWAP1 PUSH2 0x252B JUMP JUMPDEST PUSH1 0x40 MLOAD DUP1 SWAP2 SUB SWAP1 REVERT JUMPDEST PUSH1 0x0 DUP1 PUSH1 0x1 SWAP1 SLOAD SWAP1 PUSH2 0x100 EXP SWAP1 DIV PUSH1 0xFF AND ISZERO SWAP1 POP DUP1 ISZERO PUSH2 0xD89 JUMPI PUSH1 0x1 PUSH1 0x0 PUSH1 0x1 PUSH2 0x100 EXP DUP2 SLOAD DUP2 PUSH1 0xFF MUL NOT AND SWAP1 DUP4 ISZERO ISZERO MUL OR SWAP1 SSTORE POP PUSH1 0x1 PUSH1 0x0 DUP1 PUSH2 0x100 EXP DUP2 SLOAD DUP2 PUSH1 0xFF MUL NOT AND SWAP1 DUP4 ISZERO ISZERO MUL OR SWAP1 SSTORE POP JUMPDEST PUSH2 0xD91 PUSH2 0x1679 JUMP JUMPDEST PUSH2 0xD9B DUP6 DUP6 PUSH2 0x1762 JUMP JUMPDEST PUSH2 0xDA5 DUP4 DUP4 PUSH2 0x1224 JUMP JUMPDEST DUP1 ISZERO PUSH2 0xDC6 JUMPI PUSH1 0x0 DUP1 PUSH1 0x1 PUSH2 0x100 EXP DUP2 SLOAD DUP2 PUSH1 0xFF MUL NOT AND SWAP1 DUP4 ISZERO ISZERO MUL OR SWAP1 SSTORE POP JUMPDEST POP POP POP POP POP JUMP JUMPDEST PUSH1 0x0 CALLER SWAP1 POP SWAP1 JUMP JUMPDEST PUSH1 0x0 PUSH20 0xFFFFFFFFFFFFFFFFFFFFFFFFFFFFFFFFFFFFFFFF AND DUP4 PUSH20 0xFFFFFFFFFFFFFFFFFFFFFFFFFFFFFFFFFFFFFFFF AND EQ ISZERO PUSH2 0xE45 JUMPI PUSH1 0x40 MLOAD PUSH32 0x8C379A000000000000000000000000000000000000000000000000000000000 DUP2 MSTORE PUSH1 0x4 ADD PUSH2 0xE3C SWAP1 PUSH2 0x25CB JUMP JUMPDEST PUSH1 0x40 MLOAD DUP1 SWAP2 SUB SWAP1 REVERT JUMPDEST PUSH1 0x0 PUSH20 0xFFFFFFFFFFFFFFFFFFFFFFFFFFFFFFFFFFFFFFFF AND DUP3 PUSH20 0xFFFFFFFFFFFFFFFFFFFFFFFFFFFFFFFFFFFFFFFF AND EQ ISZERO PUSH2 0xEB5 JUMPI PUSH1 0x40 MLOAD PUSH32 0x8C379A000000000000000000000000000000000000000000000000000000000 DUP2 MSTORE PUSH1 0x4 ADD PUSH2 0xEAC SWAP1 PUSH2 0x24CB JUMP JUMPDEST PUSH1 0x40 MLOAD DUP1 SWAP2 SUB SWAP1 REVERT JUMPDEST DUP1 PUSH1 0x66 PUSH1 0x0 DUP6 PUSH20 0xFFFFFFFFFFFFFFFFFFFFFFFFFFFFFFFFFFFFFFFF AND PUSH20 0xFFFFFFFFFFFFFFFFFFFFFFFFFFFFFFFFFFFFFFFF AND DUP2 MSTORE PUSH1 0x20 ADD SWAP1 DUP2 MSTORE PUSH1 0x20 ADD PUSH1 0x0 KECCAK256 PUSH1 0x0 DUP5 PUSH20 0xFFFFFFFFFFFFFFFFFFFFFFFFFFFFFFFFFFFFFFFF AND PUSH20 0xFFFFFFFFFFFFFFFFFFFFFFFFFFFFFFFFFFFFFFFF AND DUP2 MSTORE PUSH1 0x20 ADD SWAP1 DUP2 MSTORE PUSH1 0x20 ADD PUSH1 0x0 KECCAK256 DUP2 SWAP1 SSTORE POP DUP2 PUSH20 0xFFFFFFFFFFFFFFFFFFFFFFFFFFFFFFFFFFFFFFFF AND DUP4 PUSH20 0xFFFFFFFFFFFFFFFFFFFFFFFFFFFFFFFFFFFFFFFF AND PUSH32 0x8C5BE1E5EBEC7D5BD14F71427D1E84F3DD0314C0F7B2291E5B200AC8C7C3B925 DUP4 PUSH1 0x40 MLOAD PUSH2 0xF93 SWAP2 SWAP1 PUSH2 0x262B JUMP JUMPDEST PUSH1 0x40 MLOAD DUP1 SWAP2 SUB SWAP1 LOG3 POP POP POP JUMP JUMPDEST PUSH1 0x0 PUSH20 0xFFFFFFFFFFFFFFFFFFFFFFFFFFFFFFFFFFFFFFFF AND DUP4 PUSH20 0xFFFFFFFFFFFFFFFFFFFFFFFFFFFFFFFFFFFFFFFF AND EQ ISZERO PUSH2 0x1010 JUMPI PUSH1 0x40 MLOAD PUSH32 0x8C379A000000000000000000000000000000000000000000000000000000000 DUP2 MSTORE PUSH1 0x4 ADD PUSH2 0x1007 SWAP1 PUSH2 0x25AB JUMP JUMPDEST PUSH1 0x40 MLOAD DUP1 SWAP2 SUB SWAP1 REVERT JUMPDEST PUSH1 0x0 PUSH20 0xFFFFFFFFFFFFFFFFFFFFFFFFFFFFFFFFFFFFFFFF AND DUP3 PUSH20 0xFFFFFFFFFFFFFFFFFFFFFFFFFFFFFFFFFFFFFFFF AND EQ ISZERO PUSH2 0x1080 JUMPI PUSH1 0x40 MLOAD PUSH32 0x8C379A000000000000000000000000000000000000000000000000000000000 DUP2 MSTORE PUSH1 0x4 ADD PUSH2 0x1077 SWAP1 PUSH2 0x246B JUMP JUMPDEST PUSH1 0x40 MLOAD DUP1 SWAP2 SUB SWAP1 REVERT JUMPDEST PUSH2 0x108B DUP4 DUP4 DUP4 PUSH2 0x184F JUMP JUMPDEST PUSH1 0x0 PUSH1 0x65 PUSH1 0x0 DUP6 PUSH20 0xFFFFFFFFFFFFFFFFFFFFFFFFFFFFFFFFFFFFFFFF AND PUSH20 0xFFFFFFFFFFFFFFFFFFFFFFFFFFFFFFFFFFFFFFFF AND DUP2 MSTORE PUSH1 0x20 ADD SWAP1 DUP2 MSTORE PUSH1 0x20 ADD PUSH1 0x0 KECCAK256 SLOAD SWAP1 POP DUP2 DUP2 LT ISZERO PUSH2 0x1112 JUMPI PUSH1 0x40 MLOAD PUSH32 0x8C379A000000000000000000000000000000000000000000000000000000000 DUP2 MSTORE PUSH1 0x4 ADD PUSH2 0x1109 SWAP1 PUSH2 0x24EB JUMP JUMPDEST PUSH1 0x40 MLOAD DUP1 SWAP2 SUB SWAP1 REVERT JUMPDEST DUP2 DUP2 SUB PUSH1 0x65 PUSH1 0x0 DUP7 PUSH20 0xFFFFFFFFFFFFFFFFFFFFFFFFFFFFFFFFFFFFFFFF AND PUSH20 0xFFFFFFFFFFFFFFFFFFFFFFFFFFFFFFFFFFFFFFFF AND DUP2 MSTORE PUSH1 0x20 ADD SWAP1 DUP2 MSTORE PUSH1 0x20 ADD PUSH1 0x0 KECCAK256 DUP2 SWAP1 SSTORE POP DUP2 PUSH1 0x65 PUSH1 0x0 DUP6 PUSH20 0xFFFFFFFFFFFFFFFFFFFFFFFFFFFFFFFFFFFFFFFF AND PUSH20 0xFFFFFFFFFFFFFFFFFFFFFFFFFFFFFFFFFFFFFFFF AND DUP2 MSTORE PUSH1 0x20 ADD SWAP1 DUP2 MSTORE PUSH1 0x20 ADD PUSH1 0x0 KECCAK256 PUSH1 0x0 DUP3 DUP3 SLOAD PUSH2 0x11A7 SWAP2 SWAP1 PUSH2 0x26DE JUMP JUMPDEST SWAP3 POP POP DUP2 SWAP1 SSTORE POP DUP3 PUSH20 0xFFFFFFFFFFFFFFFFFFFFFFFFFFFFFFFFFFFFFFFF AND DUP5 PUSH20 0xFFFFFFFFFFFFFFFFFFFFFFFFFFFFFFFFFFFFFFFF AND PUSH32 0xDDF252AD1BE2C89B69C2B068FC378DAA952BA7F163C4A11628F55A4DF523B3EF DUP5 PUSH1 0x40 MLOAD PUSH2 0x120B SWAP2 SWAP1 PUSH2 0x262B JUMP JUMPDEST PUSH1 0x40 MLOAD DUP1 SWAP2 SUB SWAP1 LOG3 PUSH2 0x121E DUP5 DUP5 DUP5 PUSH2 0x1854 JUMP JUMPDEST POP POP POP POP JUMP JUMPDEST PUSH1 0x0 PUSH20 0xFFFFFFFFFFFFFFFFFFFFFFFFFFFFFFFFFFFFFFFF AND DUP3 PUSH20 0xFFFFFFFFFFFFFFFFFFFFFFFFFFFFFFFFFFFFFFFF AND EQ ISZERO PUSH2 0x1294 JUMPI PUSH1 0x40 MLOAD PUSH32 0x8C379A000000000000000000000000000000000000000000000000000000000 DUP2 MSTORE PUSH1 0x4 ADD PUSH2 0x128B SWAP1 PUSH2 0x260B JUMP JUMPDEST PUSH1 0x40 MLOAD DUP1 SWAP2 SUB SWAP1 REVERT JUMPDEST PUSH2 0x12A0 PUSH1 0x0 DUP4 DUP4 PUSH2 0x184F JUMP JUMPDEST DUP1 PUSH1 0x67 PUSH1 0x0 DUP3 DUP3 SLOAD PUSH2 0x12B2 SWAP2 SWAP1 PUSH2 0x26DE JUMP JUMPDEST SWAP3 POP POP DUP2 SWAP1 SSTORE POP DUP1 PUSH1 0x65 PUSH1 0x0 DUP5 PUSH20 0xFFFFFFFFFFFFFFFFFFFFFFFFFFFFFFFFFFFFFFFF AND PUSH20 0xFFFFFFFFFFFFFFFFFFFFFFFFFFFFFFFFFFFFFFFF AND DUP2 MSTORE PUSH1 0x20 ADD SWAP1 DUP2 MSTORE PUSH1 0x20 ADD PUSH1 0x0 KECCAK256 PUSH1 0x0 DUP3 DUP3 SLOAD PUSH2 0x1308 SWAP2 SWAP1 PUSH2 0x26DE JUMP JUMPDEST SWAP3 POP POP DUP2 SWAP1 SSTORE POP DUP2 PUSH20 0xFFFFFFFFFFFFFFFFFFFFFFFFFFFFFFFFFFFFFFFF AND PUSH1 0x0 PUSH20 0xFFFFFFFFFFFFFFFFFFFFFFFFFFFFFFFFFFFFFFFF AND PUSH32 0xDDF252AD1BE2C89B69C2B068FC378DAA952BA7F163C4A11628F55A4DF523B3EF DUP4 PUSH1 0x40 MLOAD PUSH2 0x136D SWAP2 SWAP1 PUSH2 0x262B JUMP JUMPDEST PUSH1 0x40 MLOAD DUP1 SWAP2 SUB SWAP1 LOG3 PUSH2 0x1381 PUSH1 0x0 DUP4 DUP4 PUSH2 0x1854 JUMP JUMPDEST POP POP JUMP JUMPDEST PUSH1 0x0 PUSH20 0xFFFFFFFFFFFFFFFFFFFFFFFFFFFFFFFFFFFFFFFF AND DUP3 PUSH20 0xFFFFFFFFFFFFFFFFFFFFFFFFFFFFFFFFFFFFFFFF AND EQ ISZERO PUSH2 0x13F5 JUMPI PUSH1 0x40 MLOAD PUSH32 0x8C379A000000000000000000000000000000000000000000000000000000000 DUP2 MSTORE PUSH1 0x4 ADD PUSH2 0x13EC SWAP1 PUSH2 0x258B JUMP JUMPDEST PUSH1 0x40 MLOAD DUP1 SWAP2 SUB SWAP1 REVERT JUMPDEST PUSH2 0x1401 DUP3 PUSH1 0x0 DUP4 PUSH2 0x184F JUMP JUMPDEST PUSH1 0x0 PUSH1 0x65 PUSH1 0x0 DUP5 PUSH20 0xFFFFFFFFFFFFFFFFFFFFFFFFFFFFFFFFFFFFFFFF AND PUSH20 0xFFFFFFFFFFFFFFFFFFFFFFFFFFFFFFFFFFFFFFFF AND DUP2 MSTORE PUSH1 0x20 ADD SWAP1 DUP2 MSTORE PUSH1 0x20 ADD PUSH1 0x0 KECCAK256 SLOAD SWAP1 POP DUP2 DUP2 LT ISZERO PUSH2 0x1488 JUMPI PUSH1 0x40 MLOAD PUSH32 0x8C379A000000000000000000000000000000000000000000000000000000000 DUP2 MSTORE PUSH1 0x4 ADD PUSH2 0x147F SWAP1 PUSH2 0x248B JUMP JUMPDEST PUSH1 0x40 MLOAD DUP1 SWAP2 SUB SWAP1 REVERT JUMPDEST DUP2 DUP2 SUB PUSH1 0x65 PUSH1 0x0 DUP6 PUSH20 0xFFFFFFFFFFFFFFFFFFFFFFFFFFFFFFFFFFFFFFFF AND PUSH20 0xFFFFFFFFFFFFFFFFFFFFFFFFFFFFFFFFFFFFFFFF AND DUP2 MSTORE PUSH1 0x20 ADD SWAP1 DUP2 MSTORE PUSH1 0x20 ADD PUSH1 0x0 KECCAK256 DUP2 SWAP1 SSTORE POP DUP2 PUSH1 0x67 PUSH1 0x0 DUP3 DUP3 SLOAD PUSH2 0x14E0 SWAP2 SWAP1 PUSH2 0x2734 JUMP JUMPDEST SWAP3 POP POP DUP2 SWAP1 SSTORE POP PUSH1 0x0 PUSH20 0xFFFFFFFFFFFFFFFFFFFFFFFFFFFFFFFFFFFFFFFF AND DUP4 PUSH20 0xFFFFFFFFFFFFFFFFFFFFFFFFFFFFFFFFFFFFFFFF AND PUSH32 0xDDF252AD1BE2C89B69C2B068FC378DAA952BA7F163C4A11628F55A4DF523B3EF DUP5 PUSH1 0x40 MLOAD PUSH2 0x1545 SWAP2 SWAP1 PUSH2 0x262B JUMP JUMPDEST PUSH1 0x40 MLOAD DUP1 SWAP2 SUB SWAP1 LOG3 PUSH2 0x1559 DUP4 PUSH1 0x0 DUP5 PUSH2 0x1854 JUMP JUMPDEST POP POP POP JUMP JUMPDEST PUSH1 0x0 PUSH1 0x33 PUSH1 0x0 SWAP1 SLOAD SWAP1 PUSH2 0x100 EXP SWAP1 DIV PUSH20 0xFFFFFFFFFFFFFFFFFFFFFFFFFFFFFFFFFFFFFFFF AND SWAP1 POP DUP2 PUSH1 0x33 PUSH1 0x0 PUSH2 0x100 EXP DUP2 SLOAD DUP2 PUSH20 0xFFFFFFFFFFFFFFFFFFFFFFFFFFFFFFFFFFFFFFFF MUL NOT AND SWAP1 DUP4 PUSH20 0xFFFFFFFFFFFFFFFFFFFFFFFFFFFFFFFFFFFFFFFF AND MUL OR SWAP1 SSTORE POP DUP2 PUSH20 0xFFFFFFFFFFFFFFFFFFFFFFFFFFFFFFFFFFFFFFFF AND DUP2 PUSH20 0xFFFFFFFFFFFFFFFFFFFFFFFFFFFFFFFFFFFFFFFF AND PUSH32 0x8BE0079C531659141344CD1FD0A4F28419497F9722A3DAAFE3B4186F6B6457E0 PUSH1 0x40 MLOAD PUSH1 0x40 MLOAD DUP1 SWAP2 SUB SWAP1 LOG3 POP POP JUMP JUMPDEST PUSH1 0x0 DUP4 DUP4 GT ISZERO DUP3 SWAP1 PUSH2 0x166C JUMPI PUSH1 0x40 MLOAD PUSH32 0x8C379A000000000000000000000000000000000000000000000000000000000 DUP2 MSTORE PUSH1 0x4 ADD PUSH2 0x1663 SWAP2 SWAP1 PUSH2 0x2449 JUMP JUMPDEST PUSH1 0x40 MLOAD DUP1 SWAP2 SUB SWAP1 REVERT JUMPDEST POP DUP3 DUP5 SUB SWAP1 POP SWAP4 SWAP3 POP POP POP JUMP JUMPDEST PUSH1 0x0 PUSH1 0x1 SWAP1 SLOAD SWAP1 PUSH2 0x100 EXP SWAP1 DIV PUSH1 0xFF AND DUP1 PUSH2 0x169F JUMPI POP PUSH1 0x0 DUP1 SLOAD SWAP1 PUSH2 0x100 EXP SWAP1 DIV PUSH1 0xFF AND ISZERO JUMPDEST PUSH2 0x16DE JUMPI PUSH1 0x40 MLOAD PUSH32 0x8C379A000000000000000000000000000000000000000000000000000000000 DUP2 MSTORE PUSH1 0x4 ADD PUSH2 0x16D5 SWAP1 PUSH2 0x252B JUMP JUMPDEST PUSH1 0x40 MLOAD DUP1 SWAP2 SUB SWAP1 REVERT JUMPDEST PUSH1 0x0 DUP1 PUSH1 0x1 SWAP1 SLOAD SWAP1 PUSH2 0x100 EXP SWAP1 DIV PUSH1 0xFF AND ISZERO SWAP1 POP DUP1 ISZERO PUSH2 0x172E JUMPI PUSH1 0x1 PUSH1 0x0 PUSH1 0x1 PUSH2 0x100 EXP DUP2 SLOAD DUP2 PUSH1 0xFF MUL NOT AND SWAP1 DUP4 ISZERO ISZERO MUL OR SWAP1 SSTORE POP PUSH1 0x1 PUSH1 0x0 DUP1 PUSH2 0x100 EXP DUP2 SLOAD DUP2 PUSH1 0xFF MUL NOT AND SWAP1 DUP4 ISZERO ISZERO MUL OR SWAP1 SSTORE POP JUMPDEST PUSH2 0x1736 PUSH2 0x1859 JUMP JUMPDEST PUSH2 0x173E PUSH2 0x1932 JUMP JUMPDEST DUP1 ISZERO PUSH2 0x175F JUMPI PUSH1 0x0 DUP1 PUSH1 0x1 PUSH2 0x100 EXP DUP2 SLOAD DUP2 PUSH1 0xFF MUL NOT AND SWAP1 DUP4 ISZERO ISZERO MUL OR SWAP1 SSTORE POP JUMPDEST POP JUMP JUMPDEST PUSH1 0x0 PUSH1 0x1 SWAP1 SLOAD SWAP1 PUSH2 0x100 EXP SWAP1 DIV PUSH1 0xFF AND DUP1 PUSH2 0x1788 JUMPI POP PUSH1 0x0 DUP1 SLOAD SWAP1 PUSH2 0x100 EXP SWAP1 DIV PUSH1 0xFF AND ISZERO JUMPDEST PUSH2 0x17C7 JUMPI PUSH1 0x40 MLOAD PUSH32 0x8C379A000000000000000000000000000000000000000000000000000000000 DUP2 MSTORE PUSH1 0x4 ADD PUSH2 0x17BE SWAP1 PUSH2 0x252B JUMP JUMPDEST PUSH1 0x40 MLOAD DUP1 SWAP2 SUB SWAP1 REVERT JUMPDEST PUSH1 0x0 DUP1 PUSH1 0x1 SWAP1 SLOAD SWAP1 PUSH2 0x100 EXP SWAP1 DIV PUSH1 0xFF AND ISZERO SWAP1 POP DUP1 ISZERO PUSH2 0x1817 JUMPI PUSH1 0x1 PUSH1 0x0 PUSH1 0x1 PUSH2 0x100 EXP DUP2 SLOAD DUP2 PUSH1 0xFF MUL NOT AND SWAP1 DUP4 ISZERO ISZERO MUL OR SWAP1 SSTORE POP PUSH1 0x1 PUSH1 0x0 DUP1 PUSH2 0x100 EXP DUP2 SLOAD DUP2 PUSH1 0xFF MUL NOT AND SWAP1 DUP4 ISZERO ISZERO MUL OR SWAP1 SSTORE POP JUMPDEST PUSH2 0x181F PUSH2 0x1859 JUMP JUMPDEST PUSH2 0x1829 DUP4 DUP4 PUSH2 0x1A1B JUMP JUMPDEST DUP1 ISZERO PUSH2 0x184A JUMPI PUSH1 0x0 DUP1 PUSH1 0x1 PUSH2 0x100 EXP DUP2 SLOAD DUP2 PUSH1 0xFF MUL NOT AND SWAP1 DUP4 ISZERO ISZERO MUL OR SWAP1 SSTORE POP JUMPDEST POP POP POP JUMP JUMPDEST POP POP POP JUMP JUMPDEST POP POP POP JUMP JUMPDEST PUSH1 0x0 PUSH1 0x1 SWAP1 SLOAD SWAP1 PUSH2 0x100 EXP SWAP1 DIV PUSH1 0xFF AND DUP1 PUSH2 0x187F JUMPI POP PUSH1 0x0 DUP1 SLOAD SWAP1 PUSH2 0x100 EXP SWAP1 DIV PUSH1 0xFF AND ISZERO JUMPDEST PUSH2 0x18BE JUMPI PUSH1 0x40 MLOAD PUSH32 0x8C379A000000000000000000000000000000000000000000000000000000000 DUP2 MSTORE PUSH1 0x4 ADD PUSH2 0x18B5 SWAP1 PUSH2 0x252B JUMP JUMPDEST PUSH1 0x40 MLOAD DUP1 SWAP2 SUB SWAP1 REVERT JUMPDEST PUSH1 0x0 DUP1 PUSH1 0x1 SWAP1 SLOAD SWAP1 PUSH2 0x100 EXP SWAP1 DIV PUSH1 0xFF AND ISZERO SWAP1 POP DUP1 ISZERO PUSH2 0x190E JUMPI PUSH1 0x1 PUSH1 0x0 PUSH1 0x1 PUSH2 0x100 EXP DUP2 SLOAD DUP2 PUSH1 0xFF MUL NOT AND SWAP1 DUP4 ISZERO ISZERO MUL OR SWAP1 SSTORE POP PUSH1 0x1 PUSH1 0x0 DUP1 PUSH2 0x100 EXP DUP2 SLOAD DUP2 PUSH1 0xFF MUL NOT AND SWAP1 DUP4 ISZERO ISZERO MUL OR SWAP1 SSTORE POP JUMPDEST DUP1 ISZERO PUSH2 0x192F JUMPI PUSH1 0x0 DUP1 PUSH1 0x1 PUSH2 0x100 EXP DUP2 SLOAD DUP2 PUSH1 0xFF MUL NOT AND SWAP1 DUP4 ISZERO ISZERO MUL OR SWAP1 SSTORE POP JUMPDEST POP JUMP JUMPDEST PUSH1 0x0 PUSH1 0x1 SWAP1 SLOAD SWAP1 PUSH2 0x100 EXP SWAP1 DIV PUSH1 0xFF AND DUP1 PUSH2 0x1958 JUMPI POP PUSH1 0x0 DUP1 SLOAD SWAP1 PUSH2 0x100 EXP SWAP1 DIV PUSH1 0xFF AND ISZERO JUMPDEST PUSH2 0x1997 JUMPI PUSH1 0x40 MLOAD PUSH32 0x8C379A000000000000000000000000000000000000000000000000000000000 DUP2 MSTORE PUSH1 0x4 ADD PUSH2 0x198E SWAP1 PUSH2 0x252B JUMP JUMPDEST PUSH1 0x40 MLOAD DUP1 SWAP2 SUB SWAP1 REVERT JUMPDEST PUSH1 0x0 DUP1 PUSH1 0x1 SWAP1 SLOAD SWAP1 PUSH2 0x100 EXP SWAP1 DIV PUSH1 0xFF AND ISZERO SWAP1 POP DUP1 ISZERO PUSH2 0x19E7 JUMPI PUSH1 0x1 PUSH1 0x0 PUSH1 0x1 PUSH2 0x100 EXP DUP2 SLOAD DUP2 PUSH1 0xFF MUL NOT AND SWAP1 DUP4 ISZERO ISZERO MUL OR SWAP1 SSTORE POP PUSH1 0x1 PUSH1 0x0 DUP1 PUSH2 0x100 EXP DUP2 SLOAD DUP2 PUSH1 0xFF MUL NOT AND SWAP1 DUP4 ISZERO ISZERO MUL OR SWAP1 SSTORE POP JUMPDEST PUSH2 0x19F7 PUSH2 0x19F2 PUSH2 0xDCD JUMP JUMPDEST PUSH2 0x155E JUMP JUMPDEST DUP1 ISZERO PUSH2 0x1A18 JUMPI PUSH1 0x0 DUP1 PUSH1 0x1 PUSH2 0x100 EXP DUP2 SLOAD DUP2 PUSH1 0xFF MUL NOT AND SWAP1 DUP4 ISZERO ISZERO MUL OR SWAP1 SSTORE POP JUMPDEST POP JUMP JUMPDEST PUSH1 0x0 PUSH1 0x1 SWAP1 SLOAD SWAP1 PUSH2 0x100 EXP SWAP1 DIV PUSH1 0xFF AND DUP1 PUSH2 0x1A41 JUMPI POP PUSH1 0x0 DUP1 SLOAD SWAP1 PUSH2 0x100 EXP SWAP1 DIV PUSH1 0xFF AND ISZERO JUMPDEST PUSH2 0x1A80 JUMPI PUSH1 0x40 MLOAD PUSH32 0x8C379A000000000000000000000000000000000000000000000000000000000 DUP2 MSTORE PUSH1 0x4 ADD PUSH2 0x1A77 SWAP1 PUSH2 0x252B JUMP JUMPDEST PUSH1 0x40 MLOAD DUP1 SWAP2 SUB SWAP1 REVERT JUMPDEST PUSH1 0x0 DUP1 PUSH1 0x1 SWAP1 SLOAD SWAP1 PUSH2 0x100 EXP SWAP1 DIV PUSH1 0xFF AND ISZERO SWAP1 POP DUP1 ISZERO PUSH2 0x1AD0 JUMPI PUSH1 0x1 PUSH1 0x0 PUSH1 0x1 PUSH2 0x100 EXP DUP2 SLOAD DUP2 PUSH1 0xFF MUL NOT AND SWAP1 DUP4 ISZERO ISZERO MUL OR SWAP1 SSTORE POP PUSH1 0x1 PUSH1 0x0 DUP1 PUSH2 0x100 EXP DUP2 SLOAD DUP2 PUSH1 0xFF MUL NOT AND SWAP1 DUP4 ISZERO ISZERO MUL OR SWAP1 SSTORE POP JUMPDEST DUP3 PUSH1 0x68 SWAP1 DUP1 MLOAD SWAP1 PUSH1 0x20 ADD SWAP1 PUSH2 0x1AE6 SWAP3 SWAP2 SWAP1 PUSH2 0x1B24 JUMP JUMPDEST POP DUP2 PUSH1 0x69 SWAP1 DUP1 MLOAD SWAP1 PUSH1 0x20 ADD SWAP1 PUSH2 0x1AFD SWAP3 SWAP2 SWAP1 PUSH2 0x1B24 JUMP JUMPDEST POP DUP1 ISZERO PUSH2 0x1B1F JUMPI PUSH1 0x0 DUP1 PUSH1 0x1 PUSH2 0x100 EXP DUP2 SLOAD DUP2 PUSH1 0xFF MUL NOT AND SWAP1 DUP4 ISZERO ISZERO MUL OR SWAP1 SSTORE POP JUMPDEST POP POP POP JUMP JUMPDEST DUP3 DUP1 SLOAD PUSH2 0x1B30 SWAP1 PUSH2 0x27FF JUMP JUMPDEST SWAP1 PUSH1 0x0 MSTORE PUSH1 0x20 PUSH1 0x0 KECCAK256 SWAP1 PUSH1 0x1F ADD PUSH1 0x20 SWAP1 DIV DUP2 ADD SWAP3 DUP3 PUSH2 0x1B52 JUMPI PUSH1 0x0 DUP6 SSTORE PUSH2 0x1B99 JUMP JUMPDEST DUP3 PUSH1 0x1F LT PUSH2 0x1B6B JUMPI DUP1 MLOAD PUSH1 0xFF NOT AND DUP4 DUP1 ADD OR DUP6 SSTORE PUSH2 0x1B99 JUMP JUMPDEST DUP3 DUP1 ADD PUSH1 0x1 ADD DUP6 SSTORE DUP3 ISZERO PUSH2 0x1B99 JUMPI SWAP2 DUP3 ADD JUMPDEST DUP3 DUP2 GT ISZERO PUSH2 0x1B98 JUMPI DUP3 MLOAD DUP3 SSTORE SWAP2 PUSH1 0x20 ADD SWAP2 SWAP1 PUSH1 0x1 ADD SWAP1 PUSH2 0x1B7D JUMP JUMPDEST JUMPDEST POP SWAP1 POP PUSH2 0x1BA6 SWAP2 SWAP1 PUSH2 0x1BAA JUMP JUMPDEST POP SWAP1 JUMP JUMPDEST JUMPDEST DUP1 DUP3 GT ISZERO PUSH2 0x1BC3 JUMPI PUSH1 0x0 DUP2 PUSH1 0x0 SWAP1 SSTORE POP PUSH1 0x1 ADD PUSH2 0x1BAB JUMP JUMPDEST POP SWAP1 JUMP JUMPDEST PUSH1 0x0 PUSH2 0x1BDA PUSH2 0x1BD5 DUP5 PUSH2 0x2692 JUMP JUMPDEST PUSH2 0x2661 JUMP JUMPDEST SWAP1 POP DUP3 DUP2 MSTORE PUSH1 0x20 DUP2 ADD DUP5 DUP5 DUP5 ADD GT ISZERO PUSH2 0x1BF2 JUMPI PUSH1 0x0 DUP1 REVERT JUMPDEST PUSH2 0x1BFD DUP5 DUP3 DUP6 PUSH2 0x27BD JUMP JUMPDEST POP SWAP4 SWAP3 POP POP POP JUMP JUMPDEST PUSH1 0x0 DUP2 CALLDATALOAD SWAP1 POP PUSH2 0x1C14 DUP2 PUSH2 0x28CF JUMP JUMPDEST SWAP3 SWAP2 POP POP JUMP JUMPDEST PUSH1 0x0 DUP2 CALLDATALOAD SWAP1 POP PUSH2 0x1C29 DUP2 PUSH2 0x28E6 JUMP JUMPDEST SWAP3 SWAP2 POP POP JUMP JUMPDEST PUSH1 0x0 DUP3 PUSH1 0x1F DUP4 ADD SLT PUSH2 0x1C40 JUMPI PUSH1 0x0 DUP1 REVERT JUMPDEST DUP2 CALLDATALOAD PUSH2 0x1C50 DUP5 DUP3 PUSH1 0x20 DUP7 ADD PUSH2 0x1BC7 JUMP JUMPDEST SWAP2 POP POP SWAP3 SWAP2 POP POP JUMP JUMPDEST PUSH1 0x0 DUP2 CALLDATALOAD SWAP1 POP PUSH2 0x1C68 DUP2 PUSH2 0x28FD JUMP JUMPDEST SWAP3 SWAP2 POP POP JUMP JUMPDEST PUSH1 0x0 PUSH1 0x20 DUP3 DUP5 SUB SLT ISZERO PUSH2 0x1C80 JUMPI PUSH1 0x0 DUP1 REVERT JUMPDEST PUSH1 0x0 PUSH2 0x1C8E DUP5 DUP3 DUP6 ADD PUSH2 0x1C05 JUMP JUMPDEST SWAP2 POP POP SWAP3 SWAP2 POP POP JUMP JUMPDEST PUSH1 0x0 DUP1 PUSH1 0x40 DUP4 DUP6 SUB SLT ISZERO PUSH2 0x1CAA JUMPI PUSH1 0x0 DUP1 REVERT JUMPDEST PUSH1 0x0 PUSH2 0x1CB8 DUP6 DUP3 DUP7 ADD PUSH2 0x1C05 JUMP JUMPDEST SWAP3 POP POP PUSH1 0x20 PUSH2 0x1CC9 DUP6 DUP3 DUP7 ADD PUSH2 0x1C05 JUMP JUMPDEST SWAP2 POP POP SWAP3 POP SWAP3 SWAP1 POP JUMP JUMPDEST PUSH1 0x0 DUP1 PUSH1 0x0 PUSH1 0x60 DUP5 DUP7 SUB SLT ISZERO PUSH2 0x1CE8 JUMPI PUSH1 0x0 DUP1 REVERT JUMPDEST PUSH1 0x0 PUSH2 0x1CF6 DUP7 DUP3 DUP8 ADD PUSH2 0x1C05 JUMP JUMPDEST SWAP4 POP POP PUSH1 0x20 PUSH2 0x1D07 DUP7 DUP3 DUP8 ADD PUSH2 0x1C05 JUMP JUMPDEST SWAP3 POP POP PUSH1 0x40 PUSH2 0x1D18 DUP7 DUP3 DUP8 ADD PUSH2 0x1C59 JUMP JUMPDEST SWAP2 POP POP SWAP3 POP SWAP3 POP SWAP3 JUMP JUMPDEST PUSH1 0x0 DUP1 PUSH1 0x40 DUP4 DUP6 SUB SLT ISZERO PUSH2 0x1D35 JUMPI PUSH1 0x0 DUP1 REVERT JUMPDEST PUSH1 0x0 PUSH2 0x1D43 DUP6 DUP3 DUP7 ADD PUSH2 0x1C05 JUMP JUMPDEST SWAP3 POP POP PUSH1 0x20 PUSH2 0x1D54 DUP6 DUP3 DUP7 ADD PUSH2 0x1C1A JUMP JUMPDEST SWAP2 POP POP SWAP3 POP SWAP3 SWAP1 POP JUMP JUMPDEST PUSH1 0x0 DUP1 PUSH1 0x40 DUP4 DUP6 SUB SLT ISZERO PUSH2 0x1D71 JUMPI PUSH1 0x0 DUP1 REVERT JUMPDEST PUSH1 0x0 PUSH2 0x1D7F DUP6 DUP3 DUP7 ADD PUSH2 0x1C05 JUMP JUMPDEST SWAP3 POP POP PUSH1 0x20 PUSH2 0x1D90 DUP6 DUP3 DUP7 ADD PUSH2 0x1C59 JUMP JUMPDEST SWAP2 POP POP SWAP3 POP SWAP3 SWAP1 POP JUMP JUMPDEST PUSH1 0x0 DUP1 PUSH1 0x0 DUP1 PUSH1 0x80 DUP6 DUP8 SUB SLT ISZERO PUSH2 0x1DB0 JUMPI PUSH1 0x0 DUP1 REVERT JUMPDEST PUSH1 0x0 DUP6 ADD CALLDATALOAD PUSH8 0xFFFFFFFFFFFFFFFF DUP2 GT ISZERO PUSH2 0x1DCA JUMPI PUSH1 0x0 DUP1 REVERT JUMPDEST PUSH2 0x1DD6 DUP8 DUP3 DUP9 ADD PUSH2 0x1C2F JUMP JUMPDEST SWAP5 POP POP PUSH1 0x20 DUP6 ADD CALLDATALOAD PUSH8 0xFFFFFFFFFFFFFFFF DUP2 GT ISZERO PUSH2 0x1DF3 JUMPI PUSH1 0x0 DUP1 REVERT JUMPDEST PUSH2 0x1DFF DUP8 DUP3 DUP9 ADD PUSH2 0x1C2F JUMP JUMPDEST SWAP4 POP POP PUSH1 0x40 PUSH2 0x1E10 DUP8 DUP3 DUP9 ADD PUSH2 0x1C05 JUMP JUMPDEST SWAP3 POP POP PUSH1 0x60 PUSH2 0x1E21 DUP8 DUP3 DUP9 ADD PUSH2 0x1C59 JUMP JUMPDEST SWAP2 POP POP SWAP3 SWAP6 SWAP2 SWAP5 POP SWAP3 POP JUMP JUMPDEST PUSH1 0x0 PUSH1 0x20 DUP3 DUP5 SUB SLT ISZERO PUSH2 0x1E3F JUMPI PUSH1 0x0 DUP1 REVERT JUMPDEST PUSH1 0x0 PUSH2 0x1E4D DUP5 DUP3 DUP6 ADD PUSH2 0x1C59 JUMP JUMPDEST SWAP2 POP POP SWAP3 SWAP2 POP POP JUMP JUMPDEST PUSH2 0x1E5F DUP2 PUSH2 0x2768 JUMP JUMPDEST DUP3 MSTORE POP POP JUMP JUMPDEST PUSH2 0x1E6E DUP2 PUSH2 0x277A JUMP JUMPDEST DUP3 MSTORE POP POP JUMP JUMPDEST PUSH1 0x0 PUSH2 0x1E7F DUP3 PUSH2 0x26C2 JUMP JUMPDEST PUSH2 0x1E89 DUP2 DUP6 PUSH2 0x26CD JUMP JUMPDEST SWAP4 POP PUSH2 0x1E99 DUP2 DUP6 PUSH1 0x20 DUP7 ADD PUSH2 0x27CC JUMP JUMPDEST PUSH2 0x1EA2 DUP2 PUSH2 0x28BE JUMP JUMPDEST DUP5 ADD SWAP2 POP POP SWAP3 SWAP2 POP POP JUMP JUMPDEST PUSH1 0x0 PUSH2 0x1EBA PUSH1 0x23 DUP4 PUSH2 0x26CD JUMP JUMPDEST SWAP2 POP PUSH32 0x45524332303A207472616E7366657220746F20746865207A65726F2061646472 PUSH1 0x0 DUP4 ADD MSTORE PUSH32 0x6573730000000000000000000000000000000000000000000000000000000000 PUSH1 0x20 DUP4 ADD MSTORE PUSH1 0x40 DUP3 ADD SWAP1 POP SWAP2 SWAP1 POP JUMP JUMPDEST PUSH1 0x0 PUSH2 0x1F20 PUSH1 0x22 DUP4 PUSH2 0x26CD JUMP JUMPDEST SWAP2 POP PUSH32 0x45524332303A206275726E20616D6F756E7420657863656564732062616C616E PUSH1 0x0 DUP4 ADD MSTORE PUSH32 0x6365000000000000000000000000000000000000000000000000000000000000 PUSH1 0x20 DUP4 ADD MSTORE PUSH1 0x40 DUP3 ADD SWAP1 POP SWAP2 SWAP1 POP JUMP JUMPDEST PUSH1 0x0 PUSH2 0x1F86 PUSH1 0x26 DUP4 PUSH2 0x26CD JUMP JUMPDEST SWAP2 POP PUSH32 0x4F776E61626C653A206E6577206F776E657220697320746865207A65726F2061 PUSH1 0x0 DUP4 ADD MSTORE PUSH32 0x6464726573730000000000000000000000000000000000000000000000000000 PUSH1 0x20 DUP4 ADD MSTORE PUSH1 0x40 DUP3 ADD SWAP1 POP SWAP2 SWAP1 POP JUMP JUMPDEST PUSH1 0x0 PUSH2 0x1FEC PUSH1 0x22 DUP4 PUSH2 0x26CD JUMP JUMPDEST SWAP2 POP PUSH32 0x45524332303A20617070726F766520746F20746865207A65726F206164647265 PUSH1 0x0 DUP4 ADD MSTORE PUSH32 0x7373000000000000000000000000000000000000000000000000000000000000 PUSH1 0x20 DUP4 ADD MSTORE PUSH1 0x40 DUP3 ADD SWAP1 POP SWAP2 SWAP1 POP JUMP JUMPDEST PUSH1 0x0 PUSH2 0x2052 PUSH1 0x26 DUP4 PUSH2 0x26CD JUMP JUMPDEST SWAP2 POP PUSH32 0x45524332303A207472616E7366657220616D6F756E7420657863656564732062 PUSH1 0x0 DUP4 ADD MSTORE PUSH32 0x616C616E63650000000000000000000000000000000000000000000000000000 PUSH1 0x20 DUP4 ADD MSTORE PUSH1 0x40 DUP3 ADD SWAP1 POP SWAP2 SWAP1 POP JUMP JUMPDEST PUSH1 0x0 PUSH2 0x20B8 PUSH1 0x24 DUP4 PUSH2 0x26CD JUMP JUMPDEST SWAP2 POP PUSH32 0x6578656375746F723A2063616C6C6572206973206E6F74207468652065786563 PUSH1 0x0 DUP4 ADD MSTORE PUSH32 0x75746F7200000000000000000000000000000000000000000000000000000000 PUSH1 0x20 DUP4 ADD MSTORE PUSH1 0x40 DUP3 ADD SWAP1 POP SWAP2 SWAP1 POP JUMP JUMPDEST PUSH1 0x0 PUSH2 0x211E PUSH1 0x2E DUP4 PUSH2 0x26CD JUMP JUMPDEST SWAP2 POP PUSH32 0x496E697469616C697A61626C653A20636F6E747261637420697320616C726561 PUSH1 0x0 DUP4 ADD MSTORE PUSH32 0x647920696E697469616C697A6564000000000000000000000000000000000000 PUSH1 0x20 DUP4 ADD MSTORE PUSH1 0x40 DUP3 ADD SWAP1 POP SWAP2 SWAP1 POP JUMP JUMPDEST PUSH1 0x0 PUSH2 0x2184 PUSH1 0x28 DUP4 PUSH2 0x26CD JUMP JUMPDEST SWAP2 POP PUSH32 0x45524332303A207472616E7366657220616D6F756E7420657863656564732061 PUSH1 0x0 DUP4 ADD MSTORE PUSH32 0x6C6C6F77616E6365000000000000000000000000000000000000000000000000 PUSH1 0x20 DUP4 ADD MSTORE PUSH1 0x40 DUP3 ADD SWAP1 POP SWAP2 SWAP1 POP JUMP JUMPDEST PUSH1 0x0 PUSH2 0x21EA PUSH1 0x20 DUP4 PUSH2 0x26CD JUMP JUMPDEST SWAP2 POP PUSH32 0x4F776E61626C653A2063616C6C6572206973206E6F7420746865206F776E6572 PUSH1 0x0 DUP4 ADD MSTORE PUSH1 0x20 DUP3 ADD SWAP1 POP SWAP2 SWAP1 POP JUMP JUMPDEST PUSH1 0x0 PUSH2 0x222A PUSH1 0x21 DUP4 PUSH2 0x26CD JUMP JUMPDEST SWAP2 POP PUSH32 0x45524332303A206275726E2066726F6D20746865207A65726F20616464726573 PUSH1 0x0 DUP4 ADD MSTORE PUSH32 0x7300000000000000000000000000000000000000000000000000000000000000 PUSH1 0x20 DUP4 ADD MSTORE PUSH1 0x40 DUP3 ADD SWAP1 POP SWAP2 SWAP1 POP JUMP JUMPDEST PUSH1 0x0 PUSH2 0x2290 PUSH1 0x25 DUP4 PUSH2 0x26CD JUMP JUMPDEST SWAP2 POP PUSH32 0x45524332303A207472616E736665722066726F6D20746865207A65726F206164 PUSH1 0x0 DUP4 ADD MSTORE PUSH32 0x6472657373000000000000000000000000000000000000000000000000000000 PUSH1 0x20 DUP4 ADD MSTORE PUSH1 0x40 DUP3 ADD SWAP1 POP SWAP2 SWAP1 POP JUMP JUMPDEST PUSH1 0x0 PUSH2 0x22F6 PUSH1 0x24 DUP4 PUSH2 0x26CD JUMP JUMPDEST SWAP2 POP PUSH32 0x45524332303A20617070726F76652066726F6D20746865207A65726F20616464 PUSH1 0x0 DUP4 ADD MSTORE PUSH32 0x7265737300000000000000000000000000000000000000000000000000000000 PUSH1 0x20 DUP4 ADD MSTORE PUSH1 0x40 DUP3 ADD SWAP1 POP SWAP2 SWAP1 POP JUMP JUMPDEST PUSH1 0x0 PUSH2 0x235C PUSH1 0x25 DUP4 PUSH2 0x26CD JUMP JUMPDEST SWAP2 POP PUSH32 0x45524332303A2064656372656173656420616C6C6F77616E63652062656C6F77 PUSH1 0x0 DUP4 ADD MSTORE PUSH32 0x207A65726F000000000000000000000000000000000000000000000000000000 PUSH1 0x20 DUP4 ADD MSTORE PUSH1 0x40 DUP3 ADD SWAP1 POP SWAP2 SWAP1 POP JUMP JUMPDEST PUSH1 0x0 PUSH2 0x23C2 PUSH1 0x1F DUP4 PUSH2 0x26CD JUMP JUMPDEST SWAP2 POP PUSH32 0x45524332303A206D696E7420746F20746865207A65726F206164647265737300 PUSH1 0x0 DUP4 ADD MSTORE PUSH1 0x20 DUP3 ADD SWAP1 POP SWAP2 SWAP1 POP JUMP JUMPDEST PUSH2 0x23FE DUP2 PUSH2 0x27A6 JUMP JUMPDEST DUP3 MSTORE POP POP JUMP JUMPDEST PUSH2 0x240D DUP2 PUSH2 0x27B0 JUMP JUMPDEST DUP3 MSTORE POP POP JUMP JUMPDEST PUSH1 0x0 PUSH1 0x20 DUP3 ADD SWAP1 POP PUSH2 0x2428 PUSH1 0x0 DUP4 ADD DUP5 PUSH2 0x1E56 JUMP JUMPDEST SWAP3 SWAP2 POP POP JUMP JUMPDEST PUSH1 0x0 PUSH1 0x20 DUP3 ADD SWAP1 POP PUSH2 0x2443 PUSH1 0x0 DUP4 ADD DUP5 PUSH2 0x1E65 JUMP JUMPDEST SWAP3 SWAP2 POP POP JUMP JUMPDEST PUSH1 0x0 PUSH1 0x20 DUP3 ADD SWAP1 POP DUP2 DUP2 SUB PUSH1 0x0 DUP4 ADD MSTORE PUSH2 0x2463 DUP2 DUP5 PUSH2 0x1E74 JUMP JUMPDEST SWAP1 POP SWAP3 SWAP2 POP POP JUMP JUMPDEST PUSH1 0x0 PUSH1 0x20 DUP3 ADD SWAP1 POP DUP2 DUP2 SUB PUSH1 0x0 DUP4 ADD MSTORE PUSH2 0x2484 DUP2 PUSH2 0x1EAD JUMP JUMPDEST SWAP1 POP SWAP2 SWAP1 POP JUMP JUMPDEST PUSH1 0x0 PUSH1 0x20 DUP3 ADD SWAP1 POP DUP2 DUP2 SUB PUSH1 0x0 DUP4 ADD MSTORE PUSH2 0x24A4 DUP2 PUSH2 0x1F13 JUMP JUMPDEST SWAP1 POP SWAP2 SWAP1 POP JUMP JUMPDEST PUSH1 0x0 PUSH1 0x20 DUP3 ADD SWAP1 POP DUP2 DUP2 SUB PUSH1 0x0 DUP4 ADD MSTORE PUSH2 0x24C4 DUP2 PUSH2 0x1F79 JUMP JUMPDEST SWAP1 POP SWAP2 SWAP1 POP JUMP JUMPDEST PUSH1 0x0 PUSH1 0x20 DUP3 ADD SWAP1 POP DUP2 DUP2 SUB PUSH1 0x0 DUP4 ADD MSTORE PUSH2 0x24E4 DUP2 PUSH2 0x1FDF JUMP JUMPDEST SWAP1 POP SWAP2 SWAP1 POP JUMP JUMPDEST PUSH1 0x0 PUSH1 0x20 DUP3 ADD SWAP1 POP DUP2 DUP2 SUB PUSH1 0x0 DUP4 ADD MSTORE PUSH2 0x2504 DUP2 PUSH2 0x2045 JUMP JUMPDEST SWAP1 POP SWAP2 SWAP1 POP JUMP JUMPDEST PUSH1 0x0 PUSH1 0x20 DUP3 ADD SWAP1 POP DUP2 DUP2 SUB PUSH1 0x0 DUP4 ADD MSTORE PUSH2 0x2524 DUP2 PUSH2 0x20AB JUMP JUMPDEST SWAP1 POP SWAP2 SWAP1 POP JUMP JUMPDEST PUSH1 0x0 PUSH1 0x20 DUP3 ADD SWAP1 POP DUP2 DUP2 SUB PUSH1 0x0 DUP4 ADD MSTORE PUSH2 0x2544 DUP2 PUSH2 0x2111 JUMP JUMPDEST SWAP1 POP SWAP2 SWAP1 POP JUMP JUMPDEST PUSH1 0x0 PUSH1 0x20 DUP3 ADD SWAP1 POP DUP2 DUP2 SUB PUSH1 0x0 DUP4 ADD MSTORE PUSH2 0x2564 DUP2 PUSH2 0x2177 JUMP JUMPDEST SWAP1 POP SWAP2 SWAP1 POP JUMP JUMPDEST PUSH1 0x0 PUSH1 0x20 DUP3 ADD SWAP1 POP DUP2 DUP2 SUB PUSH1 0x0 DUP4 ADD MSTORE PUSH2 0x2584 DUP2 PUSH2 0x21DD JUMP JUMPDEST SWAP1 POP SWAP2 SWAP1 POP JUMP JUMPDEST PUSH1 0x0 PUSH1 0x20 DUP3 ADD SWAP1 POP DUP2 DUP2 SUB PUSH1 0x0 DUP4 ADD MSTORE PUSH2 0x25A4 DUP2 PUSH2 0x221D JUMP JUMPDEST SWAP1 POP SWAP2 SWAP1 POP JUMP JUMPDEST PUSH1 0x0 PUSH1 0x20 DUP3 ADD SWAP1 POP DUP2 DUP2 SUB PUSH1 0x0 DUP4 ADD MSTORE PUSH2 0x25C4 DUP2 PUSH2 0x2283 JUMP JUMPDEST SWAP1 POP SWAP2 SWAP1 POP JUMP JUMPDEST PUSH1 0x0 PUSH1 0x20 DUP3 ADD SWAP1 POP DUP2 DUP2 SUB PUSH1 0x0 DUP4 ADD MSTORE PUSH2 0x25E4 DUP2 PUSH2 0x22E9 JUMP JUMPDEST SWAP1 POP SWAP2 SWAP1 POP JUMP JUMPDEST PUSH1 0x0 PUSH1 0x20 DUP3 ADD SWAP1 POP DUP2 DUP2 SUB PUSH1 0x0 DUP4 ADD MSTORE PUSH2 0x2604 DUP2 PUSH2 0x234F JUMP JUMPDEST SWAP1 POP SWAP2 SWAP1 POP JUMP JUMPDEST PUSH1 0x0 PUSH1 0x20 DUP3 ADD SWAP1 POP DUP2 DUP2 SUB PUSH1 0x0 DUP4 ADD MSTORE PUSH2 0x2624 DUP2 PUSH2 0x23B5 JUMP JUMPDEST SWAP1 POP SWAP2 SWAP1 POP JUMP JUMPDEST PUSH1 0x0 PUSH1 0x20 DUP3 ADD SWAP1 POP PUSH2 0x2640 PUSH1 0x0 DUP4 ADD DUP5 PUSH2 0x23F5 JUMP JUMPDEST SWAP3 SWAP2 POP POP JUMP JUMPDEST PUSH1 0x0 PUSH1 0x20 DUP3 ADD SWAP1 POP PUSH2 0x265B PUSH1 0x0 DUP4 ADD DUP5 PUSH2 0x2404 JUMP JUMPDEST SWAP3 SWAP2 POP POP JUMP JUMPDEST PUSH1 0x0 PUSH1 0x40 MLOAD SWAP1 POP DUP2 DUP2 ADD DUP2 DUP2 LT PUSH8 0xFFFFFFFFFFFFFFFF DUP3 GT OR ISZERO PUSH2 0x2688 JUMPI PUSH2 0x2687 PUSH2 0x288F JUMP JUMPDEST JUMPDEST DUP1 PUSH1 0x40 MSTORE POP SWAP2 SWAP1 POP JUMP JUMPDEST PUSH1 0x0 PUSH8 0xFFFFFFFFFFFFFFFF DUP3 GT ISZERO PUSH2 0x26AD JUMPI PUSH2 0x26AC PUSH2 0x288F JUMP JUMPDEST JUMPDEST PUSH1 0x1F NOT PUSH1 0x1F DUP4 ADD AND SWAP1 POP PUSH1 0x20 DUP2 ADD SWAP1 POP SWAP2 SWAP1 POP JUMP JUMPDEST PUSH1 0x0 DUP2 MLOAD SWAP1 POP SWAP2 SWAP1 POP JUMP JUMPDEST PUSH1 0x0 DUP3 DUP3 MSTORE PUSH1 0x20 DUP3 ADD SWAP1 POP SWAP3 SWAP2 POP POP JUMP JUMPDEST PUSH1 0x0 PUSH2 0x26E9 DUP3 PUSH2 0x27A6 JUMP JUMPDEST SWAP2 POP PUSH2 0x26F4 DUP4 PUSH2 0x27A6 JUMP JUMPDEST SWAP3 POP DUP3 PUSH32 0xFFFFFFFFFFFFFFFFFFFFFFFFFFFFFFFFFFFFFFFFFFFFFFFFFFFFFFFFFFFFFFFF SUB DUP3 GT ISZERO PUSH2 0x2729 JUMPI PUSH2 0x2728 PUSH2 0x2831 JUMP JUMPDEST JUMPDEST DUP3 DUP3 ADD SWAP1 POP SWAP3 SWAP2 POP POP JUMP JUMPDEST PUSH1 0x0 PUSH2 0x273F DUP3 PUSH2 0x27A6 JUMP JUMPDEST SWAP2 POP PUSH2 0x274A DUP4 PUSH2 0x27A6 JUMP JUMPDEST SWAP3 POP DUP3 DUP3 LT ISZERO PUSH2 0x275D JUMPI PUSH2 0x275C PUSH2 0x2831 JUMP JUMPDEST JUMPDEST DUP3 DUP3 SUB SWAP1 POP SWAP3 SWAP2 POP POP JUMP JUMPDEST PUSH1 0x0 PUSH2 0x2773 DUP3 PUSH2 0x2786 JUMP JUMPDEST SWAP1 POP SWAP2 SWAP1 POP JUMP JUMPDEST PUSH1 0x0 DUP2 ISZERO ISZERO SWAP1 POP SWAP2 SWAP1 POP JUMP JUMPDEST PUSH1 0x0 PUSH20 0xFFFFFFFFFFFFFFFFFFFFFFFFFFFFFFFFFFFFFFFF DUP3 AND SWAP1 POP SWAP2 SWAP1 POP JUMP JUMPDEST PUSH1 0x0 DUP2 SWAP1 POP SWAP2 SWAP1 POP JUMP JUMPDEST PUSH1 0x0 PUSH1 0xFF DUP3 AND SWAP1 POP SWAP2 SWAP1 POP JUMP JUMPDEST DUP3 DUP2 DUP4 CALLDATACOPY PUSH1 0x0 DUP4 DUP4 ADD MSTORE POP POP POP JUMP JUMPDEST PUSH1 0x0 JUMPDEST DUP4 DUP2 LT ISZERO PUSH2 0x27EA JUMPI DUP1 DUP3 ADD MLOAD DUP2 DUP5 ADD MSTORE PUSH1 0x20 DUP2 ADD SWAP1 POP PUSH2 0x27CF JUMP JUMPDEST DUP4 DUP2 GT ISZERO PUSH2 0x27F9 JUMPI PUSH1 0x0 DUP5 DUP5 ADD MSTORE JUMPDEST POP POP POP POP JUMP JUMPDEST PUSH1 0x0 PUSH1 0x2 DUP3 DIV SWAP1 POP PUSH1 0x1 DUP3 AND DUP1 PUSH2 0x2817 JUMPI PUSH1 0x7F DUP3 AND SWAP2 POP JUMPDEST PUSH1 0x20 DUP3 LT DUP2 EQ ISZERO PUSH2 0x282B JUMPI PUSH2 0x282A PUSH2 0x2860 JUMP JUMPDEST JUMPDEST POP SWAP2 SWAP1 POP JUMP JUMPDEST PUSH32 0x4E487B7100000000000000000000000000000000000000000000000000000000 PUSH1 0x0 MSTORE PUSH1 0x11 PUSH1 0x4 MSTORE PUSH1 0x24 PUSH1 0x0 REVERT JUMPDEST PUSH32 0x4E487B7100000000000000000000000000000000000000000000000000000000 PUSH1 0x0 MSTORE PUSH1 0x22 PUSH1 0x4 MSTORE PUSH1 0x24 PUSH1 0x0 REVERT JUMPDEST PUSH32 0x4E487B7100000000000000000000000000000000000000000000000000000000 PUSH1 0x0 MSTORE PUSH1 0x41 PUSH1 0x4 MSTORE PUSH1 0x24 PUSH1 0x0 REVERT JUMPDEST PUSH1 0x0 PUSH1 0x1F NOT PUSH1 0x1F DUP4 ADD AND SWAP1 POP SWAP2 SWAP1 POP JUMP JUMPDEST PUSH2 0x28D8 DUP2 PUSH2 0x2768 JUMP JUMPDEST DUP2 EQ PUSH2 0x28E3 JUMPI PUSH1 0x0 DUP1 REVERT JUMPDEST POP JUMP JUMPDEST PUSH2 0x28EF DUP2 PUSH2 0x277A JUMP JUMPDEST DUP2 EQ PUSH2 0x28FA JUMPI PUSH1 0x0 DUP1 REVERT JUMPDEST POP JUMP JUMPDEST PUSH2 0x2906 DUP2 PUSH2 0x27A6 JUMP JUMPDEST DUP2 EQ PUSH2 0x2911 JUMPI PUSH1 0x0 DUP1 REVERT JUMPDEST POP JUMP INVALID GASLIMIT MSTORE NUMBER ORIGIN ADDRESS GASPRICE KECCAK256 PUSH3 0x75726E KECCAK256 PUSH2 0x6D6F PUSH22 0x6E74206578636565647320616C6C6F77616E6365A264 PUSH10 0x706673582212204E2D41 0xF PUSH10 0x843A75FAE13246F56302 ADD 0xCB 0xEC 0xB8 PUSH22 0x9F62273ED0B290B057FCD5BD64736F6C634300080000 CALLER "
				},
				"gasEstimates": {
					"creation": {
						"codeDepositCost": "2121200",
						"executionCost": "2258",
						"totalCost": "2123458"
					},
					"external": {
						"_burnFrom(address,uint256)": "infinite",
						"allowance(address,address)": "infinite",
						"approve(address,uint256)": "infinite",
						"balanceOf(address)": "1564",
						"burn(uint256)": "infinite",
						"burnFrom(address,uint256)": "infinite",
						"decimals()": "366",
						"decreaseAllowance(address,uint256)": "infinite",
						"executor(address)": "1656",
						"increaseAllowance(address,uint256)": "infinite",
						"initialize(string,string,address,uint256)": "infinite",
						"mint(address,uint256)": "infinite",
						"name()": "infinite",
						"owner()": "1311",
						"renounceOwnership()": "24419",
						"setExecutor(address,bool)": "infinite",
						"symbol()": "infinite",
						"totalSupply()": "1205",
						"transfer(address,uint256)": "infinite",
						"transferFrom(address,address,uint256)": "infinite",
						"transferOwnership(address)": "24833"
					}
				},
				"methodIdentifiers": {
					"_burnFrom(address,uint256)": "a22b35ce",
					"allowance(address,address)": "dd62ed3e",
					"approve(address,uint256)": "095ea7b3",
					"balanceOf(address)": "70a08231",
					"burn(uint256)": "42966c68",
					"burnFrom(address,uint256)": "79cc6790",
					"decimals()": "313ce567",
					"decreaseAllowance(address,uint256)": "a457c2d7",
					"executor(address)": "48c7e528",
					"increaseAllowance(address,uint256)": "39509351",
					"initialize(string,string,address,uint256)": "f542033f",
					"mint(address,uint256)": "40c10f19",
					"name()": "06fdde03",
					"owner()": "8da5cb5b",
					"renounceOwnership()": "715018a6",
					"setExecutor(address,bool)": "1e1bff3f",
					"symbol()": "95d89b41",
					"totalSupply()": "18160ddd",
					"transfer(address,uint256)": "a9059cbb",
					"transferFrom(address,address,uint256)": "23b872dd",
					"transferOwnership(address)": "f2fde38b"
				}
			},
			"storageLayout": {
				"storage": [
					{
						"astId": 130,
						"contract": "contracts/FishToken.sol:FishERC20",
						"label": "_initialized",
						"offset": 0,
						"slot": "0",
						"type": "t_bool"
					},
					{
						"astId": 133,
						"contract": "contracts/FishToken.sol:FishERC20",
						"label": "_initializing",
						"offset": 1,
						"slot": "0",
						"type": "t_bool"
					},
					{
						"astId": 1358,
						"contract": "contracts/FishToken.sol:FishERC20",
						"label": "__gap",
						"offset": 0,
						"slot": "1",
						"type": "t_array(t_uint256)50_storage"
					},
					{
						"astId": 10,
						"contract": "contracts/FishToken.sol:FishERC20",
						"label": "_owner",
						"offset": 0,
						"slot": "51",
						"type": "t_address"
					},
					{
						"astId": 124,
						"contract": "contracts/FishToken.sol:FishERC20",
						"label": "__gap",
						"offset": 0,
						"slot": "52",
						"type": "t_array(t_uint256)49_storage"
					},
					{
						"astId": 189,
						"contract": "contracts/FishToken.sol:FishERC20",
						"label": "_balances",
						"offset": 0,
						"slot": "101",
						"type": "t_mapping(t_address,t_uint256)"
					},
					{
						"astId": 195,
						"contract": "contracts/FishToken.sol:FishERC20",
						"label": "_allowances",
						"offset": 0,
						"slot": "102",
						"type": "t_mapping(t_address,t_mapping(t_address,t_uint256))"
					},
					{
						"astId": 197,
						"contract": "contracts/FishToken.sol:FishERC20",
						"label": "_totalSupply",
						"offset": 0,
						"slot": "103",
						"type": "t_uint256"
					},
					{
						"astId": 199,
						"contract": "contracts/FishToken.sol:FishERC20",
						"label": "_name",
						"offset": 0,
						"slot": "104",
						"type": "t_string_storage"
					},
					{
						"astId": 201,
						"contract": "contracts/FishToken.sol:FishERC20",
						"label": "_symbol",
						"offset": 0,
						"slot": "105",
						"type": "t_string_storage"
					},
					{
						"astId": 742,
						"contract": "contracts/FishToken.sol:FishERC20",
						"label": "__gap",
						"offset": 0,
						"slot": "106",
						"type": "t_array(t_uint256)45_storage"
					},
					{
						"astId": 1696,
						"contract": "contracts/FishToken.sol:FishERC20",
						"label": "executor",
						"offset": 0,
						"slot": "151",
						"type": "t_mapping(t_address,t_bool)"
					}
				],
				"types": {
					"t_address": {
						"encoding": "inplace",
						"label": "address",
						"numberOfBytes": "20"
					},
					"t_array(t_uint256)45_storage": {
						"base": "t_uint256",
						"encoding": "inplace",
						"label": "uint256[45]",
						"numberOfBytes": "1440"
					},
					"t_array(t_uint256)49_storage": {
						"base": "t_uint256",
						"encoding": "inplace",
						"label": "uint256[49]",
						"numberOfBytes": "1568"
					},
					"t_array(t_uint256)50_storage": {
						"base": "t_uint256",
						"encoding": "inplace",
						"label": "uint256[50]",
						"numberOfBytes": "1600"
					},
					"t_bool": {
						"encoding": "inplace",
						"label": "bool",
						"numberOfBytes": "1"
					},
					"t_mapping(t_address,t_bool)": {
						"encoding": "mapping",
						"key": "t_address",
						"label": "mapping(address => bool)",
						"numberOfBytes": "32",
						"value": "t_bool"
					},
					"t_mapping(t_address,t_mapping(t_address,t_uint256))": {
						"encoding": "mapping",
						"key": "t_address",
						"label": "mapping(address => mapping(address => uint256))",
						"numberOfBytes": "32",
						"value": "t_mapping(t_address,t_uint256)"
					},
					"t_mapping(t_address,t_uint256)": {
						"encoding": "mapping",
						"key": "t_address",
						"label": "mapping(address => uint256)",
						"numberOfBytes": "32",
						"value": "t_uint256"
					},
					"t_string_storage": {
						"encoding": "bytes",
						"label": "string",
						"numberOfBytes": "32"
					},
					"t_uint256": {
						"encoding": "inplace",
						"label": "uint256",
						"numberOfBytes": "32"
					}
				}
			},
			"userdoc": {
				"kind": "user",
				"methods": {},
				"version": 1
			}
		}
	}
}